:020000040800F2
:10000000300A00208D02000859520008DF1F000846
:1000100057520008C5050008DD5600080000000022
:100020000000000000000000000000007D520008F9
:10003000AD060008000000007B52000805530008D0
:10004000A7020008A7020008A7020008A7020008EC
:10005000A7020008A7020008A7020008A7020008DC
:10006000A7020008A7020008A7020008A7020008CC
:10007000A7020008A7020008A7020008A7020008BC
:10008000A7020008A7020008A7020008A7020008AC
:10009000A7020008A7020008A7020008A70200089C
:1000A000A7020008A7020008A7020008A70200088C
:1000B000A7020008A7020008A7020008A70200087C
:1000C000A7020008A7020008A7020008A70200086C
:1000D000A702000871560008A7020008A70200083E
:1000E000A7020008A7020008A7020008A70200084C
:1000F000A7020008A7020008A7020008A70200083C
:10010000A7020008A7020008A7020008A70200082B
:10011000A7020008A7020008A7020008A70200081B
:10012000A7020008A7020008A7020008A70200080B
:10013000A7020008A7020008A7020008A7020008FB
:10014000A7020008A7020008A7020008A7020008EB
:10015000A7020008A7020008A7020008A7020008DB
:10016000A7020008A7020008A7020008A7020008CB
:10017000A7020008A7020008A7020008000000006C
:10018000A7020008A7020008A7020008A7020008AB
:10019000A7020008A7020008A7020008A70200089B
:1001A000A7020008A7020008A702000800F002F852
:1001B00000F043F80AA090E8000C82448344AAF1BE
:1001C0000107DA4501D100F038F8AFF2090EBAE8BC
:1001D0000F0013F0010F18BFFB1A43F0010318477B
:1001E000B8A10000D8A10000103A24BF78C878C197
:1001F000FAD8520724BF30C830C144BF04680C602D
:10020000704700000023002400250026103A28BF74
:1002100078C1FBD8520728BF30C148BF0B60704778
:10022000782900F09580002070471FB505F0F2FC9A
:1002300000F0CFF81FBD10B510BD00F091F91146C8
:10024000FFF7F3FF05F088FA00F0AFF903B4FFF70A
:10025000F2FF03BC05F043FA0B49D1F800C04A682D
:100260005CF8043B1068184442F8040B8C4528BF26
:10027000A1F1DC0C8A4228BFA1F1DC02C1F800C068
:100280004A6020F000407047C403002009488047BE
:1002900009480047FEE7FEE7FEE7FEE7FEE7FEE768
:1002A000FEE7FEE7FEE7FEE704480549054A064B80
:1002B0007047000009530008AD0100083004002019
:1002C000300A002030060020300600207047000071
:1002D0000FB4044910B503AA029800F013F910BC3A
:1002E0005DF814FB200000202DE9F0410E46044685
:1002F000002020622046E168884730B3252805D0D9
:10030000D4E901219047206A401CF2E7E1682046C9
:1003100000278847050018D0A5F14100192802D808
:1003200020354FF400673246294620462760FFF704
:1003300077FF40B1012804D0F61D26F007060836E5
:10034000D8E7361DD6E72846DAE7206ABDE8F0810F
:1003500070B504460D4621461068AFF30080218831
:10036000090502D50F4A7A4402E00E4A7A440E3259
:10037000002104F1240305E000F00F060009965D5A
:100380005E54491C0028F7D120780023000704D5CB
:10039000702D02D009B1022311322046BDE8704011
:1003A00000F056B804A000000B4910B5A1F17C0282
:1003B0000A4CC2E93712372106E000EB104342F83D
:1003C0002130074B00FB03400B1EA1F10101F4DCBF
:1003D00010BD0120E8E7000064030020E119D666A3
:1003E000CD0D010010B5203AC0F00B80B1E81850D7
:1003F000203AA0E81850B1E81850A0E81850BFF40F
:10040000F5AF5FEA027C24BFB1E81850A0E81850AD
:1004100044BF18C918C0BDE810405FEA827C24BF01
:1004200051F8043B40F8043B08BF7047D20728BF8F
:1004300031F8023B48BF11F8012B28BF20F8023BDE
:1004400048BF00F8012B70477047704770477047EE
:100450002DE9F0470D4699469246044600F12408DE
:100460000168880604D5E06921F01001216000E0F0
:100470000120A84201DD471B00E00027A1697A198D
:1004800002EB0900081AA0612078C00602D42046B9
:10049000AFF30080002608E0D4E901211AF8060035
:1004A0009047206A401C761C20624E45F4DB207881
:1004B000C0060AD52046AFF3008006E0D4E901214A
:1004C00030209047206A401C2062381EA7F10107A7
:1004D000F4DC07E0D4E9012118F805009047206A10
:1004E000401C2062281EA5F10105F3DC2046AFF375
:1004F00000802078000602D50220BDE8F0870120A8
:10050000FBE70000074B70B50D467B4400F011F887
:100510000446284600F020F810B14FF0FF3070BDBF
:10052000204670BD3752000001694A1C02610878FC
:10053000704700B58FB0CDE9013100210591054923
:100540007944CDE9031011466846FFF7CDFE0FB0A0
:1005500000BD0000E5FFFFFF007B00F0800070475A
:10056000754600F02BF8AE4605006946534620F06C
:100570000700854618B020B5FFF796FEBDE820407D
:100580004FF000064FF000074FF000084FF0000B4F
:1005900021F00701AC46ACE8C009ACE8C009ACE802
:1005A000C009ACE8C0098D46704710B50446AFF3EA
:1005B00000802046BDE81040FFF748BE0048704765
:1005C000CC030020FEE7000070B58AB0184C174E2F
:1005D0000E9D266004F1400626631C366663636048
:1005E0002261C4E902500025C4E905150126E56130
:1005F000C4E90856A5622046E56200F055F910B13D
:1006000001200AB070BD039504950E200195029556
:10061000CDE90860CDE90656009505956946044880
:1006200000F0D0F80028ECD00220EAE70064004097
:100630006802002010B5044600221146094800F067
:10064000FFF908B1002010BD0021064804E001F1C7
:100650001403D25C6254491C426B13698B42F6D876
:10066000107C10BD6802002070B50F4B002246249C
:100670001D6B2C601D6B6C601D6BAA601D6BEA60AE
:100680001C6B216106E0855C02F114041E6B521C98
:1006900092B235558A42F6D30A21034800F070FA27
:1006A000002800D0012070BD6802002070470000C3
:1006B00070B5B3F5804F05D06FF0704140F822104F
:1006C000002070BD50F82230084C2340D1E900458D
:1006D00044EA05148D688E892D0245EA064589692C
:1006E0002C430C431C4340F82240E9E70000F0CFC4
:1006F000F0B50C6850F82450194A1540D1E901238F
:10070000D1E903671A433E4332434E6932438E694F
:100710003243CE6932430E6A32434E6A32438E6AA6
:100720003243CE6A3243CE6B32430E6B32434E6B52
:1007300032432A43082B01D142F0400240F82420E2
:100740004A6BB2F5801F08D10A6832B14FF480724B
:100750000A6104490268114301600020F0BD0000F5
:100760008000E0FF00011000F0B500EB820253684A
:100770008E8903F04044D1E9003543EA05138D68C2
:100780002D0245EA06452B430E8A0D4D05EB065614
:1007900033430E7D6F0107EB066633438E693343A7
:1007A000234353600268D20207D54268098A22F4C3
:1007B000700205EB0151114341600020F0BD0000C3
:1007C0000000F0FFF0B50A7D01209040344A136824
:1007D00043F001031360136823F47C531360136820
:1007E0004C6A43EA042313602D4D1C352B68834368
:1007F0002B602B4C2B4BCE690C34A6B92668864354
:1008000026608F894E6867F31F464F6903EBC70761
:10081000C7F840660F890E6867F31F464F6903EB00
:10082000C707C7F84466CE69012E14D1266806436F
:1008300026600E884C6866F31F444E6903EBC606BB
:10084000C6F840460E89CC6866F31F444E6903EB38
:10085000C603C3F84446124B8C691B1D002C1C6850
:1008600006D004431C600E4B0C69143314B104E031
:100870008443F7E71C6884431C600C69012C02D197
:100880001C6804431C60096A012902D129680143DC
:100890002960106820F0010010600020F0BD000009
:1008A00000660040006000402DE9F041040004D0E3
:1008B00094F83800002518B107E00120BDE8F08168
:1008C00084F83950204600F091F8022084F838006E
:1008D0002068016821F0020101602068016841F090
:1008E0000101016000F0FEFA0746032604E000F073
:1008F000F9FAC01B0A2862D820684068C007F6D001
:1009000020684168C90767D0A169012901683FD003
:1009100021F080010160E0690128206801683AD077
:1009200021F040010160206A01282068016835D06B
:1009300021F020010160606A01282068016830D040
:1009400021F010010160A06A0128206801682BD005
:1009500021F008010160E06A01282068016826D0C2
:1009600021F004010160D4E902010843D4E9041232
:10097000114308436168491E08432168C861206823
:10098000016821F00101016000F0ACFA07461BE0AC
:1009900041F08001BEE741F04001C3E741F0200192
:1009A000C8E741F01001CDE741F00801D2E741F07E
:1009B0000401D7E700F096FAC01B0A2804D904F80E
:1009C000386F0320657079E720684068C007F1D16F
:1009D00020684068C00703D0042084F838006CE722
:1009E000E563012084F83800002067E7124800B56D
:1009F000016887B041F000710160006800F000708C
:100A000005900D481038016841F00101016000684F
:100A1000012100F0010005904FF4C0500090022029
:100A2000CDE901010390092004906946034800F0D4
:100A300061F907B000BD00004038024000000240EC
:100A40002DE9F047044690F8390016460D46012876
:100A500010D04FF0010984F8399094F8380012282A
:100A60000BD0222084F8380000F03CFA07464FF003
:100A7000000812E00220BDE8F0873220F2E7701C87
:100A80000BD026B100F02EFAC01BB04205D90320CE
:100A900084F8380084F83980EDE72068002D66D0AE
:100AA000006910F0030FEAD04FF4D870216800EB12
:100AB0000510095811F00402616B8A602268616BAD
:100AC000125856D0D2084A6021680858616B00F06D
:100AD0000200C8604FF4DA70216800EB0510095875
:100AE000626B01F00F01116121680858616BC0F35E
:100AF0000720C8614FF4DC70216800EB051009582D
:100B0000626B117521680958626B090A5175216879
:100B10000958626B090C917521680858616B000EC9
:100B2000C8754FF4DE70216800EB05100958626B40
:100B3000117621680958626B090A517621680958B3
:100B4000626B090C917621680858616B000EC876BB
:100B50002168202085B1086194F8380032280DD032
:100B6000484684F8380084F83980002083E7C0685C
:100B700097E7520D0A60A7E7C860EDE71220F0E79B
:100B80002DE9F05F044690F839000E46012812D096
:100B90004FF0010984F8399094F8380022280DD0DC
:100BA000122084F83800216888684FF0000840015E
:100BB00006D500250DE00220BDE8F09F3220F0E7C9
:100BC0008868000101D5012503E08868C0004FD581
:100BD00002254FF4C07000EB05100A5802F0010224
:100BE0000A50216B8A68EAB323681F581743CA6802
:100BF000496842EAC1010F431F50216B0A7C02F091
:100C00000F020A614FF4C271226801EB05115358BB
:100C100023F00F03535022685358276B3F693B431F
:100C20005350216B4FF4C47303EB05130A7DD1F8C5
:100C3000151042EA01222168CA50216B4FF4C67395
:100C400003EB05130A7ED1F8191042EA012122684C
:100C5000D15021680A5842F001020A5000F042F9CE
:100C6000074600E00BE0DFF880A0DFF880B01DE071
:100C7000042084F8380084F8398001209CE7226839
:100C80001358CF6809883B4343EA41511150B4E7F8
:100C9000701C0BD026B100F025F9C01BB04205D95D
:100CA000032084F8380084F8398085E795B12068FE
:100CB000012D816813D00E4888430028E8D194F8AC
:100CC000380032280ED0484684F8380084F839803D
:100CD000002071E7206881682AEA0100EDE72BEA2D
:100CE0000100EAE72220EFE7030000040003000808
:100CF000000003102DE9F84FDFF8A091002209F160
:100D0000040A0AF1040B4FF00F080BF1040E012640
:100D10000B6896403340B34271D14C68022C01D02D
:100D2000122C11D1D40800EB84073D6A5407E40E5D
:100D300008FA04FC25EA0C05D1F810C00CFA04FCF2
:100D40004CEA050CC7F820C007685400032591F849
:100D500004C0A5400CF0030CAF430CFA04FC4CEAB1
:100D6000070CC0F800C04F68012F05D0022F03D038
:100D7000112F01D0122F11D18768D1F80CC0AF43C9
:100D80000CFA04FC4CEA070CC0F808C04768B743EB
:100D90000E79C6F3001696403E434660C668AE43E1
:100DA0008D68A5403543C5604C68E4006FD53C4C68
:100DB000256845F480452560246822F0030504F485
:100DC00080440094374C2E19D6F808789407250FE4
:100DD00008FA05F4A743344CA04201D100242EE0C8
:100DE000324CA04201D1012429E0314CA04201D172
:100DF000022424E02F4CA04202D103241FE046E04D
:100E00002D4CA04201D1042419E02C4CA04201D168
:100E1000052414E02A4CA04201D106240FE0294CFD
:100E2000A04201D107240AE0274CA04201D10824A6
:100E300005E0264CA04201D1092400E00A24AC4080
:100E40003C43C6F80848D9F800404D464E689C43DC
:100E5000F60300D51C432C60DAF8004055464E6876
:100E60009C43B60300D51C432C60DBF800405D4674
:100E70004E689C43F60200D51C432C60DEF800400F
:100E800075464E689C43B60200D51C432C60521C2C
:100E9000102AFFF43CAFBDE8F88F0000003C014091
:100EA000443802400030014000000240000402408B
:100EB00000080240000C02400010024000140240F2
:100EC00000180240001C02400020024000240240A2
:100ED0000069084000D0012070470AB18161704765
:100EE0000904FBE701480068704700001400002077
:100EF00002480168491C016070470000140000208E
:100F00000B4810B5016841F400710160016841F4BB
:100F100080610160016841F480710160052000F08A
:100F2000BFF90F2000F006F800F08AF9002010BD8C
:100F3000003C024010B5044600F060FC4FF47A71AA
:100F4000B0FBF1F000F0DCFE00222146501E00F064
:100F500087F9002010BD2DE9F041044690F8A0006B
:100F600015460F4601281DD0012684F8A0600220F6
:100F700084F8A10005EB850000EBC50004EB8000C0
:100F800034223830FFF72EFA2A463946204604F03C
:100F9000B1F82068466284F8A160002084F8A000BF
:100FA000BDE8F0810220FBE770B5040004D094F89E
:100FB000A100002510B106E0012070BD84F8A0500A
:100FC000204600F06FF8022084F8A10020688169B3
:100FD00021F070418161D4E901100143D4E9030299
:100FE000104301432068826911438161206882684F
:100FF0002B490A408260A08A020420688368A6699F
:101000003343134383602068C2680A40C260A08BE8
:1010100002042068C368266A33431343C360206810
:1010200002690A400261A08C020420680369A66A72
:10103000334313430361206842690A404261A08D33
:10104000010420684269236B1A430A43426194F801
:101050003500020294F8360001042068C36A03F0E8
:101060007F43C3622068C36A94F8346011433343FA
:101070000B43C3622068416B41F004014163206867
:10108000416B41F0020141632068816941F0010137
:101090008161C4F8A450012084F8A100002070BD33
:1010A00000F800F030B5364887B00025016841F0FF
:1010B00080610160006800F080600590304814385D
:1010C000016841F400010160016801F4000105912B
:1010D000016841F002010160016801F0020105911F
:1010E000016841F020010160016801F020010591D3
:1010F000016841F040010160016801F04001059183
:10110000016841F080010160016801F080010591F2
:10111000016841F4807101600068032400F480706C
:101120000590202000900120CDE90204019069463D
:101130001448FFF7DFFD4FF4806000900220CDE9F6
:1011400001050E20CDE9034069460F48FFF7D2FDA7
:101150004FF40C60009069460C48FFF7CBFD4FF44C
:101160007E40009069460A48FFF7C4FD40F2F760F0
:10117000009069460748FFF7BDFD07B030BD00008D
:1011800044380240000402400014024000180240AB
:10119000001C02400020024070B5044690F8A000F8
:1011A0000E46012820D0012584F8A050022084F8A2
:1011B000A10003EB830000EBC30004EB800141F8C6
:1011C000386F886A3044C1E90102C86A1044C860B7
:1011D0001A46204603F08EFF2068456284F8A1502D
:1011E000002084F8A00070BD022070BD2DE9F04100
:1011F000044690F8A0000F4601281FD0012584F86E
:10120000A050022084F8A10003EB830000EBC30090
:1012100004EB80010026E1E90E672046C1E9026285
:10122000C1E90A721A4603F065FF2068456284F836
:10123000A15084F8A0600020BDE8F0810220FBE707
:1012400008B50020009008BD00F01F020121914068
:101250004009800000F1E020C0F800117047000054
:10126000F0B40E4B1B68C3F30223C3F10704042C34
:1012700000D904241D1D072D01D2002300E0DB1E30
:10128000012606FA04F56D1E0D409D409E40761E17
:10129000164045EA0601F0BC03F0DFBF0CED00E0AC
:1012A000064A00F0070110684FF6FF03184040EAB5
:1012B0000120034908431060704700000CED00E076
:1012C0000000FA052DE9F8431D48016841F08051FE
:1012D00001600068012700F080500090380490FA07
:1012E000A0F0DFF86080B0FA80F048F82070FFF7D7
:1012F000F9FD04464FF47A75134E04E0FFF7F2FD52
:10130000001BA84213D87068C003F7D54FF4003013
:1013100090FAA0F0B0FA80F048F82070FFF7E2FDF4
:10132000044607E0FFF7DEFD001BA84202D90320B8
:10133000BDE8F88370688003F4D50020F8E700006A
:101340004038024000000E42007000402DE9F84F86
:1013500004460068DFF878829E4DC10747F6C07AE0
:101360004FF0E0464FF0010B4FF0000901D180072C
:101370004BD59949C1F86890FFF7B4FD074604E0E2
:10138000FFF7B0FDC01B64287ED828680001F7D4A1
:1013900020789249C0070DD09AFAAAF26068B2FA92
:1013A00082F2904096FAA6F3A268B3FA83F39A40C9
:1013B000104308602078800718D5086896FAA6F2CE
:1013C00000F0E040B2FA82F2D0406268237B9201E2
:1013D00042EA036242EA00700860D8F80010E2694D
:1013E00021F01F01521E1143C8F800107A49C1F8BC
:1013F00068B0FFF777FD074604E0FFF773FDC01BF9
:10140000642841D828680001F7D52068410701D435
:10141000000776D57049C1F87090FFF763FD074665
:1014200004E0FFF75FFDC01B64282DD82868C04387
:101430008000F6D520786A4F40074FF0706C29D5B0
:10144000386896FAA6F100F0E040B1FA81F1C840A0
:101450009AFAAAF22169B2FA82F291409CFAACF3AC
:101460006269B3FA83F39A40114396FAA6F2B2FA8C
:1014700082F2904001433960D8F800106FF0FF030A
:1014800021F4F851226A00E079E003EB02221143D3
:10149000C8F800102078000723D538689CFAACF112
:1014A00000F07060B1FA81F1C8409AFAAAF221699D
:1014B000B2FA82F291409CFAACF2B2FA82F2904017
:1014C000014396FAA6F2A069B2FA82F29040014373
:1014D0003960D8F80010626A21F440311143C8F82D
:1014E00000103D49C1F870B0FFF7FCFC064604E06F
:1014F000FFF7F8FC801B642841D82868C0438000AF
:10150000F6D42078800651D532484F4640300168E5
:1015100041F0805101600068324E00F08050009030
:10152000306840F480703060FFF7DCFC054604E072
:10153000FFF7D8FC401B642821D83068C005F7D5D8
:10154000264E143E3068218D00F4407001F4407145
:1015500088422BD03068244920F44070C1F800B094
:101560000F603060800710D5FFF7BCFC054641F2E4
:10157000883707E0FFF7B6FC401BB84202D90320CA
:10158000BDE8F88F30688007F4D5A06A1149C0F330
:1015900001220831032A13D0086820F4F8100860EB
:1015A0003068218DC1F30B01084330602078C006FC
:1015B00004D50E4994F82C00C1F8E0010020DFE7C3
:1015C0000A680B4B22F4F812184002430A60E7E75E
:1015D0008C38024000380240000047428438024004
:1015E0008838024000700040400E474200104742D9
:1015F000FFFCFF0F2DE9F05FDFF8F8A104460F466E
:10160000DAF80000DFF8F08100F00F02C8B27A4982
:10161000814641F2883608F10808BA4261D2024692
:101620008AF80020DAF8000000F00F00B8427DD1FF
:101630002078800707D5D8F80020A36822F0F002B0
:101640001A43C8F800202078C0072DD06068012810
:101650001AD002281BD0032819D00968890700294D
:1016600064DAD8F80010474621F003010143C8F8B6
:101670000010FFF737FC0546606801280FD00228EC
:1016800018D003281CD027E009688903E7E7096818
:101690008901E4E7FFF726FC401BB04258D83868C0
:1016A000C0F381000128F5D188E0FFF71BFC401B47
:1016B000B0424DD83868C0F381000228F5D17DE0F2
:1016C0003868FFF70FFC401BB042F9D940E0FFF744
:1016D00009FC401BB0423BD8386810F00C0FF6D123
:1016E0006CE02078800707D5D8F80020A36822F0A6
:1016F000F0021A43C8F800202078C0074CD0606878
:10170000012828D0022829D0032827D00968890772
:10171000002949DAD8F8002022F003020243C8F871
:101720000020FFF7DFFB0546606800E03CE0012891
:101730001DD0022829D0032838D0B3464646306849
:1017400010F00C0F28D0FFF7CDFB411B5945F6D9FF
:101750000320BDE8F09F09688903D9E7096889017A
:10176000D6E7FFF7BFFB411B594502D9F0E7B34667
:1017700046463068C0F381000128F2D10CE0FFF743
:10178000B1FB411B594502D9E2E7B34646463068F2
:10179000C0F381000228F2D18AF80090DAF8000044
:1017A00000F00F00B84209D00120D2E7444620687B
:1017B000FFF798FB401BB042F9D9C9E720784007F2
:1017C00007D5D8F80010E26821F4E0511143C8F8B9
:1017D00000102078000708D5D8F80010226921F4FD
:1017E000604141EAC201C8F800100F20FFF7A2FBD8
:1017F0000020AEE7003C02400038024010B500F087
:1018000043F808490968F02292FAA2F201F0F001C7
:10181000B2FA82F2D140044A515CC84003490860E0
:1018200010BD0000083802401E5C000800000020C7
:1018300010B5FFF7E3FF074909684FF4E05292FA49
:10184000A2F201F4E051B2FA82F2D140024A515CB4
:10185000C84010BD083802401E5C000810B5FFF7F4
:10186000CDFF074909684FF4604292FAA2F201F4F1
:101870006041B2FA82F2D140024A515CC84010BDC8
:10188000083802401E5C000830B51948006810F0A6
:101890000C01184812D0184C04290ED008290DD17B
:1018A000134A121F1168136801F03F015D0247F6E9
:1018B000C07304D5B4FBF1F003E0204630BDB0FBAB
:1018C000F1F01168194093FAA3F3B3FA83F3D94006
:1018D000484311684FF4403292FAA2F201F44031C9
:1018E000B2FA82F2D140491C4900B0FBF1F030BDA0
:1018F000083802400024F40040787D012DE9F84FBB
:1019000004460078DFF8FCA2BF4DC0074FF0000688
:1019100048D0DAF800105046C1F38101012908D0FF
:101920000068C0F3810002280AD1281D0068400227
:1019300006D52868800335D56068002873D031E06B
:10194000DFF8C49209F1020989F80060FFF7CAFACA
:10195000074641F2883804E0FFF7C4FAC11B41454D
:101960007AD828688003F7D4207989F80000606865
:1019700060B1FFF7B7FA074604E0FFF7B3FAC11BFF
:101980004145EDD828688003F7D50BE0FFF7AAFAA8
:10199000074604E0FFF7A6FAC11B4145E0D82868D6
:1019A0008003F7D42078DFF86492800744D5DAF812
:1019B0000010504611F00C0F4FF0F80809D00068E5
:1019C000C0F3810002280BD18E48001F006840023E
:1019D00006D42868800714D5E068012823D110E0D8
:1019E000E068D0B10120C9F80000FFF77BFA074694
:1019F00004E0FFF777FAC01B6428B1D82868800795
:101A0000F7D5286898FAA8F22169B2FA82F220F094
:101A1000F8009140084328600EE0C9F80060FFF725
:101A200061FA074605E0EAE0FFF75CFAC01B6428AC
:101A300012D828688007F7D42078000725D5DFF86A
:101A4000C4817348616908F16C0881B101210160AA
:101A5000FFF748FA074605E07EE0FFF743FAC01BB0
:101A6000642879D8D8F800008007F6D50DE0066024
:101A7000FFF738FA074604E0FFF734FAC01B642882
:101A80006AD8D8F800008007F6D42078400753D5EC
:101A90005C483830016841F0805101600068DFF82F
:101AA000748100F080500090D8F8001041F48071EB
:101AB000C8F80010FFF716FA074604E0FFF712FA1D
:101AC000C01B642848D8D8F80000C005F6D5DFF858
:101AD00034B10BF1680B8BF80060FFF703FA07468F
:101AE00041F2883804E0FFF7FDF9C11B41457ED87B
:101AF000DBF800008007F6D4207A8BF80000A0689D
:101B000068B1FFF7EFF9074604E0FFF7EBF9C11BF7
:101B100041456CD8DBF800008007F6D50CE0FFF7F4
:101B2000E1F9074604E0FFF7DDF9C11B41455ED846
:101B3000DBF800008007F6D4A069E8B3DAF80010FB
:101B4000C1F3810102295AD0022806D0C9F8606089
:101B5000FFF7C8F904464DE049E04F46C9F8606018
:101B6000FFF7C0F9064604E0FFF7BCF9801B6428C4
:101B70003DD828688001F7D4D4E90701084347F627
:101B8000C07191FAA1F1626AB1FA81F18A40A16A49
:101B90004FF0FF3303EB51014FF4403393FAA3F3BB
:101BA000B3FA83F399400A4310434FF0706292FAFC
:101BB000A2F2B2FA82F200E01FE0E16A914008432B
:101BC0001049091F086001203866FFF78BF90446A9
:101BD00004E0FFF787F9001B642808D82868800113
:101BE000F7D50AE0FFF77EF9001B642802D903202D
:101BF000BDE8F88F28688001F4D40020F8E70120C0
:101C0000F6E7000008380240003802400000474272
:101C1000800E47420070004070B515460E46040025
:101C200003D094F8490010B107E0012070BD0020F6
:101C300084F84800204600F01BF804F108012068F1
:101C4000FEF756FD3146A2682068FEF78DFDD4E907
:101C500001022946236BFEF72BFDA168206850F88E
:101C6000212042F0010240F82120002070BD000038
:101C70001A4800B5016887B041F0010101600068B1
:101C800000F00100059015480838016841F008018E
:101C90000160016801F008010591016841F010013F
:101CA00001600068694600F0100005904EF2B370C4
:101CB00000900220019001200290032003900C204C
:101CC00004900748FFF716F84FF6807000906946B9
:101CD0000448FFF70FF807B000BD00003838024095
:101CE000000C0240001002404FF0E0210428086977
:101CF00003D020F004000861704740F00400FAE7C8
:101D000010B5401EB0F1807F01D3012010BD4FF00F
:101D1000E02460610F21601703F09FFA0020A061AA
:101D200007202061002010BD704738B501680446C7
:101D30000868CA68C0F3000002F4807238B132B19A
:101D4000086848680090E06B40F00100E0630868B4
:101D50004A69C0F3400002F0010238B132B10868AC
:101D600048680090E06B40F00400E06308684A694E
:101D7000C0F3800002F0010238B132B1086848684F
:101D80000090E06B40F00200E06308684A69C0F32D
:101D9000C00002F0010238B132B108684868009012
:101DA000E06B40F00800E0630868C968C0F34010C9
:101DB00001F0200118B111B1204603F0CFFA2068DC
:101DC0000168C068C1F3C01100F0800019B110B102
:101DD000204603F0D1FB21680868CA68C0F3801070
:101DE00002F04002012568B162B1CA68204622F0C3
:101DF0004002CA6094F8391032290CD080F839506A
:101E000000F0ECF8E06B002804D084F8395020464C
:101E1000FFF78AFF38BD222180F83910F0E770B54E
:101E2000040004D094F83900002510B106E0012028
:101E300070BD84F83850204600F020F8022084F865
:101E400039002068C16821F40051C160204603F0C8
:101E5000D9FA2068016921F4904101612068416943
:101E600021F02A0141612068C16841F40051C1603C
:101E7000E563012084F83900002070BD30B50446C8
:101E80000068204987B0884239D11F48016841F075
:101E900001010160006800F0010005901A4814304B
:101EA000016841F0100101600068012100F010009C
:101EB00005904FF4007000900220CDE901010390DD
:101EC0000720124D049069462846FEF713FF281597
:101ED000009069462846FEF70DFF2068C16821F092
:101EE0004001C1602068C16841F02001C160252027
:101EF000FFF7AAF9032211462520FFF7B1F907B031
:101F000030BD0000001001403038024000000240A7
:101F10002DE9F047044690F8390099460D4601280E
:101F200001D0122857D125B31AB394F838000128EC
:101F300051D0012684F838600027E76394F839000F
:101F4000122819D0222084F83900A285E2854FF4A6
:101F50008058E08D4B46401EE085A0684FF000029F
:101F600040454FF02001204616D103F038FBB0B9B0
:101F700004E00120BDE8F0873220E4E72069002872
:101F80002068406803D0C1B225F8011B12E0C0F3FD
:101F9000080125F8021B0DE003F021FB08B1032026
:101FA000E8E7206900282068406801D000F07F0041
:101FB00005F8010BE08D0028CBD194F839003228C8
:101FC00005D084F8396084F838700020D2E71220F8
:101FD00084F83900F7E70220CCE770477047FEE746
:101FE0000C4800B5026887B0002142F08002026010
:101FF000006800F0800005900C20CDE90001012070
:1020000002900320039069460348FEF773FE07B071
:1020100000BD000030380240001C024070B50121B4
:10202000144C154D01280CD0207828B1D5F80C029D
:1020300048B1D5F8080230B1D5F80C02012812D009
:1020400016E02170F2E70A2003F054FB0020207014
:10205000D5F80C0218B1D5F8080210B108E001203B
:1020600070BD022070BDD5F80802012800D1217092
:10207000002070BD240000200080434270B50E494E
:102080000E4A064608881268002422B13046BDE890
:10209000704002F0F3BD4D8800214543084602F030
:1020A00013FC02F0B3FDB1B2054801E00180641CED
:1020B000AC42FBD370BD000090010020480200201C
:1020C000000008602DE9F05F394C3A4DA071296895
:1020D00039B102F0F3FDE88A2080288B6080BDE8EA
:1020E000F09F33492C232A2589884FF0F00949F2C3
:1020F000413A2B2645F2105B4FF4305E4FF448779F
:102100004FF4A07845F2103C4FF4F07258B1A4F8A7
:102110000080A4F80290514501D0614529D1238166
:102120006581A68139E0A4F80090A4F802805145A9
:1021300001D0614508D123816581A681614531D1F6
:10214000A4F8008062802DE0594508D1A4F808E089
:102150004FF4285060814FF42C50A08106E0A1F587
:10216000C85063381ED123816681A5812280678093
:1021700018E0594508D1A4F808E04FF428506081D0
:102180004FF42C50A08106E0A1F5C850633804D16B
:1021900023816581A68127806280614502D12280EA
:1021A000A4F80280BDE8F05F002002F0B1BA0000A0
:1021B00090010020480200202DE9F04104463948F2
:1021C0000D46006820B12046BDE8F04102F08ABD0E
:1021D000354E270A3146B0884989A0F513434FEAA6
:1021E0001528413B0BD0A0F5A643103B07D0B3F513
:1021F000007311D0A0F5C853633B27D04BE00846CD
:1022000002F0F8FC384602F0E9FCE0B202F0E6FC2D
:10221000B08902F0EFFC38E0084602F0EBFC3846EB
:1022200002F0DCFC7089401C80B202F0E3FCE0B2FA
:1022300002F0D4FCB08902F0DDFC404602F0CEFC96
:10224000B089401C80B202F0D5FC21E0B07918B909
:102250003088001B401E84B2084602F0CBFC270ADF
:10226000384602F0BBFCE0B202F0B8FC384602F09F
:10227000B5FCE0B202F0B2FCB08902F0BBFC404613
:1022800002F0ACFCE8B202F0A9FC404602F0A6FC69
:10229000E8B202F0A3FC054930890880881C02805E
:1022A000BDE8F0814802002090010020FEFF076099
:1022B0002DE9F8431F46144B804608981B6833B13C
:1022C00000903B46404602F02BFDBDE8F883A2EBB0
:1022D0000802521C96B20C4685B2DFF830900FE02F
:1022E0002146404602F0F0FA02F090FC00204946F8
:1022F00002E00D80401C80B2B042FAD3641CA4B24C
:10230000BC42EDD9E1E7000048020020000008606F
:102310002DE9F04F95B002F091FEFE4D4FF0010A0D
:10232000A5F15009A88049F2413B45F2103645F22B
:10233000105441F6631818B102F04CFD02F08BB94D
:10234000F5480027016841F002010160006810A90A
:1023500000F0020000902020CDE9100A0320CDE912
:1023600012A0EE48FEF7C6FC4FF020414846C9F8DF
:102370000010EB49C0E901171021C9F80C70C0E941
:102380000471C9F818700902C9F81C70C0E9097114
:102390008900C0E90B71C9F834708901C9E90E716F
:1023A00046210B910F20CDE90907CDE902070490E2
:1023B000D8480F9702AA09A908975038FFF72CFCB4
:1023C000322003F097F9D32002F014FC02F06EF9EA
:1023D000A88002F06BF9A88002F068F94FF6FF724E
:1023E00002EA0020A88002F061F9A9885F4608434C
:1023F000A880B84248D0D42002F0FCFB02F056F985
:10240000A88002F053F9A88002F050F902EA0020F7
:10241000A88002F04BF9A9880843A880B04233D0C5
:102420004FF45A4002F0E6FB02F040F9A8804FF466
:102430005B4002F0DFFB02F039F902EA0020A880DD
:102440004FF45C4002F0D6FB02F030F9A988084353
:10245000A880B0F5004F7DD0A04215D0A12002F099
:10246000C9FB02F023F9A88002F020F902EA00205B
:10247000A88002F01BF9A9880843A0F5AE41A88006
:10248000613901D1A5F80480A988A6A0FDF720FF35
:10249000A888B8427ED1CF2002F0ACFB002002F029
:1024A0009DFBC12002F09AFB302002F097FBED204B
:1024B00002F0A0FB642002F091FB032002F08EFBEF
:1024C000122002F08BFB812002F088FBE82002F052
:1024D00091FB852002F082FB102002F07FFB7A2026
:1024E00002F07CFBCB2002F085FB392002F076FB6A
:1024F0002C2002F073FB002002F070FB342002F06D
:102500006DFB022002F06AFBF72002F073FB202033
:1025100002F064FBEA2002F06DFB002002F05EFB9B
:10252000002002F05BFBC02002F064FB1B2002F0E5
:1025300055FBC12002F05EFB012002F04FFBC520DD
:1025400002F058FB302002F049FB302002F046FB3D
:10255000C72000E0B7E002F04DFBB72002F03EFBE1
:10256000362002F047FB482002F038FB3A2002F008
:1025700041FB552002F032FBB12002F03BFB002072
:1025800002F02CFB1A2002F029FBB62002F032FBED
:102590000A2000E099E002F021FBA22002F01EFBDD
:1025A000F22002F027FB002002F018FB262002F0A8
:1025B00021FB012002F012FBE02002F01BFB0F20A8
:1025C00002F00CFB2A2002F009FB282002F006FB97
:1025D000082002F003FB0E2002F000FB082002F0AE
:1025E000FDFA542002F0FAFAA92002F0F7FA43208B
:1025F00002F0F4FA0A2002F0F1FA0F2002F0EEFAEB
:10260000002002F0EBFA002002F0E8FA002002F0CD
:10261000E5FA002002F0E2FAE12002F0EBFA0020F5
:1026200002F0DCFA152002F0D9FA172002F0D6FAEF
:10263000072002F0D3FA112002F0D0FA062002F0AF
:10264000CDFA2B2002F0CAFA562002F0C7FA3C203D
:1026500002F0C4FA052002F0C1FA102002F0BEFA1E
:102660000F2002F0BBFA3F2002F0B8FA3F2002F040
:10267000B5FA0F2002F0B2FA2B2002F0BBFA0020CC
:1026800002F0ACFA002002F0A9FA012002F0A6FA4A
:102690003F2002F0A3FA2A2002F0ACFA002002F058
:1026A0009DFA002002F09AFA002002F097FAEF203B
:1026B00002F094FA112002F09DFA782003F01AF843
:1026C000292001F00BBFAC80DEE6B0427ED1ED20C8
:1026D00002F090FA012002F081FAFE2002F07EFA68
:1026E000EE2002F087FADE2002F078FA212002F0D4
:1026F00075FAF12002F07EFA012002F06FFADF2075
:1027000002F078FA102002F069FAC42002F072FA9E
:102710008F200FE09001002030380240000402407A
:10272000040100A0204C43442049443A25780D0A76
:102730000000000002F052FAC62002F05BFA00200E
:1027400002F04CFAE22002F049FAE22002F046FAE6
:10275000E22002F043FABF2002F04CFAAA2002F075
:102760003DFAB02002F046FA0D2002F037FA0020C0
:1027700002F034FA0D2002F031FA002002F02EFAB5
:10278000112002F02BFA002002F028FA192002F0A2
:1027900025FA002002F022FA212002F01FFA002080
:1027A00002F01CFA2D2002F019FA002002F016FAAD
:1027B0003D2002F013FA002002F010FA5D2002F032
:1027C0000DFA002002F00AFA5D2000E0FEE302F0BC
:1027D00005FA002002F002FAB12002F00BFA802084
:1027E00002F0FCF9002002F0F9F98B2002F0F6F972
:1027F000002002F0F3F9962002F0F0F9002002F038
:10280000EDF9B22002F0F6F9002002F0E7F900201D
:1028100002F0E4F9022002F0E1F9002002F0DEF912
:10282000032002F0DBF9002002F0D8F9B32002F017
:10283000E1F9002002F0D2F9002002F0CFF90020E7
:1028400002F0CCF9002002F0C9F9002002F0C6F92C
:10285000002002F0C3F9002002F0C0F9002002F0CD
:10286000BDF9002002F0BAF9002002F0B7F900200B
:1028700002F0B4F9002002F0B1F9002002F0AEF944
:10288000002002F0ABF9002002F0A8F9002002F0CD
:10289000A5F9002002F0A2F9002002F09FF9002023
:1028A00002F09CF9002002F099F9002002F096F95C
:1028B000002002F093F9002002F090F9002002F0CD
:1028C0008DF9B42002F096F98B2002F087F90020F0
:1028D00002F084F9962002F081F9002002F07EF9DE
:1028E000A12002F07BF9002002F078F9B52002F077
:1028F00081F9022002F072F9002002F06FF9032042
:1029000002F06CF9002002F069F9042002F066F987
:10291000002002F063F9B62002F06CF9002002F00A
:102920005DF9002002F05AF9B72002F063F90020A7
:1029300002F054F9002002F051F93F2002F04EF964
:10294000002002F04BF95E2002F048F9002002F06E
:1029500045F9642002F042F9002002F03FF98C2092
:1029600002F03CF9002002F039F9AC2002F036F90F
:10297000002002F033F9DC2002F030F9002002F0F0
:102980002DF9702002F02AF9002002F027F990209A
:1029900002F024F9002002F021F9EB2002F01EF9E8
:1029A000002002F01BF9DC2002F018F9002002F0F0
:1029B00015F9B82002F01EF9002002F00FF90020EE
:1029C00002F00CF9002002F009F9002002F006F9EB
:1029D000002002F003F9002002F000F9002002F0CC
:1029E000FDF8002002F0FAF8BA2002F003F92420E2
:1029F00002F0F4F8002002F0F1F8002002F0EEF806
:102A0000002002F0EBF8C12002F0F4F8202002F0E0
:102A1000E5F8002002F0E2F8542002F0DFF8002090
:102A200002F0DCF8FF2002F0D9F8002002F0D6F81E
:102A3000C22002F0DFF80A2002F0D0F8002002F0F5
:102A4000CDF8042002F0CAF8002002F0C7F8C32035
:102A500002F0D0F83C2002F0C1F8002002F0BEF8ED
:102A60003A2002F0BBF8002002F0B8F8392002F05A
:102A7000B5F8002002F0B2F8372002F0AFF80020DD
:102A800002F0ACF83C2002F0A9F8002002F0A6F811
:102A9000362002F0A3F8002002F0A0F8322002F065
:102AA0009DF8002002F09AF82F2002F097F80020FD
:102AB00002F094F82C2002F091F8002002F08EF839
:102AC000292002F08BF8002002F088F8262002F07E
:102AD00085F8002002F082F8242002F07FF8002020
:102AE00002F07CF8242002F079F8002002F076F859
:102AF000232002F073F8002002F070F83C2002F06E
:102B00006DF8002002F06AF8362002F067F8002025
:102B100002F064F8322002F061F8002002F05EF862
:102B20002F2002F05BF8002002F058F82C2002F071
:102B300055F8002002F052F8292002F04FF800204A
:102B400002F04CF8262002F049F8002002F046F886
:102B5000242002F043F8002002F040F8242002F084
:102B60003DF8002002F03AF8232002F037F8002068
:102B700002F034F8C42002F03DF8622002F02EF892
:102B8000002002F02BF8052002F028F8002002F0C7
:102B900025F8842002F022F8002002F01FF8F0202F
:102BA00002F01CF8002002F019F8182002F016F8C4
:102BB000002002F013F8A42002F010F8002002F028
:102BC0000DF8182002F00AF8002002F007F8502053
:102BD00002F004F8002002F001F80C2001F0FEFFE2
:102BE000002001F0FBFF172001F0F8FF002001F0AA
:102BF000F5FF952001F0F2FF002001F0EFFFF32038
:102C000001F0ECFF002001F0E9FFE62001F0E6FF13
:102C1000002001F0E3FFC52001F0ECFF322001F0BD
:102C2000DDFF002001F0DAFF442001F0D7FF002093
:102C300001F0D4FF652001F0D1FF002001F0CEFFAC
:102C4000762001F0CBFF002001F0C8FF882001F0C2
:102C5000C5FF002001F0C2FFC62001F0CBFF2020FD
:102C600001F0BCFF002001F0B9FF172001F0B6FF12
:102C7000002001F0B3FF012001F0B0FF002001F0BF
:102C8000ADFFC72001F0B6FF002001F0A7FF002034
:102C900001F0A4FF002001F0A1FF002001F09EFF41
:102CA000C82001F0A7FF002001F098FF002001F0EC
:102CB00095FF002001F092FF002001F08FFFC92056
:102CC00001F098FF002001F089FF002001F086FF4D
:102CD000002001F083FF002001F080FF002001F0C0
:102CE0007DFF002001F07AFF002001F077FF002037
:102CF00001F074FF002001F071FF002001F06EFF71
:102D0000002001F06BFF002001F068FF002001F0BF
:102D100065FF002001F062FF002001F05FFF00204E
:102D200001F05CFFE02001F065FF162001F056FF86
:102D3000002001F053FF1C2001F050FF002001F0A3
:102D40004DFF212001F04AFF002001F047FF36200F
:102D500001F044FF002001F041FF462001F03EFF5A
:102D6000002001F03BFF522001F038FF002001F06D
:102D700035FF642001F032FF002001F02FFF7A20A0
:102D800001F02CFF002001F029FF8B2001F026FF2D
:102D9000002001F023FF992001F020FF002001F026
:102DA0001DFFA82001F01AFF002001F017FFB92035
:102DB00001F014FF002001F011FFC42001F00EFF0C
:102DC000002001F00BFFCA2001F008FF002001F0F5
:102DD00005FFD22001F002FF002001F0FFFED92004
:102DE00001F0FCFE002001F0F9FEE02001F0F6FE0B
:102DF000002001F0F3FEF32001F0F0FE002001F0CE
:102E0000EDFEE12001F0F6FE162001F0E7FE0020C5
:102E100001F0E4FE1C2001F0E1FE002001F0DEFEE6
:102E2000222001F0DBFE002001F0D8FE362001F068
:102E3000D5FE002001F0D2FE452001F0CFFE00209B
:102E400001F0CCFE522001F0C9FE002001F0C6FEC8
:102E5000642001F0C3FE002001F0C0FE7A2001F0E2
:102E6000BDFE002001F0BAFE8B2001F0B7FE00206D
:102E700001F0B4FE992001F0B1FE002001F0AEFE99
:102E8000A82001F0ABFE002001F0A8FEB92001F05F
:102E9000A5FE002001F0A2FEC42001F09FFE00204C
:102EA00001F09CFECA2001F099FE002001F096FE80
:102EB000D22001F093FE002001F090FED82001F016
:102EC0008DFE002001F08AFEE02001F087FE002048
:102ED00001F084FEF32001F081FE002001F07EFE6F
:102EE000E22001F087FE052001F078FE002001F0CD
:102EF00075FE0B2001F072FE002001F06FFE1B201A
:102F000001F06CFE002001F069FE342001F066FE45
:102F1000002001F063FE442001F060FE002001F07B
:102F20005DFE4F2001F05AFE002001F057FE6120A7
:102F300001F054FE002001F051FE792001F04EFE18
:102F4000002001F04BFE882001F048FE002001F037
:102F500045FE972001F042FE002001F03FFEA62032
:102F600001F03CFE002001F039FEB72001F036FEF2
:102F7000002001F033FEC22001F030FE002001F0FD
:102F80002DFEC72001F02AFE002001F027FED120EF
:102F900001F024FE002001F021FED62001F01EFEEB
:102FA000002001F01BFEDD2001F018FE002001F0E2
:102FB00015FEF32001F012FE002001F00FFEE320C9
:102FC00001F018FE052001F009FE00E00AE30020F0
:102FD00001F004FE0A2001F001FE002001F0FEFDD8
:102FE0001C2001F0FBFD002001F0F8FD332001F072
:102FF000F5FD002001F0F2FD442001F0EFFD00207E
:1030000001F0ECFD502001F0E9FD002001F0E6FDAB
:10301000622001F0E3FD002001F0E0FD782001F0E6
:10302000DDFD002001F0DAFD882001F0D7FD002051
:1030300001F0D4FD972001F0D1FD002001F0CEFD7C
:10304000A62001F0CBFD002001F0C8FDB72001F063
:10305000C5FD002001F0C2FDC22001F0BFFD00202F
:1030600001F0BCFDC72001F0B9FD002001F0B6FD64
:10307000D12001F0B3FD002001F0B0FDD52001F01A
:10308000ADFD002001F0AAFDDD2001F0A7FD00202C
:1030900001F0A4FDF32001F0A1FD002001F09EFD50
:1030A000E42001F0A7FD012001F098FD002001F0CF
:1030B00095FD012001F092FD002001F08FFD02201E
:1030C00001F08CFD002001F089FD2A2001F086FD31
:1030D000002001F083FD3C2001F080FD002001F084
:1030E0007DFD4B2001F07AFD002001F077FD5D2091
:1030F00001F074FD002001F071FD742001F06EFDFF
:10310000002001F06BFD842001F068FD002001F03B
:1031100065FD932001F062FD002001F05FFDA2201B
:1031200001F05CFD002001F059FDB32001F056FDD7
:10313000002001F053FDBE2001F050FD002001F001
:103140004DFDC42001F04AFD002001F047FDCD20D7
:1031500001F044FD002001F041FDD32001F03EFDCF
:10316000002001F03BFDDD2001F038FD002001F0E2
:1031700035FDF32001F032FD002001F02FFDE520A8
:1031800001F038FD002001F029FD002001F026FDAE
:10319000002001F023FD002001F020FD022001F0BD
:1031A0001DFD002001F01AFD292001F017FD00206F
:1031B00001F014FD3C2001F011FD002001F00EFD96
:1031C0004B2001F00BFD002001F008FD5D2001F017
:1031D00005FD002001F002FD742001F0FFFC00203D
:1031E00001F0FCFC842001F0F9FC002001F0F6FC69
:1031F000932001F0F3FC002001F0F0FCA22001F08C
:10320000EDFC002001F0EAFCB32001F0E7FC002017
:1032100001F0E4FCBE2001F0E1FC002001F0DEFC46
:10322000C42001F0DBFC002001F0D8FCCD2001F02F
:10323000D5FC002001F0D2FCD32001F0CFFC00200F
:1032400001F0CCFCDC2001F0C9FC002001F0C6FC40
:10325000F32001F0C3FC002001F0C0FCE62001F0E7
:10326000C9FC112001F0BAFC002001F0B7FC3420A9
:1032700001F0B4FC002001F0B1FC562001F0AEFCDE
:10328000002001F0ABFC762001F0A8FC002001F04A
:10329000A5FC772001F0A2FC002001F09FFC662035
:1032A00001F09CFC002001F099FC882001F096FCC4
:1032B000002001F093FC992001F090FC002001F027
:1032C0008DFCBB2001F08AFC002001F087FC9920D6
:1032D00001F084FC002001F081FC662001F07EFCFE
:1032E000002001F07BFC552001F078FC002001F06B
:1032F00075FC552001F072FC002001F06FFC4520A8
:1033000001F06CFC002001F069FC432001F066FC38
:10331000002001F063FC442001F060FC002001F07B
:103320005DFCE72001F066FC322001F057FC002034
:1033300001F054FC552001F051FC002001F04EFC3E
:10334000762001F04BFC002001F048FC662001F0E3
:1033500045FC002001F042FC672001F03FFC00200A
:1033600001F03CFC672001F039FC002001F036FC44
:10337000872001F033FC002001F030FC992001F09F
:103380002DFC002001F02AFCBB2001F027FC0020CE
:1033900001F024FC992001F021FC002001F01EFC2A
:1033A000772001F01BFC002001F018FC442001F004
:1033B00015FC002001F012FC562001F00FFC00204B
:1033C00001F00CFC232001F009FC002001F006FCB8
:1033D000332001F003FC002001F000FC452001F047
:1033E000FDFB002001F0FAFBE82001F003FC0020C7
:1033F00001F0F4FB002001F0F1FB992001F0EEFB5D
:10340000002001F0EBFB872001F0E8FB002001F039
:10341000E5FB882001F0E2FB002001F0DFFB7720D4
:1034200001F0DCFB002001F0D9FB662001F0D6FBA7
:10343000002001F0D3FB882001F0D0FB002001F038
:10344000CDFBAA2001F0CAFB002001F0C7FBBB2086
:1034500001F0C4FB002001F0C1FB992001F0BEFB8C
:10346000002001F0BBFB662001F0B8FB002001F05A
:10347000B5FB552001F0B2FB002001F0AFFB552059
:1034800001F0ACFB002001F0A9FB442001F0A6FBF9
:10349000002001F0A3FB442001F0A0FB002001F07C
:1034A0009DFB552001F09AFB002001F097FBE920DD
:1034B00001F0A0FBAA2001F091FB002001F08EFB9F
:1034C000002001F08BFB002001F088FB002001F0C0
:1034D00091FBAA2001F082FBCF2001F08BFB0020A2
:1034E00001F07CFB002001F079FB002001F076FB6D
:1034F000002001F073FB002001F070FB002001F0C0
:103500006DFB002001F06AFB002001F067FB00204A
:1035100001F064FB002001F061FB002001F05EFB84
:10352000002001F05BFB002001F058FB002001F0BF
:1035300055FB002001F052FB002001F04FFB002062
:1035400001F04CFBF02001F055FB002001F046FBA0
:10355000502001F043FB002001F040FB002001F06F
:103560003DFB002001F03AFBF32001F043FB00207B
:1035700001F034FBF92001F03DFB062001F02EFBA9
:10358000102001F02BFB292001F028FB002001F086
:1035900025FB3A2001F02EFB552001F01FFB1120E6
:1035A00001F028FB642002F0A5F8292001F022FB9D
:1035B000352001F01FFB002001F010FB512001F02D
:1035C00019FBFF2001F00AFB532001F013FB2C2014
:1035D00001F004FB552001F00DFB822001F0FEFA02
:1035E0002C20FDE3A0427DD14FF4704355211846B5
:1035F00001F016FB4FF20107AA21384601F010FB3B
:103600005221781C01F00CFB0821B81C01F008FBCA
:103610000121F81C01F004FB0D214FF4304001F0B2
:10362000FFFA0D214BF2010001F0FAFA0D214BF2E5
:10363000020001F0F5FA34214FF4364001F0F0FABF
:1036400034214BF2016001F0EBFA34214BF20260BD
:1036500001F0E6FA0D214FF4314001F0E1FA0D21BD
:103660004BF2011001F0DCFA0D214BF2021001F0D7
:10367000D7FA34214FF4374001F0D2FA34214BF21B
:10368000017001F0CDFA34214BF2027001F0C8FA5A
:1036900000214FF4324001F0C3FA00214BF2012027
:1036A00001F0BEFA00214BF2022001F0B9FA242108
:1036B0004FF4384001F0B4FA24214BF6010001F038
:1036C000AFFA24214BF6020001F0AAFA01214FF4CF
:1036D0003F4001F0A5FA0F214FF4334001F0A0FA6A
:1036E0000F2100E0FEE34BF2013001F099FA0F21C7
:1036F0004BF2023001F094FA34214FF4394001F0DA
:103700008FFA34214BF6011001F08AFA34214BF67E
:10371000021001F085FA08214FF4354001F080FADB
:1037200008214BF2015001F07BFA08214BF20250C4
:1037300001F076FA03214FF4424001F071FA24219E
:103740004FF43A4001F06CFA24214BF6012001F0CD
:1037500067FA24214BF6022001F062FA00214FF4AF
:103760003C4001F05DFA78214BF6014001F058FA37
:1037700000214BF6024001F053FA00214FF43D4086
:1037800001F04EFA78214BF6015001F049FA002180
:103790004BF6025001F044FA00214FF43E4001F094
:1037A0003FFA64214BF6016001F03AFA00214FF430
:1037B000514001F035FA33214DF2011001F030FA99
:1037C00000214DF2021001F02BFA34214DF20310CA
:1037D00001F026FA00214DF2041001F021FA3A21FD
:1037E0004DF2051001F01CFA00214DF2061001F017
:1037F00017FA4A214DF2071001F012FA00214DF29A
:10380000081001F00DFA5C214DF2091001F008FAE0
:1038100000214DF20A1001F003FA81214DF20B1044
:1038200001F0FEF900214DF20C1001F0F9F9A6218A
:103830004DF20D1001F0F4F900214DF20E1001F0DF
:10384000EFF9E5214DF20F1001F0EAF901214DF2F7
:10385000101001F0E5F913214DF2111001F0E0F91B
:1038600001214DF2121001F0DBF954214DF2131039
:1038700001F0D6F901214DF2141001F0D1F98221A5
:103880004DF2151001F0CCF901214DF2161001F0A6
:10389000C7F9CA214DF2171001F0C2F902214DF209
:1038A000181001F0BDF900214DF2191001F0B8F91E
:1038B00002214DF21A1001F0B3F901214DF21B1053
:1038C00001F0AEF902214DF21C1001F0A9F93421EA
:1038D0004DF21D1001F0A4F902214DF21E1001F06D
:1038E0009FF967214DF21F1001F09AF902214DF264
:1038F000201001F095F984214DF2211001F090F98A
:1039000002214DF2221001F08BF9A4214DF2231077
:1039100001F086F902214DF2241001F081F9B7215E
:103920004DF2251001F07CF902214DF2261001F034
:1039300077F9CF214DF2271001F072F902214DF2F3
:10394000281001F06DF9DE214DF2291001F068F91F
:1039500002214DF22A1001F063F9F2214DF22B10F1
:1039600001F05EF902214DF22C1001F059F9FE210F
:103970004DF22D1001F054F903214DF22E1001F0FB
:103980004FF910214DF22F1001F04AF903214DF2A9
:10399000301001F045F933214DF2311001F040F9BA
:1039A00003214DF2321001F03BF96D214DF233103D
:1039B00001F036F900214FF4524001F031F9332182
:1039C0004DF2012001F02CF900214DF2022001F00E
:1039D00027F934214DF2032001F022F900214DF2A4
:1039E000042001F01DF93A214DF2052001F018F9EB
:1039F00000214DF2062001F013F94A214DF2072073
:103A000001F00EF900214DF2082001F009F95C21C6
:103A10004DF2092001F004F900214DF20A2001F0D5
:103A2000FFF881214DF20B2001F0FAF800214DF250
:103A30000C2001F0F5F8A6214DF20D2001F0F0F870
:103A400000214DF20E2001F0EBF8E5214DF20F20A0
:103A500001F0E6F801214DF2102001F0E1F8132108
:103A60004DF2112001F0DCF801214DF2122001F09D
:103A7000D7F854214DF2132001F0D2F801214DF274
:103A8000142001F0CDF882214DF2152001F0C8F884
:103A900001214DF2162001F0C3F8CA214DF2172082
:103AA00001F0BEF802214DF2182001F0B9F8002112
:103AB0004DF2192001F0B4F802214DF21A2001F064
:103AC000AFF801214DF21B2001F0AAF802214DF2BE
:103AD0001C2001F0A5F834214DF21D2001F0A0F8C2
:103AE00002214DF21E2001F09BF867214DF21F20AC
:103AF00001F096F802214DF2202001F091F8842186
:103B00004DF2212001F08CF802214DF2222001F02B
:103B100087F8A4214DF2232001F082F802214DF212
:103B2000242001F07DF8B7214DF2252001F078F82E
:103B300002214DF2262001F073F8CF214DF227200B
:103B400001F06EF802214DF2282001F069F8DE2123
:103B50004DF2292001F064F802214DF22A2001F0F3
:103B60005FF8F2214DF22B2001F05AF802214DF2BC
:103B70002C2001F055F8FE214DF22D2001F050F8D7
:103B800003214DF22E2001F04BF810214DF22F2091
:103B900001F046F803214DF2302001F041F83321C5
:103BA0004DF2312001F03CF803214DF2322001F0BA
:103BB00037F86D214DF2332001F032F800214FF437
:103BC000534001F02DF833214DF2013001F028F877
:103BD00000214DF2023001F023F834214DF2033080
:103BE00001F01EF800214DF2043001F019F83A21DD
:103BF0004DF2053001F014F800214DF2063001F0CD
:103C00000FF84A214DF2073001F00AF800214DF279
:103C1000083001F005F85C214DF2093001F000F8A0
:103C200000214DF20A3000F0FBFF81214DF20B30F4
:103C300000F0F6FF00214DF20C3000F0F1FFA6215C
:103C40004DF20D3000F0ECFF00214DF20E3000F08F
:103C5000E7FFE5214DF20F3000F0E2FF01214DF2C8
:103C6000103000F0DDFF13214DF2113000F0D8FFCD
:103C700001214DF2123000F0D3FF54214DF21330E8
:103C800000F0CEFF01214DF2143000F0C9FF822177
:103C90004DF2153000F0C4FF01214DF2163000F056
:103CA000BFFFCA214DF2173000F0BAFF02214DF2DA
:103CB000183000F0B5FF00214DF2193000F0B0FFD0
:103CC00002214DF21A3000F0ABFF01214DF21B3002
:103CD00000F0A6FF02214DF21C3000F0A1FF3421BC
:103CE0004DF21D3000F09CFF02214DF21E3000F01D
:103CF00097FF67214DF21F3000F092FF02214DF235
:103D0000203000F08DFF84214DF2213000F088FF3B
:103D100002214DF2223000F083FFA4214DF2233026
:103D200000F07EFF02214DF2243000F079FFB72130
:103D30004DF2253000F074FF02214DF2263000F0E4
:103D40006FFFCF214DF2273000F06AFF02214DF2C4
:103D5000283000F065FFDE214DF2293000F060FFD1
:103D600002214DF22A3000F05BFFF2214DF22B30A0
:103D700000F056FF02214DF22C3000F051FFFE21E1
:103D80004DF22D3000F04CFF03214DF22E3000F0AB
:103D900047FF10214DF22F3000F042FF03214DF27A
:103DA000303000F03DFF33214DF2313000F038FF6C
:103DB00003214DF2323000F033FF6D214DF23330EC
:103DC00000F02EFF00214FF4544000F029FF332172
:103DD0004DF2014000F024FF00214DF2024000E0CE
:103DE0007CE300F01DFF34214DF2034000F018FF8A
:103DF00000214DF2044000F013FF3A214DF205403E
:103E000000F00EFF00214DF2064000F009FF4A21AC
:103E10004DF2074000F004FF00214DF2084000F091
:103E2000FFFE5C214DF2094000F0FAFE00214DF248
:103E30000A4000F0F5FE81214DF20B4000F0F0FE4B
:103E400000214DF20C4000F0EBFEA6214DF20D409A
:103E500000F0E6FE00214DF20E4000F0E1FEE5210B
:103E60004DF20F4000F0DCFE01214DF2104000F059
:103E7000D7FE13214DF2114000F0D2FE01214DF288
:103E8000124000F0CDFE54214DF2134000F0C8FE68
:103E900001214DF2144000F0C3FE82214DF2154085
:103EA00000F0BEFE01214DF2164000F0B9FECA211D
:103EB0004DF2174000F0B4FE02214DF2184000F020
:103EC000AFFE00214DF2194000F0AAFE02214DF292
:103ED0001A4000F0A5FE01214DF21B4000F0A0FEAB
:103EE000022100E0FDE24DF21C4000F099FE342179
:103EF0004DF21D4000F094FE02214DF21E4000F0F4
:103F00008FFE67214DF21F4000F08AFE02214DF224
:103F1000204000F085FE84214DF2214000F080FE1B
:103F200002214DF2224000F07BFEA4214DF22340FD
:103F300000F076FE02214DF2244000F071FEB72120
:103F40004DF2254000F06CFE02214DF2264000F0BB
:103F500067FECF214DF2274000F062FE02214DF2B4
:103F6000284000F05DFEDE214DF2294000F058FEB1
:103F700002214DF22A4000F053FEF2214DF22B4077
:103F800000F04EFE02214DF22C4000F049FEFE21D1
:103F90004DF22D4000F044FE03214DF22E4000F082
:103FA0003FFE10214DF22F4000F03AFE03214DF26A
:103FB000304000F035FE33214DF2314000F030FE4C
:103FC00003214DF2324000F02BFE6D214DF23340C3
:103FD00000F026FE00214FF4554000F021FE332171
:103FE0004DF2015000F01CFE00214DF2025000F095
:103FF00017FE34214DF2035000F012FE00214DF265
:10400000045000F00DFE3A214DF2055000F008FE7C
:1040100000214DF2065000F003FE4A214DF20750F8
:1040200000F0FEFD00214DF2085000F0F9FD5C218A
:104030004DF2095000F0F4FD00214DF20A5000F05D
:10404000EFFD81214DF20B5000F0EAFD00214DF211
:104050000C5000F0E5FDA6214DF20D5000F0E0FD02
:1040600000214DF20E5000F0DBFDE5214DF20F5026
:1040700000F0D6FD01214DF2105000F0D1FD1321CA
:104080004DF2115000F0CCFD01214DF2125000F024
:10409000C7FD54214DF2135000F0C2FD01214DF235
:1040A000145000F0BDFD82214DF2155000F0B8FD16
:1040B00001214DF2165000F0B3FDCA214DF2175008
:1040C00000F0AEFD02214DF2185000F0A9FD0021D4
:1040D0004DF2195000F0A4FD02214DF21A5000F0EB
:1040E0009FFD01214DF21B5000F09AFD02214DF27F
:1040F0001C5000F095FD34214DF21D5000F090FD54
:1041000002214DF21E5000F08BFD67214DF21F5031
:1041100000F086FD02214DF2205000F081FD842147
:104120004DF2215000F07CFD02214DF2225000F0B2
:1041300077FDA4214DF2235000F072FD02214DF2D3
:10414000245000F06DFDB7214DF2255000F068FDC0
:1041500002214DF2265000F063FDCF214DF2275091
:1041600000F05EFD02214DF2285000F059FDDE21E5
:104170004DF2295000F054FD02214DF22A5000F07A
:104180004FFDF2214DF22B5000F04AFD02214DF27D
:104190002C5000F045FDFE214DF22D5000F040FD69
:1041A00003214DF22E5000F03BFD10214DF22F5017
:1041B00000F036FD03214DF2305000F031FD332187
:1041C0004DF2315000F02CFD03214DF2325000F041
:1041D00027FD6D214DF2335000F022FD00214FF4F8
:1041E000564000F01DFD33214DF2016000F018FD36
:1041F00000214DF2026000F013FD34214DF2036006
:1042000000F00EFD00214DF2046000F009FD3A219E
:104210004DF2056000F004FD00214DF2066000F053
:10422000FFFC4A214DF2076000F0FAFC00214DF23C
:10423000086000F0F5FC5C214DF2096000F0F0FC34
:1042400000214DF20A6000F0EBFC81214DF20B6081
:1042500000F0E6FC00214DF20C6000F0E1FCA6212C
:104260004DF20D6000F0DCFC00214DF20E6000F01C
:10427000D7FCE5214DF20F6000F0D2FC01214DF298
:10428000106000F0CDFC13214DF2116000F0C8FC6D
:1042900001214DF2126000F0C3FC54214DF2136075
:1042A00000F0BEFC01214DF2146000F0B9FC822147
:1042B0004DF2156000F0B4FC01214DF2166000F0E3
:1042C000AFFCCA214DF2176000F0AAFC02214DF2AA
:1042D000186000F0A5FC00214DF2196000F0A0FC70
:1042E00002214DF21A6000F09BFC01214DF21B608F
:1042F00000F096FC02214DF21C6000F091FC34218C
:104300004DF21D6000F08CFC02214DF21E6000F0A9
:1043100087FC67214DF21F6000F082FC02214DF204
:10432000206000F07DFC84214DF2216000F078FCDB
:1043300002214DF2226000F073FCA4214DF22360B3
:1043400000F06EFC02214DF2246000F069FCB72100
:104350004DF2256000F064FC02214DF2266000F071
:104360005FFCCF214DF2276000F05AFC02214DF294
:10437000286000F055FCDE214DF2296000F050FC71
:1043800002214DF22A6000F04BFCF2214DF22B602D
:1043900000F046FC02214DF22C6000F041FCFE21B1
:1043A0004DF22D6000F03CFC03214DF22E6000F038
:1043B00037FC10214DF22F6000F032FC03214DF24A
:1043C000306000F02DFC33214DF2316000F028FC0C
:1043D00003214DF2326000F023FC6D214DF2336079
:1043E00000F01EFC5521184600F01AFCAA213846A0
:1043F00000F016FC5221781C00F012FC0821B81CB9
:1044000000F00EFC0021F81C00F00AFCCC214FF457
:10441000314000F005FC00214BF2011000F000FCDF
:1044200005214FF4364000F0FBFB70214FF437407C
:1044300000F0F6FB70214BF2017000F0F1FB01215E
:104440004FF4384000F0ECFB03214BF6010000F084
:10445000E7FB03214BF6020000F0E2FB03214BF6E1
:10446000030000F0DDFB02214FF43C4000F0D8FBDC
:1044700000214BF6014000F0D3FB00214BF6024037
:1044800000F0CEFBD0214FF4494000F0C9FB0221DF
:104490004CF6011000F0C4FB50214CF6021000F065
:1044A000BFFB50214CF6031000F0BAFB50214CF634
:1044B000041000F0B5FB00214FF4545000F0B0FBA5
:1044C00055214FF4685000F0ABFB4FF4885000F0DA
:1044D00091FB782001F01CF94FF4245000F08AFB86
:1044E000B9E04045FCD1E22000F084FB1D2000F043
:1044F00075FB022000F072FB042000F06FFB6420CB
:1045000001F006F9E02000F075FB012000F066FBE9
:104510000A2001F0EFF8E02000F06CFB032000F02F
:104520005DFB0C2001F0E6F8012000F063FB0A209F
:1045300001F0E0F8E62000F05DFB2F2000F04EFBDC
:10454000FF2000F04BFBFF2000F048FBB02000F004
:1045500051FB202000F042FB002000F03FFB032035
:1045600000F03CFB40F21F3000F038FB012000F06F
:1045700035FB40F2DF1000F031FB002000F02EFB95
:10458000B42000F037FB042000F028FB40F21F406D
:1045900000F024FB002000F021FB2E2000F01EFB89
:1045A000002000F01BFB002000F018FB002000F0B2
:1045B00015FB002000F012FBB62000F01BFB0220D0
:1045C00000F00CFB4FF4037000F008FB002000F03B
:1045D00005FB172000F002FB152000F0FFFA002079
:1045E00000F0FCFA002000F0F9FAF02000F002FBE5
:1045F000032000F0F3FA292000F0FCFAD02000F0AC
:10460000F9FA002000F0EAFABE2000F0F3FA0520E3
:1046100000F0E4FAFE2000F0E1FA012000F0DEFAFA
:10462000002000F0DBFA002000F0D8FA002000F0B3
:10463000D5FAB82000F0DEFA032000F0CFFA01200E
:1046400000F0CCFABA2000F0D5FA012000F0C6FA4A
:10465000642000F035F8A888584505D0B04203D052
:10466000A04201D0404509D1042002900490D9E92C
:10467000010202A9D9F83030FCF71AF80020FDF742
:1046800021FD0549C1F894A24FF6FF70FDF7F6FC35
:1046900015B0BDE8F08F00000080404203460120C5
:1046A00000E05843491EC9B2FBD27047034808B521
:1046B0000088ADF80000BDF8000008BD00000860EB
:1046C00010B50246BE2000F095FA052000F086FAEB
:1046D000104601F08EF99FED0C1B53EC112B01F0ED
:1046E0009BF901F059F980B200F078FA012000F04E
:1046F00075FAFF2000F072FA002000F06FFABDE8B2
:104700001040002000F06ABA66666666666604407D
:10471000F0B56C4D00232946AA79898841F66314C7
:10472000012A01D01AB11BE0A14202D118E0A14236
:1047300016D1082814D2DFE800F00406080A0C0E8F
:10474000101206200CE007200AE0042008E00520F3
:1047500006E0012004E0002002E0032000E0022047
:10476000A1F5134745F2103245F21056413F05D0EE
:10477000914203D0B14201D0A14277D1082812D290
:10478000DFE800F0110406080A0C0E1080230AE08E
:10479000402308E0C02306E0202304E0602302E079
:1047A000A02300E0E023B14202D14FF4585000E0D2
:1047B0003620914205D0B14203D0A14201D043F04E
:1047C0000803194600F02CFAAA88A2420AD09806DB
:1047D0002888698802D5884202D303E0884201D93B
:1047E000298068806889B24241D100F003FA002034
:1047F00000F0F4F96889401C80B200F0FBF9002059
:1048000000F0ECF96889801C80B200F0F3F9288888
:10481000401EC0F30F2000F0E1F96889C01C80B28F
:1048200000F0E8F92878401EC0B200F0D7F9A88956
:1048300000F0E0F9002000F0D1F9A889401C80B216
:1048400000F0D8F9002000F0C9F9A889801C80B2D6
:1048500000F0D0F96888401EC0F30F2000F0BEF9C8
:10486000A889C01C80B200F0C5F922E028E000F061
:10487000C1F9002000F0B2F9002000F0AFF928885B
:10488000401EC0F30F2000F0A9F92878401EC0B2E6
:1048900000F0A4F9A88900F0ADF9002000F09EF91D
:1048A000002000F09BF96888401EC0F30F2000F044
:1048B00095F9A878BDE8F040401EC0B200F08EB96E
:1048C000F0BD000090010020F0B53F4D0C460246BF
:1048D000060AA9882846270A4089A1F51343413BC7
:1048E00028D0A1F5A643103B24D0A1F5C853633BC3
:1048F0002FD0A1F5AA43103B64D100F07BF93046DC
:1049000000F06CF96889401C80B200F073F9D0B2F5
:1049100000F064F9A88900F06DF9384600F05EF9FE
:10492000A889401C80B200F065F9E0B2BDE8F04013
:1049300000F054B900F05EF9304600F04FF9D0B203
:1049400000F04CF9A88900F055F9384600F046F916
:10495000EBE7A97929B300F04DF9304600F03EF9B4
:10496000D0B200F03BF92888401EC0F30F2000F0C1
:1049700035F92878401EC0B200F030F9A88900F05F
:1049800039F9384600F02AF9E0B200F027F96888D2
:10499000401EC0F30F2000F021F9A878401EC0B2DD
:1049A000C4E72988891A491E8AB200F023F9002039
:1049B00000F014F9002000F011F9100A00F00EF9CF
:1049C000D0B2D9E7F0BD0000900100202DE9F84FEA
:1049D00082461F460E468B46580700D0012000EB4A
:1049E000D700790810FB01F0203AC0B202F0FF09AD
:1049F0000025009047E00C2F10D0102F12D0182F58
:104A000014D0202F42D1224901EBC9104FF00008E9
:104A1000445D200610D51F48026811E009EB4900EB
:104A20001D4906E01D4901EB0910EFE71C4909EBA0
:104A3000C90001EB8000E9E70A9828B915484268E7
:104A400031465046FDF7B8FB6006040E1548761C4B
:104A5000B6B24088B04219D9A6EB0B00B84209D1D2
:104A60000AF101001FFA80FA0E485E46018851459E
:104A70000CD906E008F1010000F0FF08B8F1080FBA
:104A8000C7D36D1CEDB200988542B4D3BDE8F88F52
:104A9000EE730008280000202E5C0008A2600008C9
:104AA00092660008900100202DE9F84F044600F0BE
:104AB000FF0810190D46DDE90A761FFA80FA581929
:104AC0001FFA80F94FF0000B11E0544502D3E819AA
:104AD000444685B24D450FD23B4629462046CDF887
:104AE00000B0FFF773FF04EB570084B2761C3278F6
:104AF000A2F120005E28E8D9BDE8F88F2DE9FC5F1F
:104B000000248A46064680274FF010084FF01E0BFF
:104B100001E0042C0FD2CDE900874546325D0BEB56
:104B200044100323514600F016F8A8460AF1140574
:104B30006FF0610909E0CDE9008709EB4410325DAF
:104B4000A9B280B2032300F006F8641CE4B2082C7A
:104B5000DFD3BDE8FC9F2DE9FF4F81B08046DDF833
:104B60003CA00E984FF000091F4693464C460AF0B1
:104B7000010546082BE0381B401EC1B20A20FFF792
:104B80008DFDBBFBF0F00A21B0FBF1F201FB12003E
:104B9000B9F1000F05D1791E8C4202DA48B14FF00D
:104BA00001093030C2B206FB048080B200950E9B32
:104BB00008E05FEA0A6006FB04800E9B80B2009565
:104BC0000AD530220299FFF701FF641CE4B2BC420F
:104BD000D1D305B0BDE8F08F2022F3E701B5BDF8D1
:104BE0000000ADF80000BDF800000149088008BDD4
:104BF0000000086001B5BDF80000ADF80000BDF888
:104C000000000149088008BDFEFF07600248034913
:104C1000008908807047000090010020FEFF0760B7
:104C2000024A1080901C018070470000FEFF076060
:104C3000104810B5016886B041F0020101600068BB
:104C4000012100F0020005900320CDE90210CDE91A
:104C50000001094C69462046FCF74CF80122114638
:104C60002046FCF73AF9012202212046FCF735F9EB
:104C700006B010BD303802400004024008B5009074
:104C80000548018BC08A491E8BB2401E82B20021AA
:104C9000084600F045F808BD4802002000B58DB078
:104CA000082309920490009306916846FCF74EFB96
:104CB000002800D001200DB000BD000010B5084B49
:104CC0001C465875A1888AB2218889B220B1012872
:104CD00001D1D9821A8310BDDA82198310BD000078
:104CE00048020020F0B50C4F94B23D46DFF82CC0CE
:104CF0002B68EA692D7D7E7D5CF8255026B103FB8B
:104D000001004243AC52F0BD7E68301A401E03FBE6
:104D1000001050432C52F0BD48020020300000200B
:104D20002DE9F843274EDDF820900024757D0DB164
:104D3000054606E077680D46B91A1A463B1A491E21
:104D40005B1E306896F814C0DFF87C80521B871A0F
:104D500058F82CC0F66900FB015006FB00C51B4843
:104D60007F1EBFB2066846F400060660006800F4C5
:104D7000000000901648066826F0010606604FF411
:104D800040360660022646630764C563591AF3037A
:104D900003EB0242491C11434164C0F8389001689A
:104DA00041F0010101605A0102E0641C944202D208
:104DB00041688907F9D5816841F002018160BDE849
:104DC000F883000048020020300000203038024004
:104DD00000B002402DE9FF4700F030F904460126FB
:104DE000704DA0F586404FF4F07141F21809423839
:104DF00044D03204A4F5E0434FF44870843B4FD0D4
:104E000003218C274FF4806C4FF4B47A6E3357D063
:104E1000A4F5E0484FF4A063B8F118085ED0A4F5FB
:104E20000048B8F117085CD04C450CD1C5E90030FA
:104E3000AF810A2028822881E88168826981022165
:104E40005046FFF72BFF58482A68594F028069687F
:104E500041800220E861554838605248554BA838D7
:104E60004FF00008C0E90038C0F80880C0F80C8096
:104E70004C453BD14FF08053036139E04FF48870CB
:104E8000C5E900102E816E812820A8810820E881C4
:104E9000052129828203688204214FF49070D0E7B3
:104EA000C5E900012E816E812E20A8811720E8819E
:104EB000D22028821620688203214FF4C670C0E7F2
:104EC0004FF41670C5E900C0142028816981AF81B4
:104ED000E881A02028820C206882B0E7C5E9003074
:104EE000B1E74FF44070C5E900C0ACE7C0F81080EE
:104EF0002C89631E43616B89A3F1010CC0F818C0B3
:104F0000B5F80CC06444A4F1010CC0F81CC0B5F89D
:104F10000EC06344A3F1010CC0F820C0A2F1010C43
:104F2000A444C0F824C0A1F1010C9C44C0F828C0DE
:104F3000B5F810C062442244521EC2626A8A11440B
:104F40001944491E016380F8368080F8358080F866
:104F500034801448A838FCF727F807200621CDE94B
:104F60000208CDE90081FF2302220020396800F009
:104F700025F8A888002280B200902888114683B2C4
:104F8000104600F049F80020FFF798FE0A4885F81F
:104F90001480C0F8946204B04FF0FF30BDE8F047D1
:104FA000FFF76CBE4802002090010020000000C006
:104FB0003000002000680140008040422DE9F043AD
:104FC0008DB0164614AA002492E88013114D009467
:104FD00002942A6801926D68CDE904634FEA0823C0
:104FE000CDE9067303954FEA09230DF1240E0893CA
:104FF0008EE8260002468DF8324006488DF8314092
:105000008DF830C06946A838FBF7A5FF0DB0BDE8A4
:10501000F08300004802002070B51E460446034697
:105020000548049DFCF7B8F823462A463146BDE8FA
:1050300070400148FCF7DAB8A001002030B52A48DA
:1050400087B00021026842F040020260026802F06C
:1050500040020592026842F4807202600068234CAC
:1050600000F4807005904020CDE9000101200290FD
:105070000320039069462046FBF73CFE84201C4D2C
:10508000009069462846FBF735FE40212046FBF795
:105090001FFF044604212846FBF71AFF44EA400498
:1050A00080212846FBF714FF44EA8000C0B206289E
:1050B00017D2DFE800F003070A0D101344F2423064
:1050C00007B030BD47F28400FAE747F21600F7E771
:1050D00047F21800F4E748F21600F1E741F2180031
:1050E000EEE70020ECE700003038024000180240F4
:1050F00000200240F0B504688B88E568C5F30B45D5
:105100002B441D04882303EBC213E65806F47046B3
:10511000E65004680F68E668C6F30B46761C3E440A
:105120002E43E65003688C89DD68C5F30A052C44DC
:1051300025048C2404EBC2141E5906F470461E513B
:1051400003688F68DE68C6F30A06761C3E442E4369
:105150001E519423046803EBC213E55825F007059C
:10516000E55005680C69EC5091F8313005681F0274
:1051700091F832301C040B7E1E069C2303EBC213F5
:1051800055F803C04FF0000C45F803C091F83050BB
:1051900034433D4325430468E5509823046803EBFA
:1051A000C213E55825F0FF05E55005684C69EC5041
:1051B000A023046803EBC213E55840F20776B54319
:1051C000E550D1E907452C430568EC50AC23046851
:1051D00003EBC213E55844F803C005684C6AEC5071
:1051E0000B698BB3012B32D0042B32D0022B30D081
:1051F000032B2ED0072B2CD00123B024056804EB01
:10520000C2142E5906F0E0262E51D1E90065AD1BDF
:105210000E8D5D435E43ED1C45EA064305682B5148
:10522000B423046803EBC213E5586FF30A05E55095
:105230000468C96AE1500068842101EBC211425838
:1052400042F001024250F0BDFFE70423D5E70323FB
:10525000D3E70223D1E7FEE770470907090E0028CC
:1052600006DA00F00F0000F1E02080F8141D70470E
:1052700000F1E02080F8001470477047704700008C
:1052800070B51E4C92B00025266846F08056266008
:10529000246804F080541194194C266846F4404662
:1052A000266024680DF1240C04F440441194012478
:1052B00000940194022406948CE80D006605CDE963
:1052C00007616846FCF71AFB00B1FEE7FBF7FAFF3F
:1052D00000B1FEE70CA90F2081E831004FF4A05087
:1052E0000F904FF48050109005210CA8FCF782F924
:1052F000002800D0FEE712B070BD00004038024028
:1053000000700040FBF7F4BD1048016841F47001E3
:1053100001600F48016841F0010101600C4A002161
:105320000832116002680B4B1A400260031D0A4AE2
:105330001A60026822F48022026005480C30016085
:1053400002495806803908607047000088ED00E087
:1053500000380240FFFFF6FE1030002410B590F830
:105360003910222903D0322901D0022010BD8168D2
:10537000B1F5805F11D00169002901681FD049682B
:1053800001F07F03816A4A1C82620B70C18D491E45
:105390000904090CC18518D02FE00269816A002A2E
:1053A0000268526805D0D2B20A80816A491C8162C3
:1053B000ECE7C2F308020A80816A891CF7E74A68B1
:1053C000816A4B1C83620A70E0E70168CA6822F0B8
:1053D0002002CA6090F83910322910D00168CA68DA
:1053E00022F48072CA6001684A6922F001024A61AF
:1053F000012180F83910FCF7F0FD002010BD1221CA
:10540000F7E700002DE9F041044600680169E26811
:1054100021F440510A4302612068C16849F20C62DC
:1054200091432369A268E5691A4363692B431A43D0
:105430000A43C2602068416921F44072A1691143A6
:105440004161E06964263225B0F5004F484A494978
:1054500020681DD0884201D0904269D1FCF7FEF946
:1054600000EBC00101EB00106168B0468900B0FBA1
:10547000F1F1B1FBF8F6FCF7F1F900EBC00101EB3B
:10548000001061688900B0FBF1F7FCF7E7F968E00C
:10549000884201D0904219D1FCF7E0F900EBC0013D
:1054A00001EB00106168B0464900B0FBF1F1B1FBBF
:1054B000F8F6FCF7D3F900EBC00101EB00106168CE
:1054C0004900B0FBF1F7FCF7C9F918E0FCF7B0F9B7
:1054D00000EBC00101EB00106168B0464900B0FB71
:1054E000F1F1B1FBF8F6FCF7A3F900EBC00101EB19
:1054F000001061684900B0FBF1F7FCF799F900EB87
:10550000C00101EB001061684900B0FBF1F1B1FB93
:10551000F8F06FF01801484307EB800005EB00112D
:10552000B1FBF8F0216866F31F108860BDE8F081D8
:10553000FCF77EF900EBC00101EB00106168B0469A
:105540008900B0FBF1F1B1FBF8F6FCF771F900EB63
:10555000C00101EB001061688900B0FBF1F7FCF7B6
:1055600067F900EBC00101EB001061688900CCE72E
:10557000001401400010014090F83910122903D0A6
:10558000322901D0022070478168B1F5805F016A3D
:105590000BD04A1C0262026809785160C18C491E16
:1055A0000904090CC1840ED017E009880268C1F310
:1055B0000801516001690029016A02D0491C016299
:1055C000ECE7891CFBE70168CA6822F08002CA6028
:1055D0000068C16841F04001C160002070472DE9BA
:1055E000F0471D4690460F460446FBF77BFC0646F7
:1055F0005FEA08004FF000094FF0010808D030E0E2
:10560000681C05D095B1FBF76DFC801BA8420DD836
:105610002068006837EA0000F2D127E0681C20D03B
:1056200025B1FBF75FFC801BA8421AD92068C1682E
:1056300021F08001C1602068C16821F02001C160B3
:105640002068C16821F48071C1602068416921F03F
:105650000101416184F8398084F838900320BDE865
:10566000F0872068006837EA0000D7D00020F6E70E
:1056700038B5184800680068C043800622D44FF44B
:105680007A73012269461348FCF742FC124A1088DB
:10569000010417D441049DF800104FF0000304D515
:1056A0000A290ED140F4004012E00D290ED0C0F3BB
:1056B0000D04084D401CC83D80B229551080C728F4
:1056C00000D913800348FCF730FB38BD40F480401C
:1056D0001080F7E7000100201C000020FEE7704763
:1056E00010B504460420FCF7FFFA0148046010BD21
:1056F0001800002070B5054600244FF47A7603E0C8
:10570000304600F005F8641CAC42F9D370BD0000CF
:1057100070B54FF0E02500216C69094AAB69126849
:105720005043AA699A42FCD002D2A3EB020302E0E2
:10573000A4EB02063344194413468142F1D370BDF1
:105740001800002003490A685206FCD5C2B24A601C
:1057500070470000001001401FB500252E46FBF7E2
:10576000CFFB0823022219214FF4B470FFF788FD04
:105770004FF4E13000F0FEF8B420FFF7B1FFFFF77F
:1057800057FAFCF72DFCFCF7C3FD4FF0804000906A
:1057900006234FF4E0224FF4A0010020FAF714FF93
:1057A000DFF85C914FF4784B102756A0C9F800B091
:1057B000CDE900704C463B46C82223211E20FFF74E
:1057C00073F953A0CDE900701023C8223C211E209C
:1057D000FFF76AF953A0CDE900701023C8225A21BF
:1057E0001E20FFF761F94FF01F0A52A0C4F800A075
:1057F000CDE900701023C82278211E20FFF754F94C
:105800004FA0CDE900701023C822BE211E20FFF753
:105810004BF90020FCF702FC012802D0022829D015
:105820004BE000240DF10808FAF716FD08F8040013
:10583000641CE4B2082CF7D38C2102A8FFF75EF9B0
:10584000082102A8FAF710FF50B141A0C9F800B032
:10585000CDE900701023C82278214C466E2028E044
:105860003DA0CDE900701023C82278216E20FFF7FB
:105870001BF922E01EB100261EB1002003E0012624
:10588000FAE74FF08040009006234FF4E0224FF4F7
:10589000A0010020FAF798FE4C46C9F800B00EB1FE
:1058A0002FA000E01FA0CDE900701023C8225A21CC
:1058B0001E20FFF7F9F8C4F800A002A8FAF7BAFE14
:1058C00060B14FF6FF700090FA23A022D2211E2073
:1058D000FCF7EEFCD22102A8FFF710F96D1CEDB227
:1058E0000A20FFF707FF322D93D12149D1F8840216
:1058F00020B10020C1F8840200258AE70120F9E7E1
:105900002800002043414E2054455354000000001D
:105910004B4559303A53656E64204B4559313A4DE9
:105920006F6465004C6F6F704261636B204D6F64F4
:105930006500000053656E6420446174613A0000A4
:105940005265636569766520446174613A000000C0
:105950004661696C656400004F4B202020200000E8
:105960004E6E6F726D616C204D6F6465200000009B
:10597000008040420749064AC1E9002000208860B3
:10598000C860086188610C2048610846FCF747BA86
:1059900000100140000100204FEA1153A3F580637D
:1059A000D3F11E03A8BFD3F1200C08DB4FF0004257
:1059B00042EAC12252EA505232FA03F070470942D9
:1059C0000BD4102BC4BF0020704703F5787CBCF1CA
:1059D000FF3F05D04FF0FF3070474FF00000704799
:1059E00070B500F0C3F800BF4992248000207047D2
:1059F000F0E7B0FA80F310FA03F10AD0C3F11D0307
:105A000003F580634FEA41504FEA035202EBD12184
:105A100070474FF000007047DFF848C170B51CEACE
:105A2000111E1EBF1CEA13159EEA0C0F95EA0C0FFF
:105A300000F06F8081EA030423EA4C134EEAD47E1F
:105A400021EA4C1141F4801143F48013AE44A1FBD0
:105A5000024CA0FB0365AEF17F7E361955EB0C05B9
:105A6000A1FB034C4CF10003A0FB021C16EB0C063F
:105A7000654153F10003094218BF46F0010613F4D3
:105A8000007F0BD14FEA03314FEA0530340341EA7E
:105A9000155140EA16506FF003020AE04FEAC321A5
:105AA0004FEAC520F40241EA555140EA56506FF0E2
:105AB000020202EB2E4201EB025585EACE710AD0BA
:105AC0005FEA440C18BF24F0004450F1000041F19B
:105AD000000120EAD47040F2FE7C624500D270BD25
