:020000040800F2
:10000000C8C400204D030008D71E0008EB1D0008DF
:10001000D51E0008450900086923000800000000FB
:100020000000000000000000000000006102000865
:100030008B0B000800000000B50200087D1F0008BF
:1000400067030008670300086703000867030008E8
:1000500067030008670300086703000867030008D8
:1000600067030008670300086703000867030008C8
:1000700067030008670300086703000867030008B8
:1000800067030008670300086703000867030008A8
:10009000B509000867030008670300086703000844
:1000A0006703000867030008670300086703000888
:1000B0006703000867030008670300086703000878
:1000C0006703000867030008670300086703000868
:1000D00067030008FD2200086703000867030008A3
:1000E0006703000867030008670300086703000848
:1000F0006703000867030008670300086703000838
:100100006703000867030008670300086703000827
:100110006703000867030008670300086703000817
:100120006703000867030008670300086703000807
:1001300067030008670300086703000867030008F7
:1001400067030008670300086703000867030008E7
:1001500067030008670300086703000867030008D7
:1001600067030008670300086703000867030008C7
:100170006703000867030008670300080000000029
:1001800067030008670300086703000867030008A7
:100190006703000867030008670300086703000897
:1001A00067030008670300086703000800F002F80F
:1001B00000F046F80AA090E8000C82448344AAF1BB
:1001C0000107DA4501D100F03BF8AFF2090EBAE8B9
:1001D0000F0013F0010F18BFFB1A43F0010318477B
:1001E0006441000084410000103A24BF78C878C1FF
:1001F000FAD8520724BF30C830C144BF04680C602D
:10020000704700000023002400250026103A28BF74
:1002100078C1FBD8520728BF30C148BF0B60704778
:10022000642900F01181732900F0F68200207047E4
:100230001FB504F079F800F0E0F91FBD10B510BD4E
:1002400000F04DFB1146FFF7F3FF02F0F3F800F06A
:100250006BFB03B4FFF7F2FF03BC02F08DF8000064
:100260002A4B19680868B0E8F04F80F30988BFF39B
:100270006F8F4FF0000080F311887047000000007E
:1002800006480068006880F3088862B661B6BFF36C
:100290004F8FBFF36F8F00DF00BF00BF08ED00E09E
:1002A000DFF80C00016841F470010160704700BF85
:1002B00088ED00E0EFF30980BFF36F8F134B1A68EE
:1002C0001EF0100F08BF20ED108A20E9F04F1060DB
:1002D00008B44FF0500080F31188BFF34F8FBFF385
:1002E0006F8F03F0F1F94FF0000080F3118808BC24
:1002F00019680868B0E8F04F1EF0100F08BFB0ECA6
:10030000108A80F30988BFF36F8F70473800002090
:10031000EFF30580704700000B49D1F800C04A6830
:100320005CF8043B1068184442F8040B8C4528BF65
:10033000A1F1DC0C8A4228BFA1F1DC02C1F800C0A7
:100340004A6020F0004070475CBE002009488047AA
:1003500009480047FEE7FEE7FEE7FEE7FEE7FEE7A7
:10036000FEE7FEE7FEE7FEE704480549054A064BBF
:1003700070470000951F0008AD010008C8BE0020AE
:10038000C8C40020C8C00020C8C0002070470000BA
:100390000FB4044910B503AA029800F041FA10BC4A
:1003A0005DF814FB3000002070B5044685690068D4
:1003B000C10601D5302600E02026C00707D070BD59
:1003C000D4E9012130469047206A401C20626D1E0E
:1003D000F6D570BD70B5044685690078C00707D1B1
:1003E00070BDD4E9012120209047206A401C206282
:1003F0006D1EF6D570BD70B50C460546012A05D0B8
:100400002878800600D5EA69002302E0012305E090
:100410005B1C934202D2E05C0028F9D1A869E6187F
:10042000C01AA861286A184428622846FFF7BCFF52
:1004300004E0D5E9012114F8010B9047B442F8D348
:100440002846FFF7C7FF70BD2DE9F041064600249E
:1004500010687529314616A510D0AFF3008000282A
:1004600002DA404213A507E031688A0701D512A5D8
:1004700002E0490704D511A5012401E0AFF3008093
:1004800000210A2206F1240709E0B0FBF2FCB0FBD0
:10049000F2F302FB1C00303078541846491C002847
:1004A000F3D123462A463046BDE8F04100F031B989
:1004B000000000002D0000002B00000020000000C4
:1004C0002DE9F0474FF0000A89460446C0F820A005
:1004D0002046E1688847002876D0252806D0D4E950
:1004E00001219047206A401C2062F1E7E168204624
:1004F00000258847C4F81CA006460027C4F818A0A9
:100500002A2E09D0304601F030FF38B304EB8708BB
:10051000303EC8F8186019E059F8041B204604EB77
:1005200087029161E1688847012F064618D1E0698A
:10053000002820DA25F020051DE0D8F8180000EB8F
:10054000800006EB40003038C8F818002046E1680B
:100550008847064601F009FF0028EED1012F0AD096
:100560002E2E08D12046E16888477F1C0646022FC0
:1005700045F02005C4DBA069002803DA404245F0BD
:100580000105A061E80701D025F01005B6B1A6F17C
:100590004100192802D8203645F400654A46314604
:1005A000204625604D46FFF73BFE58B1012806D096
:1005B000ED1D25F0070000F1080989E704E005F1C9
:1005C000040985E730468AE7206ABDE8F087000025
:1005D0000B4910B5A1F17C020A4CC2E93712372150
:1005E00006E000EB104342F82130074B00FB0340CC
:1005F0000B1EA1F10101F4DC10BD0120E8E70000B1
:10060000FCBD0020E119D666CD0D0100032A40F2A1
:10061000308010F0030C00F0158011F8013BBCF1A4
:10062000020F624498BF11F801CB00F8013B38BFBC
:1006300011F8013BA2F1040298BF00F801CB38BFCA
:1006400000F8013B11F0030300F02580083AC0F0E8
:10065000088051F8043B083A51F804CBA0E8081090
:10066000F5E7121D5CBF51F8043B40F8043BAFF3C3
:100670000080D20724BF11F8013B11F801CB48BF1D
:1006800011F8012B24BF00F8013B00F801CB48BF53
:1006900000F8012B704710B5203AC0F00B80B1E88C
:1006A0001850203AA0E81850B1E81850A0E81850A7
:1006B000BFF4F5AF5FEA027C24BFB1E81850A0E8B0
:1006C000185044BF18C918C0BDE810405FEA827CCA
:1006D00024BF51F8043B40F8043B08BF7047D207E1
:1006E00028BF31F8023B48BF11F8012B28BF20F882
:1006F000023B48BF00F8012B704702F0FF0343EABA
:10070000032242EA024200F09FB8704770477047E8
:1007100070472DE9F0470D4699469246044600F190
:1007200024080168880604D5E06921F010012160E1
:1007300000E00120A84201DD471B00E00027A1697D
:100740007A1902EB0900081AA0612078C00602D4C9
:100750002046FFF729FE002608E0D4E901211AF817
:1007600006009047206A401C761C20624E45F4DB50
:100770002078C0060AD52046FFF716FE06E0D4E929
:10078000012130209047206A401C2062381EA7F1CA
:100790000107F4DC07E0D4E9012118F805009047CF
:1007A000206A401C2062281EA5F10105F3DC2046CA
:1007B000FFF710FE2078000602D50220BDE8F08782
:1007C0000120FBE701694A1C02610878704700B507
:1007D0008FB0CDE901310021059105497944CDE97A
:1007E000031011466846FFF76BFE0FB000BD000016
:1007F000E5FFFFFF10B5436913B1AFF3008001E0DF
:10080000FFF7F9FD012010BD127800F124010A70F4
:1008100000224A700122EDE711684FF0FF32E9E74C
:10082000074B70B50D467B44FFF7D1FF04462846C1
:1008300000F02AF810B14FF0FF3070BD204670BDB7
:10084000F71B00004FF000020429C0F0128010F0E6
:10085000030C00F01F80CCF1040CBCF1020F18BF98
:1008600000F8012BA8BF20F8022BA1EB0C0100F02F
:1008700011B85FEAC17C24BF00F8012B00F8012BFE
:1008800048BF00F8012B7047007B00F080007047E4
:100890004FF0000200B5134694469646203922BF19
:1008A000A0E80C50A0E80C50B1F12001BFF4F7AF64
:1008B000090728BFA0E80C5048BF0CC05DF804EB46
:1008C000890028BF40F8042B08BF704748BF20F8B4
:1008D000022B11F0804F18BF00F8012B70477546AE
:1008E00000F02CF8AE4605006946534620F007009C
:1008F000854618B020B5FFF737FDBDE820404FF022
:1009000000064FF000074FF000084FF0000B21F0F9
:100910000701AC46ACE8C009ACE8C009ACE8C009C6
:10092000ACE8C0098D46704710B50446AFF30080AF
:100930002046BDE81040FFF78CBC0000004870471F
:1009400064BE0020FEE7000070B58AB0184C174E58
:100950000E9D266004F1400626631C3666636360C4
:100960002261C4E902500025C4E905150126E561AC
:10097000C4E90856A5622046E56200F03BFA10B1D2
:1009800001200AB070BD039504950E2001950295D3
:10099000CDE90860CDE906560095059569460448FD
:1009A00000F0F4F80028ECD00220EAE700640040F0
:1009B000B4010020014800F05DB90000B40100203E
:1009C00070B50F4B002246241D6B2C601D6B6C60B4
:1009D0001D6BAA601D6BEA601C6B216106E0855CE3
:1009E00002F114041E6B521C92B235558A42F6D3A2
:1009F0000A21034800F0FEFA002800D0012070BD53
:100A0000B401002010B54FF4D872036802EB011254
:100A10009B5813F00404436B9C600468436BA45818
:100A200054D0E4085C6003689A58436B02F00202F9
:100A3000DA604FF4DA72036802EB01129B58446BE0
:100A400003F00F03236103689A58436BC2F3072234
:100A5000DA614FF4DC72036802EB01129B58446BBD
:100A6000237503689B58446B1B0A637503689B5886
:100A7000446B1B0CA37503689A58436B120EDA750E
:100A80004FF4DE72036802EB01129B58446B23762D
:100A900003689B58446B1B0A637603689B58446B3E
:100AA0001B0CA37603689A58436B120EDA76202249
:100AB000002901680DD00A6101684A6922F010021C
:100AC0004A6190F83810222909D021E0640D1C6099
:100AD000A9E7CA6001684A6922F00202F0E70168EA
:100AE0004A6922F480724A6101684A6922F40072FC
:100AF0004A6101684A6922F480624A6101684A6970
:100B000022F400624A6101684A6922F400424A61A3
:100B100090F83810322906D0012180F8381000F002
:100B200045FA002010BD1221F7E710B501684A69A7
:100B300022F001024A6190F83810122918D1016898
:100B40004A6922F480724A6101684A6922F400729B
:100B50004A6101684A6922F480624A6101684A690F
:100B600022F400624A6101684A6922F400424A6143
:100B700090F83810322906D0012180F8381000F0A2
:100B8000F3FA002010BD2221F7E77047F0B50A7D87
:100B900001209040344A136843F001031360136846
:100BA00023F47C53136013684C6A43EA04231360F4
:100BB0002D4D1C352B6883432B602B4C2B4BCE6962
:100BC0000C34A6B92668864326608F894E6867F381
:100BD0001F464F6903EBC707C7F840660F890E68C9
:100BE00067F31F464F6903EBC707C7F84466CE6932
:100BF000012E14D12668064326600E884C6866F3E1
:100C00001F444E6903EBC606C6F840460E89CC6801
:100C100066F31F444E6903EBC603C3F84446124B08
:100C20008C691B1D002C1C6806D004431C600E4BF5
:100C30000C69143314B104E08443F7E71C6884435F
:100C40001C600C69012C02D11C6804431C60096AF9
:100C5000012902D1296801432960106820F00100B0
:100C600010600020F0BD0000006600400060004001
:100C70007047000010B5044600684169C943C907C0
:100C800014D182685849914368D000218368574A3B
:100C90009A4365D0002283685548984362D000206B
:100CA0001143014302D02046FFF73FFF2068C1688F
:100CB000406911F0030FC0F3400004D018B10021C7
:100CC0002046FFF79FFE20680169406911F0030F7D
:100CD000C0F3001004D018B101212046FFF792FEA6
:100CE000206881694269C1F300014369C2F30022AF
:100CF000C3F3C03329B122B11BB1E16B41F0010153
:100D0000E1638169C1F3400241694369C1F3402154
:100D1000C3F3C0332AB121B11BB1E16B41F0020131
:100D2000E16381694269C1F38001C2F380234269B2
:100D3000C2F3C03229B123B11AB1E16B41F0040111
:100D4000E163816911F0700F0ED000214269C2F396
:100D5000C0234269C2F3C03241B127E0012195E7C7
:100D6000012298E701209BE70121EFE7F3B1EAB107
:100D7000816901F07001402929D006DC102909D0D1
:100D800020290BD030290DD11DE0502923D0602916
:100D900008D124E0E16B41F0080102E0E16B41F091
:100DA0001001E163816921F070018161E06B00282D
:100DB00008D0216804204860012084F838002046CB
:100DC000FFF756FF10BDE16B41F02001E9E7E16B51
:100DD00041F04001E5E7E16B41F08001E1E7E16BC3
:100DE00041F48071DDE70000030000040003000807
:100DF000000003102DE9F041040004D094F83800FD
:100E0000002518B107E00120BDE8F08184F83950D1
:100E1000204600F091F8022084F83800206801682C
:100E200021F0020101602068016841F001010160C8
:100E300000F090FA0746032604E000F08BFAC01B8E
:100E40000A2862D820684068C007F6D02068416848
:100E5000C90767D0A169012901683FD021F080014D
:100E60000160E0690128206801683AD021F0400162
:100E70000160206A01282068016835D021F0200136
:100E80000160606A01282068016830D021F01001FB
:100E90000160A06A0128206801682BD021F00801B8
:100EA0000160E06A01282068016826D021F0040171
:100EB0000160D4E902010843D4E904121143084354
:100EC0006168491E08432168C8612068016821F0F3
:100ED0000101016000F03EFA07461BE041F080018D
:100EE000BEE741F04001C3E741F02001C8E741F00F
:100EF0001001CDE741F00801D2E741F00401D7E746
:100F000000F028FAC01B0A2804D904F8386F03201F
:100F1000657079E720684068C007F1D120684068B3
:100F2000C00703D0042084F838006CE7E563012093
:100F300084F83800002067E7194800B5016887B0D9
:100F400041F000710160006800F0007005901448E5
:100F50001038016841F0010101600068012100F0D2
:100F6000010005904FF4C05000900220CDE901012E
:100F700003900920049069460A4800F0F7F80A48EF
:100F80000068416941F002014161022201211420FF
:100F900000F028FA142000F01AFA07B000BD000093
:100FA0004038024000000240B401002070B50A4DF4
:100FB00000242868416941F00201416107A0FFF760
:100FC000E7F9696B04F11400095C08A0FFF7E0F988
:100FD000641C082CF5DB70BDB40100200D0ABDD3E4
:100FE000CADCB5C4CAFDBEDDA3BA00002533642047
:100FF000000000002DE9F05F044690F839000E462D
:10100000012812D04FF0010984F8399094F8380083
:1010100022280DD0122084F83800216888684FF00B
:101020000008400106D500250DE00220BDE8F09F34
:101030003220F0E78868000101D5012503E08868C7
:10104000C0004FD502254FF4C07000EB05100A58C0
:1010500002F001020A50216B8A68EAB323681F5824
:101060001743CA68496842EAC1010F431F50216B08
:101070000A7C02F00F020A614FF4C271226801EB90
:101080000511535823F00F03535022685358276B10
:101090003F693B435350216B4FF4C47303EB05137B
:1010A0000A7DD1F8151042EA01222168CA50216B4D
:1010B0004FF4C67303EB05130A7ED1F8191042EA08
:1010C00001212268D15021680A5842F001020A50D9
:1010D00000F040F9074600E00BE0DFF880A0DFF801
:1010E00080B01DE0042084F8380084F839800120A5
:1010F0009CE722681358CF6809883B4343EA415173
:101100001150B4E7701C0BD026B100F023F9C01BBE
:10111000B04205D9032084F8380084F8398085E787
:1011200095B12068012D816813D00E4888430028AE
:10113000E8D194F8380032280ED0484684F83800B8
:1011400084F83980002071E7206881682AEA01006C
:10115000EDE72BEA0100EAE72220EFE703000004B5
:101160000003000800000310704700002DE9F84F4D
:10117000DFF8A091002209F1040A0AF1040B4FF0F4
:101180000F080BF1040E01260B6896403340B34262
:1011900071D14C68022C01D0122C11D1D40800EB73
:1011A00084073D6A5407E40E08FA04FC25EA0C059E
:1011B000D1F810C00CFA04FC4CEA050CC7F820C0AA
:1011C00007685400032591F804C0A5400CF0030CF7
:1011D000AF430CFA04FC4CEA070CC0F800C04F689F
:1011E000012F05D0022F03D0112F01D0122F11D1C2
:1011F0008768D1F80CC0AF430CFA04FC4CEA070C2A
:10120000C0F808C04768B7430E79C6F30016964089
:101210003E434660C668AE438D68A5403543C56011
:101220004C68E4006FD53C4C256845F4804525604A
:10123000246822F0030504F480440094374C2E19EE
:10124000D6F808789407250F08FA05F4A743344C1C
:10125000A04201D100242EE0324CA04201D1012451
:1012600029E0314CA04201D1022424E02F4CA042BD
:1012700002D103241FE046E02D4CA04201D10424FA
:1012800019E02C4CA04201D1052414E02A4CA042C4
:1012900001D106240FE0294CA04201D107240AE025
:1012A000274CA04201D1082405E0264CA04201D1E0
:1012B000092400E00A24AC403C43C6F80848D9F8A9
:1012C00000404D464E689C43F60300D51C432C60FD
:1012D000DAF8004055464E689C43B60300D51C43DF
:1012E0002C60DBF800405D464E689C43F60200D55A
:1012F0001C432C60DEF8004075464E689C43B602E5
:1013000000D51C432C60521C102AFFF43CAFBDE8F2
:10131000F88F0000003C014044380240003001409A
:10132000000002400004024000080240000C02409D
:10133000001002400014024000180240001C02404D
:1013400000200240002402400AB181617047090474
:10135000FBE7000001480068704700002000002003
:1013600002480168491C016070470000200000200D
:101370000B4810B5016841F400710160016841F447
:1013800080610160016841F480710160032000F018
:1013900049F80F2000F006F800F015F8002010BD05
:1013A000003C024010B5044600F096F94FF47A7103
:1013B000B0FBF1F000F0AAFB00222146501E00F025
:1013C00011F8002010BD08B50020009008BD00F005
:1013D0001F02012191404009800000F1E020C0F887
:1013E00000117047F0B40E4B1B68C3F30223C3F126
:1013F0000704042C00D904241D1D072D01D200234D
:1014000000E0DB1E012606FA04F56D1E0D409D402E
:101410009E40761E164045EA0601F0BC00F05CBD19
:101420000CED00E0064A00F0070110684FF6FF03DC
:10143000184040EA0120034908431060704700004B
:101440000CED00E00000FA052DE9F8431D480168A5
:1014500041F0805101600068012700F08050009049
:10146000380490FAA0F0DFF86080B0FA80F048F815
:101470002070FFF76FFF04464FF47A75134E04E0B7
:10148000FFF768FF001BA84213D87068C003F7D5A8
:101490004FF4003090FAA0F0B0FA80F048F82070D5
:1014A000FFF758FF044607E0FFF754FF001BA84270
:1014B00002D90320BDE8F88370688003F4D50020CA
:1014C000F8E700004038024000000E420070004083
:1014D0002DE9F05FDFF8F8A104460F46DAF80000C6
:1014E000DFF8F08100F00F02C8B27A49814641F27C
:1014F000883608F10808BA4261D202468AF800200C
:10150000DAF8000000F00F00B8427DD120788007A3
:1015100007D5D8F80020A36822F0F0021A43C8F8D3
:1015200000202078C0072DD0606801281AD002283A
:101530001BD0032819D009688907002964DAD8F874
:101540000010474621F003010143C8F80010FFF7DF
:1015500001FF0546606801280FD0022818D0032833
:101560001CD027E009688903E7E709688901E4E7F7
:10157000FFF7F0FE401BB04258D83868C0F3810036
:101580000128F5D188E0FFF7E5FE401BB0424DD8B9
:101590003868C0F381000228F5D17DE03868FFF794
:1015A000D9FE401BB042F9D940E0FFF7D3FE401B03
:1015B000B0423BD8386810F00C0FF6D16CE02078C0
:1015C000800707D5D8F80020A36822F0F0021A435C
:1015D000C8F800202078C0074CD06068012828D0C7
:1015E000022829D0032827D009688907002949DA69
:1015F000D8F8002022F003020243C8F80020FFF7C9
:10160000A9FE0546606800E03CE001281DD00228E4
:1016100029D0032838D0B3464646306810F00C0F66
:1016200028D0FFF797FE411B5945F6D90320BDE8A6
:10163000F09F09688903D9E709688901D6E7FFF7B0
:1016400089FE411B594502D9F0E7B346464630684A
:10165000C0F381000128F2D10CE0FFF77BFE411BB3
:10166000594502D9E2E7B34646463068C0F38100E7
:101670000228F2D18AF80090DAF8000000F00F009A
:10168000B84209D00120D2E744462068FFF762FE45
:10169000401BB042F9D9C9E72078400707D5D8F8F0
:1016A0000010E26821F4E0511143C8F800102078DE
:1016B000000708D5D8F80010226921F4604141EAFA
:1016C000C201C8F800100F20FFF76CFE0020AEE743
:1016D000003C02400038024010B500F043F80849D1
:1016E0000968F02292FAA2F201F0F001B2FA82F255
:1016F000D140044A515CC8400349086010BD000055
:1017000008380240324300080C00002010B5FFF7F3
:10171000E3FF074909684FF4E05292FAA2F201F49C
:10172000E051B2FA82F2D140024A515CC84010BD89
:10173000083802403243000810B5FFF7CDFF0749D3
:1017400009684FF4604292FAA2F201F46041B2FAE1
:1017500082F2D140024A515CC84010BD08380240B4
:101760003243000830B51948006810F00C011848E1
:1017700012D0184C04290ED008290DD1134A121F7B
:101780001168136801F03F015D0247F6C07304D58C
:10179000B4FBF1F003E0204630BDB0FBF1F011687E
:1017A000194093FAA3F3B3FA83F3D940484311687D
:1017B0004FF4403292FAA2F201F44031B2FA82F2CE
:1017C000D140491C4900B0FBF1F030BD083802405F
:1017D0000024F40040787D012DE9F84F044600789C
:1017E000DFF8FCA2BF4DC0074FF0000648D0DAF882
:1017F00000105046C1F38101012908D00068C0F3F0
:10180000810002280AD1281D0068400206D52868F8
:10181000800335D56068002873D031E0DFF8C492CA
:1018200009F1020989F80060FFF794FD074641F2CB
:10183000883804E0FFF78EFDC11B41457AD828683F
:101840008003F7D4207989F80000606860B1FFF761
:1018500081FD074604E0FFF77DFDC11B4145EDD842
:1018600028688003F7D50BE0FFF774FD074604E016
:10187000FFF770FDC11B4145E0D828688003F7D40D
:101880002078DFF86492800744D5DAF800105046DB
:1018900011F00C0F4FF0F80809D00068C0F3810078
:1018A00002280BD18E48001F0068400206D4286829
:1018B000800714D5E068012823D110E0E068D0B19A
:1018C0000120C9F80000FFF745FD074604E0FFF7D7
:1018D00041FDC01B6428B1D828688007F7D5286867
:1018E00098FAA8F22169B2FA82F220F0F800914049
:1018F000084328600EE0C9F80060FFF72BFD07469B
:1019000005E0EAE0FFF726FDC01B642812D828682E
:101910008007F7D42078000725D5DFF8C481734805
:10192000616908F16C0881B101210160FFF712FDC6
:10193000074605E07EE0FFF70DFDC01B642879D85F
:10194000D8F800008007F6D50DE00660FFF702FD2D
:10195000074604E0FFF7FEFCC01B64286AD8D8F8ED
:1019600000008007F6D42078400753D55C48383013
:10197000016841F0805101600068DFF8748100F077
:1019800080500090D8F8001041F48071C8F8001021
:10199000FFF7E0FC074604E0FFF7DCFCC01B64280F
:1019A00048D8D8F80000C005F6D5DFF834B10BF1FF
:1019B000680B8BF80060FFF7CDFC074641F28838D2
:1019C00004E0FFF7C7FCC11B41457ED8DBF80000EF
:1019D0008007F6D4207A8BF80000A06868B1FFF782
:1019E000B9FC074604E0FFF7B5FCC11B41456CD8C4
:1019F000DBF800008007F6D50CE0FFF7ABFC0746EC
:101A000004E0FFF7A7FCC11B41455ED8DBF80000EE
:101A10008007F6D4A069E8B3DAF80010C1F38101B9
:101A200002295AD0022806D0C9F86060FFF792FC5C
:101A300004464DE049E04F46C9F86060FFF78AFC74
:101A4000064604E0FFF786FC801B64283DD8286822
:101A50008001F7D4D4E90701084347F6C07191FA31
:101A6000A1F1626AB1FA81F18A40A16A4FF0FF33B5
:101A700003EB51014FF4403393FAA3F3B3FA83F32A
:101A800099400A4310434FF0706292FAA2F2B2FA00
:101A900082F200E01FE0E16A914008431049091F0B
:101AA000086001203866FFF755FC044604E0FFF7A4
:101AB00051FC001B642808D828688001F7D50AE08B
:101AC000FFF748FC001B642802D90320BDE8F88F0B
:101AD00028688001F4D40020F8E70120F6E7000030
:101AE000083802400038024000004742800E47425A
:101AF000007000404FF0E0210428086903D020F076
:101B000004000861704740F00400FAE710B5401E79
:101B1000B0F1807F01D3012010BD4FF0E02460615F
:101B20000F21601700F0D8F90020A0610720206184
:101B3000002010BD704738B5016804460868CA68BF
:101B4000C0F3000002F4807238B132B1086848680E
:101B50000090E06B40F00100E06308684A69C0F360
:101B6000400002F0010238B132B1086848680090C4
:101B7000E06B40F00400E06308684A69C0F380004D
:101B800002F0010238B132B1086848680090E06B99
:101B900040F00200E06308684A69C0F3C00002F048
:101BA000010238B132B1086848680090E06B40F03B
:101BB0000800E0630868C968C0F3401001F0200124
:101BC00018B111B1204600F00FFA20680168C06812
:101BD000C1F3C01100F0800019B110B1204600F02F
:101BE00011FB21680868CA68C0F3801002F0400247
:101BF000012568B162B1CA68204622F04002CA607D
:101C000094F8391032290CD080F8395000F0ECF8F3
:101C1000E06B002804D084F839502046FFF78AFF93
:101C200038BD222180F83910F0E770B5040004D0E7
:101C300094F83900002510B106E0012070BD84F849
:101C40003850204600F020F8022084F8390020683F
:101C5000C16821F40051C160204600F019FA2068E3
:101C6000016921F4904101612068416921F02A0154
:101C700041612068C16841F40051C160E563012001
:101C800084F83900002070BD30B504460068204952
:101C900087B0884239D11F48016841F001010160D5
:101CA000006800F0010005901A481430016841F006
:101CB000100101600068012100F0100005904FF450
:101CC000007000900220CDE9010103900720124D21
:101CD000049069462846FFF749FA2815009069469E
:101CE0002846FFF743FA2068C16821F04001C1602F
:101CF0002068C16841F02001C1602520FFF767FB23
:101D0000032211462520FFF76DFB07B030BD000010
:101D10000010014030380240000002402DE9F04739
:101D2000044690F8390099460D46012801D0122842
:101D300057D125B31AB394F83800012851D00126A1
:101D400084F838600027E76394F83900122819D026
:101D5000222084F83900A285E2854FF48058E08D76
:101D60004B46401EE085A0684FF0000240454FF012
:101D70002001204616D100F078FAB0B904E0012025
:101D8000BDE8F0873220E4E7206900282068406839
:101D900003D0C1B225F8011B12E0C0F3080125F8F9
:101DA000021B0DE000F061FA08B10320E8E72069AA
:101DB00000282068406801D000F07F0005F8010B82
:101DC000E08D0028CBD194F83900322805D084F872
:101DD000396084F838700020D2E7122084F8390086
:101DE000F7E70220CCE770477047FEE70C4800B5E4
:101DF000026887B0002142F080020260006800F0B3
:101E0000800005900C20CDE9000101200290032004
:101E1000039069460348FFF7A9F907B000BD000029
:101E200030380240001C024070B50121144C154DA1
:101E300001280CD0207828B1D5F80C0248B1D5F88B
:101E4000080230B1D5F80C02012812D016E021703A
:101E5000F2E70A2000F0AEFA00202070D5F80C025C
:101E600018B1D5F8080210B108E0012070BD0220B9
:101E700070BDD5F80802012800D12170002070BD86
:101E80003400002000804342104810B5016886B03D
:101E900041F0020101600068012100F0020005909C
:101EA0000320CDE90210CDE90001094C6946204626
:101EB000FFF75CF9012211462046FFF745FA01229F
:101EC00002212046FFF740FA06B010BD303802402C
:101ED00000040240FEE770470907090E002806DAF1
:101EE00000F00F0000F1E02080F8141D704700F1B1
:101EF000E02080F80014704770B51E4C92B00025A9
:101F0000266846F080562660246804F080541194B8
:101F1000194C266846F44046266024680DF1240CCE
:101F200004F4404411940124009401940224069482
:101F30008CE80D006605CDE907616846FFF74CFCAB
:101F400000B1FEE7FFF780FA00B1FEE70CA90F2011
:101F500081E831004FF4A0500F904FF48050109062
:101F600005210CA8FFF7B4FA002800D0FEE712B054
:101F700070BD0000403802400070004010B501F014
:101F800077FF012801D001F067FCBDE81040FFF7A2
:101F9000E7B900001048016841F4700101600F4882
:101FA000016841F0010101600C4A00210832116012
:101FB00002680B4B1A400260031D0A4A1A6002684D
:101FC00022F48022026005480C3001600249580664
:101FD000803908607047000088ED00E0003802405A
:101FE000FFFFF6FE1030002410B590F839102229BA
:101FF00003D0322901D0022010BD8168B1F5805F85
:1020000011D00169002901681FD0496801F07F03E0
:10201000816A4A1C82620B70C18D491E0904090C39
:10202000C18518D02FE00269816A002A02685268CF
:1020300005D0D2B20A80816A491C8162ECE7C2F302
:1020400008020A80816A891CF7E74A68816A4B1C8A
:1020500083620A70E0E70168CA6822F02002CA6061
:1020600090F83910322910D00168CA6822F48072C1
:10207000CA6001684A6922F001024A61012180F8C0
:102080003910FFF7B0FE002010BD1221F7E7000065
:102090002DE9F041044600680169E26821F44051ED
:1020A0000A4302612068C16849F20C6291432369C6
:1020B000A268E5691A4363692B431A430A43C26065
:1020C0002068416921F44072A16911434161E069CE
:1020D00064263225B0F5004F484A494920681DD092
:1020E000884201D0904269D1FFF726FB00EBC00186
:1020F00001EB00106168B0468900B0FBF1F1B1FB63
:10210000F8F6FFF719FB00EBC00101EB0010616866
:102110008900B0FBF1F7FFF70FFB68E0884201D0C0
:10212000904219D1FFF708FB00EBC00101EB001052
:102130006168B0464900B0FBF1F1B1FBF8F6FFF77A
:10214000FBFA00EBC00101EB001061684900B0FB35
:10215000F1F7FFF7F1FA18E0FFF7D8FA00EBC0014A
:1021600001EB00106168B0464900B0FBF1F1B1FB32
:10217000F8F6FFF7CBFA00EBC00101EB0010616845
:102180004900B0FBF1F7FFF7C1FA00EBC00101EB2A
:10219000001061684900B0FBF1F1B1FBF8F06FF09D
:1021A0001801484307EB800005EB0011B1FBF8F084
:1021B000216866F31F108860BDE8F081FFF7A6FA7A
:1021C00000EBC00101EB00106168B0468900B0FB74
:1021D000F1F1B1FBF8F6FFF799FA00EBC00101EB62
:1021E000001061688900B0FBF1F7FFF78FFA00EB90
:1021F000C00101EB001061688900CCE700140140C8
:102200000010014090F83910122903D0322901D072
:10221000022070478168B1F5805F016A0BD04A1CCB
:102220000262026809785160C18C491E0904090CD8
:10223000C1840ED017E009880268C1F3080151601B
:1022400001690029016A02D0491C0162ECE7891C7E
:10225000FBE70168CA6822F08002CA600068C168B2
:1022600041F04001C160002070472DE9F0471D4654
:1022700090460F460446FFF76DF806465FEA0800F1
:102280004FF000094FF0010808D030E0681C05D07D
:1022900095B1FFF75FF8801BA8420DD82068006851
:1022A00037EA0000F2D127E0681C20D025B1FFF703
:1022B00051F8801BA8421AD92068C16821F080011A
:1022C000C1602068C16821F02001C1602068C16838
:1022D00021F48071C1602068416921F001014161F0
:1022E00084F8398084F838900320BDE8F0872068AE
:1022F000006837EA0000D7D00020F6E738B5184864
:1023000000680068C043800622D44FF47A7301222B
:1023100069461348FFF702FD124A1088010417D4DA
:1023200041049DF800104FF0000304D50A290ED196
:1023300040F4004012E00D290ED0C0F30D04084D0A
:10234000401CC83D80B229551080C72800D9138091
:102350000348FFF7F0FB38BD40F480401080F7E7FA
:10236000740100202C000020FEE730380A2801D23A
:1023700001207047002070477047000010B50446E8
:102380000420FFF7B7FB0A484FF47A7114FB01F100
:102390000122446002804FF0E020026942F0020214
:1023A00002614161016941F00101016110BD00005C
:1023B0002400002070B5044601F05AFD01280CD01D
:1023C000094D2888844203D3B4FBF0F000F0CAFF23
:1023D0002888B4FBF0F100FB11444FF47A7060439D
:1023E000BDE8704000F002B82400002070B54FF046
:1023F000E02500216C69094AAB6952685043AA691B
:102400009A42FCD002D2A3EB020302E0A4EB020644
:102410003344194413468142F1D370BD2400002097
:1024200003490A685206FCD5C2B24A6070470000F0
:10243000001001401CB5FEF79BFF08230222192162
:102440004FF4B470FFF758FD4FF4E13000F0EEFDAB
:10245000B420FFF793FFFFF717FDFFF7C7FC4FF01E
:102460008040009006234FF4E0224FF4A0010020AA
:10247000FEF76AFA0BA0FDF78BFF12A0FDF788FFAD
:1024800016A0FDF785FF18490120CDE900010023C2
:10249000802216A1184801F0BFFC01F0C3F800200B
:1024A0001CBD0000BBB6D3ADCAB9D3C32048482079
:1024B00043414E20C7FDB6AFB2E2CAD4A3A10D0A74
:1024C000000000004B4559303AB7A2CBCD204B4518
:1024D00059313AC4A3CABD200D0A0000BBD8BBB70E
:1024E000C4A3CABD200D0A000000002073746172ED
:1024F000745F7461736B0000B92E00082DE9F04120
:10250000184E0F460446F5683068001D00F0A0FD27
:1025100038B9306890F82C10012088403169814327
:102520003161601C07D137B13168BDE8F0410E4818
:10253000091D00F0C5BD30682C44AC4244603168D0
:1025400005D2B06BBDE8F041091D00F0A1BD706B74
:10255000091D00F09DFDB06A844200D2B462BDE85E
:10256000F081000038000020440500202DE9F041F2
:10257000054600F0B1FD2D4EB068401CB0603068DB
:102580002B4F10B1706930B32BE03560B068012873
:1025900027D1002404EB840007EB800000F06AFDE3
:1025A000641C202CF6D3234800F064FD214814302D
:1025B00000F060FD1F48283000F05CFD1D483C30F5
:1025C00000F058FD1B48503000F054FD194870636E
:1025D0001430B06305E03068E96AC06A884200D808
:1025E0003560706A0121401C70626864E86A326973
:1025F00081401143316100EB800007EB8000291D11
:1026000000F05EFD00F0A4FD706900280CD0306879
:10261000E96AC06A884207D207494FF080500860D3
:10262000BFF34F8FBFF36F8FBDE8F08138000020FC
:1026300074020020F404002004ED00E010B500F066
:102640004BFD0E4C2068A0B90D4800F013FD0C485E
:10265000143000F00FFD0A48E060143020610022C1
:102660001021052001F00EF9206010B105A100F045
:1026700045FEBDE8104000F06BBD00007400002076
:1026800058050020546D72510000000070B5124EC4
:10269000124D1CE001F010F8306820B1002401F068
:1026A00015FDA4B901E00124F9E700F015FDF0687B
:1026B000C468201D00F0CCFCA868401EA8606868B3
:1026C000401E686000F044FD204600F052F8686843
:1026D0000028DFD170BD0000300500203800002048
:1026E00030B4026C0B46002A0BD0C1681144C160A3
:1026F0004468A14201D30168C16030BC1846FDF7AF
:1027000085BF30BC70472DE9F041856B1746044604
:102710000026026C82B1C7B1E068FDF777FFE1687F
:10272000206C091AE1602268914202D26168081A9D
:10273000E060022F16D017E02068A8B9606801F0A9
:102740001FFC0646002060600EE0A068FDF75EFFFB
:10275000216CA0680844A0606168884204D32068A6
:10276000A06001E005B16D1E6D1CA5633046BDE89B
:10277000F08110B50446006B00F01CFD2046BDE85A
:10278000104000F017BD000010484FF438414207D8
:1027900006D0C01D0D4920F00700411AC1F538418F
:1027A0000B4A00230144C2E900030839103A21F022
:1027B000070111604B600B600B1AC0E900139360B6
:1027C0004FF000405360D06070470000800500204B
:1027D000A4000020074E4FF08054074DFFF756FF2E
:1027E00030680128FAD92C60BFF34F8FBFF36F8F89
:1027F000F4E700007402002004ED00E02DE9F0474A
:10280000DDE909840E461746824691009946089DE7
:10281000A522206BFDF771FF6FF00301206B01EB28
:102820008701084420F00707780705D040F22B32D3
:1028300019A11EA0FDF7ACFD00202218315C82F822
:102840003410315C11B1401C1028F6D3002684F8F6
:102850004360202D00D31F25E562C4E91356201DD7
:1028600000F013FC04F1180000F00FFC2461C5F126
:1028700020006462A061666584F858604A4651464B
:10288000384600F003FB2060B8F1000F01D0C8F813
:102890000040BDE8F08700002E2E5C467265655250
:1028A000544F535C7461736B732E63004572726F87
:1028B000723A25732C25640D0A00000030B51149C9
:1028C00000E011460A688242FBD34B685C188442E0
:1028D00003D1406818444860084643681C18944275
:1028E00009D1084C103C2468A24209D052681A440D
:1028F00042600A6812680260814200D0086030BD00
:102900000460F9E7A400002070B5002441600B4D7D
:102910000061914206D8D11A8269914206D2011D06
:10292000286907E09A4203D2994201D3012403E0C7
:10293000011DE86800F0ACFB204670BD740000206B
:1029400010B5044600F0C8FBA06B20B1002400F0D5
:10295000FFFB204610BD0124F9E700002DE9F341FB
:1029600000980F460026846C2CB940F6CE1216A1B2
:102970001AA0FDF70DFDA06BE16B884205D340F670
:10298000CF1211A115A0FDF703FDA06BE16B8842EA
:102990000CD294F945503A4669462046FFF7B3FEFB
:1029A0000646681C05D06D1C84F845503046BDE8CD
:1029B000FC81606A0028F9D004F1240001F03AFBA0
:1029C0000028F3D00126F1E72E2E5C467265655291
:1029D000544F535C71756575652E63004572726F57
:1029E000723A25732C25640D0A000000F8B50546DF
:1029F00014480E46C068C068C468201D00F028FB5B
:102A0000E069012817D1A0692B46411932462046BA
:102A1000FFF77AFF78B100200346014600902A466E
:102A2000204601F039FC30B907494FF4027201F138
:102A30001800FDF7ADFC616A01B02046BDE8F0402A
:102A40000847000074000020FC41000870B586B003
:102A50002F4E53E00198002806DADDE90301029ABF
:102A600090470198002849DB039C606910B1201D44
:102A700000F0EEFA05A800F0A7F8054601980A282C
:102A80003CD2DFE800F00505053B273805053B276C
:102A90000298A169034601442A462046FFF734FF05
:102AA00000282BD0616A20468847E069012825D19B
:102AB000002000900298A169002342181946204680
:102AC00001F0EAFBD0B940F2213212A117A0FDF7C4
:102AD0005FFC13E00298A06128B94FF44E720DA17B
:102AE00012A0FDF755FCA0692B4641191A46204655
:102AF000FFF70AFF02E0204600F05CFB00231A46C5
:102B000001A9306800F0FAFE0028A3D106B070BD1C
:102B1000740000202E2E5C4672656552544F535C43
:102B200074696D6572732E63000000004572726FE8
:102B3000723A25732C25640D0A000000F8B50D4685
:102B4000064600F0B9FD684600F03EF804460098DD
:102B500010B101F0BBFAF8BD1148ADB101690968C7
:102B6000D9B10025311B2A46006800F0D9FB01F0DD
:102B7000ADFA0028EFD10B494FF080500860BFF349
:102B80004F8FBFF36F8FF8BDA642EBD801F09EFACE
:102B900021463046FFF72AFFF8BD0125E2E7000095
:102BA0007400002004ED00E00648416B096829B17B
:102BB000416BC968C9684968816270474FF0FF314D
:102BC000FAE700003800002070B5054601F05EF914
:102BD000064E0446B068844203D200F009F8012092
:102BE00000E0002028602046B46070BD7400002022
:102BF000F8B5184E26E0C068C4680568201D00F0CE
:102C000027FA616A20468847E06901281AD1A0693D
:102C10002844A84206D924616060211DF06800F0B4
:102C200037FA0FE000200346014600902A4620466E
:102C300001F032FB30B9084940F2923201F118003C
:102C4000FDF7A6FBF06801680029D4D13169C6E917
:102C50000310F8BD74000020FC41000808484068DB
:102C6000401C05D040F20F1206A111A0FDF790FB09
:102C7000502080F31188BFF34F8FBFF36F8FFEE7B3
:102C8000880000202E2E5C4672656552544F535CBE
:102C9000706F727461626C655C525644535C415251
:102CA0004D5F434D34465C706F72742E63000000BC
:102CB0004572726F723A25732C25640D0A0000006C
:102CC000084CE068016839B1002139B10020FFF7F4
:102CD00035FFFFF7BBFEF4E70121F6E7C0680068A7
:102CE000F5E70000740000202DE9F041044600F0F3
:102CF000F3F994F9455004F1240610E0A06C20B1DA
:102D000000212046FFF72AFE04E0606A48B1304601
:102D100001F090F908B100F0C1FB6D1E6DB2002DFD
:102D2000ECDC4FF0FF3684F8456000F011FA00F05B
:102D3000D3F994F9445004F1100709E0206948B12F
:102D4000384601F077F908B100F0A8FB6D1E6DB2AE
:102D5000002DF3DC84F84460BDE8F04100F0F8B9E0
:102D60002DE9F0410546002600F0A6FC324F3868F8
:102D700008B9FFF709FDF86805424FD1002D4DD085
:102D8000083568070BD005F00700C0F108000544BE
:102D9000680704D0BE2229A132A0FDF7F9FA002D60
:102DA0003CD07868854239D82349103108460468F8
:102DB00001E0214604466068A84202D2206800284B
:102DC000F7D13868B846844228D00E682068086079
:102DD00060680836401B10280ED96719780704D0A0
:102DE000EB2216A11FA0FDF7D3FA6068401B7860A4
:102DF00038466560FFF762FD6168D8F80400424616
:102E0000401AC8F80400D8F80830984200D2906000
:102E1000D8F80C0001430020C4E9000101F056F984
:102E2000700705D040F22B1204A10EA0FDF7B0FAF6
:102E30003046BDE8F0810000940000202E2E5C4654
:102E400072656552544F535C706F727461626C6549
:102E50005C4D656D4D616E675C686561705F342EB9
:102E6000630000004572726F723A25732C25640D61
:102E70000A0000000449086818B10868026D521C75
:102E800002650868704700003800002010B5031F75
:102E90004FF080741C601B1F21F001011960191F85
:102EA000044B0B6014390A60091F6FF002024438AA
:102EB0000A6010BD5D2C00081CB500F00DF90F492B
:102EC0000220CDE90001002380220DA10F4800F06F
:102ED000A3FF0A490320091DCDE900010023802238
:102EE0000BA10E4800F098FF0448001F006800F096
:102EF0006FFABDE81C4000F02BB900000400002070
:102F00007461736B315F7461736B0000212F000873
:102F10007461736B325F7461736B00000130000881
:102F20000EB5002501AE0020FEF77EFF012802D07D
:102F300002281DD034E00024FDF7EEF93055641C62
:102F4000E4B2082CF8D318A0FDF722FA00241AA046
:102F5000315DFDF71DFA641CE4B2082CF7D308219B
:102F600001A8FDF72DFD08B115A017E018A015E088
:102F70001DB100251DB1002003E00125FAE74FF047
:102F80008040009006234FF4E0224FF4A00100207F
:102F9000FDF7DAFC0DB112A000E015A0FDF7F8F97D
:102FA000322000F0DFF9BEE70D0AB7A2CBCDB5C4E1
:102FB000CAFDBEDDA3BA0000253364200000000076
:102FC00020B7A2CBCDCAA7B0DC200D0A00000000BC
:102FD00020B7A2CBCDB3C9B9A6200D0A00000000CE
:102FE0000D0AC6D5CDA8C4A3CABD200D0A00000095
:102FF0000D0ABBD8BBB7C4A3CABD200D0A00000090
:10300000094D0024641CE4B2322C06D1D5F88402A8
:1030100038B10020C5F8840200240A2000F0A2F98B
:10302000F0E70120F6E70000008040420749064A29
:10303000C1E9002000208860C860086188610C2018
:1030400048610846FEF7F1BD001001407401002000
:10305000D0E9013201699A60D0E901235A604A68D7
:10306000824201D182684A60002202610868401EE3
:103070000860704700F108014FF0FF32C0E901120B
:10308000C16001610021016070470021016170474A
:1030900030B50C68621C02D000F1080202E002693F
:1030A00004E01A4653681D68A542FAD953684B607C
:1030B00099608A60516008610168491C016030BDF7
:1030C00042684A6093688B609368596091600861B8
:1030D0000168491C01607047502080F31188BFF3DC
:1030E0004F8FBFF36F8F09494868401C4860012823
:1030F0000AD10748006810F0FF0F05D040F2B9125E
:1031000004A10FA0FDF744B970470000880000201B
:1031100004ED00E02E2E5C4672656552544F535C00
:10312000706F727461626C655C525644535C4152BC
:103130004D5F434D34465C706F72742E6300000027
:103140004572726F723A25732C25640D0A000000D7
:1031500010B5084C606828B94FF4E07206A111A0C0
:10316000FDF716F96068401E606001D180F3118898
:1031700010BD0000880000202E2E5C46726565524E
:10318000544F535C706F727461626C655C5256444C
:10319000535C41524D5F434D34465C706F72742EE8
:1031A000630000004572726F723A25732C25640D1E
:1031B0000A00000070B500282AD0164DA0F10804BE
:1031C0006068E968084205D140F23F1212A11CA0D4
:1031D000FDF7DEF8206828B14FF4A0720EA118A008
:1031E000FDF7D6F86068E968084211D02268002A25
:1031F0000ED18843606000F05FFA60686968084437
:1032000068602046FFF75AFBBDE8704000F05EBFE3
:1032100070BD0000940000202E2E5C467265655241
:10322000544F535C706F727461626C655C4D656D78
:103230004D616E675C686561705F342E63000000ED
:103240004572726F723A25732C25640D0A000000D6
:1032500006484FF47A710068B0FBF1F14FF0E020BE
:10326000491E416107210161704700000C000020E8
:1032700010B5FDF74DF8104C10280CD300F1E020EC
:1032800090F8F0032178884205D24FF440720BA1E8
:1032900015A0FDF77DF818480068A16800F4E0600B
:1032A000884207D9BDE810404FF4447203A10EA034
:1032B000FDF76EB810BD0000880000202E2E5C4681
:1032C00072656552544F535C706F727461626C65C5
:1032D0005C525644535C41524D5F434D34465C70E2
:1032E0006F72742E630000004572726F723A25731C
:1032F0002C25640D0A0000000CED00E010B5074B12
:10330000002253F832401CB1521C082AF9D310BDD8
:1033100043F8321003EBC201486010BD34020020B4
:1033200070B515460E460446FFF7D6FE94F94410D4
:103330000020491C01D184F8440094F94510491C2F
:1033400001D184F84500FFF703FFA06B28B92A4696
:10335000314604F1240000F0D1F82046BDE8704069
:10336000FFF7C2BC10B5040012D00E49096B29B199
:1033700040F2CF420CA111A0FDF70AF800F09CF931
:1033800000212046FFF7BAF800F0A0FE002807D180
:103390000E494FF080500860BFF34F8FBFF36F8F1F
:1033A00010BD0000380000202E2E5C46726565526C
:1033B000544F535C7461736B732E63004572726F6C
:1033C000723A25732C25640D0A00000004ED00E01C
:1033D00070B50446FFF780FE234D04B92C68201D0C
:1033E000FFF736FE58B9E06A204A00EB800152F838
:1033F000211021B901218140286988432861A06AF0
:1034000018B104F11800FFF723FE686A401C6862D7
:103410002868844207D1211D1548FFF751FE6868CE
:10342000401C686007E0A868401EA8602046FFF7BF
:10343000A0F9FFF7B9FBFFF78BFE6869002812D0EF
:10344000286884420FD1286B28B140F2654209A157
:103450000DA0FCF79DFF10494FF080500860BFF3AE
:103460004F8FBFF36F8F70BD3800002074020020B3
:10347000300500202E2E5C4672656552544F535C19
:103480007461736B732E63004572726F723A2573A9
:103490002C25640D0A00000004ED00E00149012024
:1034A000C86170473800002070B50D46040005D192
:1034B00040F6073207A10CA0FCF76AFF0E4801682E
:1034C00020461831FFF7E4FD2846BDE87040012191
:1034D000FFF714B82E2E5C4672656552544F535C4C
:1034E0007461736B732E63004572726F723A257349
:1034F0002C25640D0A0000003800002070B5144629
:103500000E46050005D140F6323209A10DA0FCF7A8
:103510003FFF1048016828461831FFF7D1FD0CB174
:103520004FF0FF3621463046BDE87040FEF7E6BF5B
:103530002E2E5C4672656552544F535C7461736BFA
:10354000732E63004572726F723A25732C25640DD9
:103550000A0000003800002070B5040039D01D4D6D
:10356000E06A2968C96A884233D2A069002804DB6E
:103570002868C06AC0F12000A061E06A164E00EB26
:103580008000616906EB800081421FD1201DFFF79A
:103590005FFD012150B9E06A00EB800256F822205D
:1035A00022B92A6901FA00F082432A612868C06AB8
:1035B000E0622A6981401143296100EB800006EB3B
:1035C0008000211DBDE87040FFF77ABD2868C06A01
:1035D000E06270BD380000207402002010B50400C5
:1035E00005D140F6C23205A109A0FCF7D1FE0C4876
:1035F000016A2160C068606010BD00002E2E5C462C
:1036000072656552544F535C7461736B732E630023
:103610004572726F723A25732C25640D0A00000002
:10362000380000201CB517480024CDE9004023468F
:10363000822215A1164800F0EFFB012803D100F00B
:10364000F1FD01280AD0401C1BD102B040F2857266
:10365000BDE810400FA114A0FCF79ABE502080F3E3
:103660001188BFF34F8FBFF36F8F06484FF0FF31C4
:103670002C38816201214161C460BDE81C4000F02A
:1036800061B81CBD6400002049444C4500000000A6
:10369000D52700082E2E5C4672656552544F535C48
:1036A0007461736B732E63004572726F723A257387
:1036B0002C25640D0A0000000248016B491C0163BF
:1036C000704700003800002070B5134D286B10B112
:1036D0000120E86170BD0020E86128690F4EB0FA52
:1036E00080F0C0F11F0000EB800456F8240028B9D8
:1036F00040F6F7220AA10FA0FCF74AFE06EB840071
:1037000000F10802416849684160914201D149686D
:103710004160C868286070BD380000207402002035
:103720002E2E5C4672656552544F535C7461736B08
:10373000732E63004572726F723A25732C25640DE7
:103740000A0000001CB5304C20683049884205D181
:1037500040F259122EA139A0FCF71AFE20682B491D
:10376000491E884205D14FF4AD7229A133A0FCF760
:103770000FFE364C20780190FF20207020788DF8C5
:1037800000009DF800009DF8001000F0F000884255
:1037900005D040F273121EA128A0FCF7F9FD9DF898
:1037A00000002B4A00F0500010700720906007E0E6
:1037B0009068401E90609DF8000040008DF8000069
:1037C0009DF800000006F3D4107A000200F4E060D7
:1037D0009060019820700C482030016841F470011D
:1037E0000160016841F070410160FFF731FD002088
:1037F0005060FCF755FD1748016841F040410160F9
:10380000FCF73EFD00201CBD00ED00E071C20F4141
:103810002E2E5C4672656552544F535C706F727405
:1038200061626C655C525644535C41524D5F434D3E
:1038300034465C706F72742E630000004572726FC4
:10384000723A25732C25640D0A00000000E400E0A4
:103850008800002034EF00E010B5502080F311887C
:10386000BFF34F8FBFF36F8F00F016FB18B1044901
:103870004FF080500860002080F3118810BD0000D8
:1038800004ED00E02DE9F04117460E46050005D194
:103890004FF4C47210A115A0FCF77AFDBEB105FB70
:1038A00006F05430FFF75CFA04000ED004F1540027
:1038B0007EB12060C4E90F562046012100F0E0F8F7
:1038C00084F8507000212046A164BDE8F0810020FA
:1038D000E7E72460EEE700002E2E5C467265655235
:1038E000544F535C71756575652E63004572726F38
:1038F000723A25732C25640D0A0000002DE9FF4F54
:1039000083B09B468A4604004FF0000605D140F282
:10391000DC4251A155A0FCF73BFDBAF1000F07D1E5
:10392000206C28B140F2DD424BA150A0FCF730FDE5
:1039300000F09EFA38B9059828B14FF49C6246A170
:103940004AA0FCF725FD4FF000094FF08057DFF843
:103950002C81FFF7C1FBA56B45B351462046E668B5
:10396000FEF7BEFEBBF1000F13D0E660606A50B1F7
:1039700004F1240000F05EFB28B1C8F80070BFF32A
:103980004F8FBFF36F8FFFF7E3FB012007B0BDE858
:10399000F08F6D1EA563206810B9FFF76BFA6060A9
:1039A00020690028EFD004F11000E3E7059808B182
:1039B0001EB106E0FFF7CCFB27E06846FFF70EFEDE
:1039C0000126FFF7C5FBFFF777FEFFF785FB94F9AC
:1039D0004400401C01D184F8449094F94500401CF7
:1039E00001D184F84590FFF7B3FB05A9684600F0C4
:1039F000CFF9002820460AD0FFF776F900F066FBE1
:103A00002046FEF79DFF0028A3D00020BEE7FEF76A
:103A100097FFD8B1206830B9FFF75EFB6068FFF709
:103A20009BFDFFF795FB04F124000599FFF73CFD92
:103A30002046FFF759F900F049FB002889D1C8F862
:103A40000070BFF34F8FBFF36F8F82E72046FFF701
:103A50004BF900F03BFB7CE72E2E5C46726565520D
:103A6000544F535C71756575652E63004572726FB6
:103A7000723A25732C25640D0A00000004ED00E065
:103A800070B50D46040005D140F21B121CA121A007
:103A9000FCF77EFCFFF720FBD4E90F20216802FB36
:103AA000001161600021A1632168A1600A46D4E988
:103AB0000F01401E00FB0121E16021464FF0FF3065
:103AC00001F8440F487004F110004DB1FFF7D2FA2D
:103AD00004F12400FFF7CEFAFFF73AFB012070BD96
:103AE00021690029F8D000F0A5FA0028F4D00D498A
:103AF0004FF080500860BFF34F8FBFF36F8FEBE73D
:103B00002E2E5C4672656552544F535C7175657517
:103B1000652E63004572726F723A25732C25640D11
:103B20000A00000004ED00E02DE9FF4F83B0994644
:103B30008B4604004FF0000605D140F2D92252A175
:103B400056A0FCF725FCBBF1000F07D1206C28B173
:103B500040F2DA224CA151A0FCF71AFCB9F1020F95
:103B600008D1E06B012805D040F2DB2246A14BA032
:103B7000FCF70EFC00F07CF938B9059828B140F24A
:103B8000DE2241A145A0FCF703FC4FF0000A4FF0F4
:103B90008057DFF81881FFF79FFAA06BE16B88422E
:103BA00006D3B9F1020F03D0059800B316B325E090
:103BB0004A4659462046FEF7A6FDA16C21B149466A
:103BC0002046FEF7CBFE05E0616A19B104F124003E
:103BD00000F030FA28B1C8F80070BFF34F8FBFF380
:103BE0006F8FFFF7B5FA012007B0BDE8F08FFFF740
:103BF000AFFA21E06846FFF7F1FC0126FFF7A8FACB
:103C0000FFF75AFDFFF768FA94F94400401C01D110
:103C100084F844A094F94500401C01D184F845A0E3
:103C2000FFF796FA05A9684600F0B2F830B12046D1
:103C3000FFF75AF800F04AFA0020D5E7FFF74CFAF0
:103C4000A06BE16B884201D1012500E00025FFF760
:103C50007FFA95B104F110000599FFF725FC204685
:103C6000FFF742F800F032FA002894D1C8F800704B
:103C7000BFF34F8FBFF36F8F8DE72046FFF734F808
:103C800000F024FA87E700002E2E5C46726565522C
:103C9000544F535C71756575652E63004572726F84
:103CA000723A25732C25640D0A00000004ED00E033
:103CB0002DE9F047984615468946040005D140F2A3
:103CC0009F322AA12EA0FCF763FBB9F1000F07D1A8
:103CD000206C28B14FF4687224A129A0FCF758FB8E
:103CE000B8F1020F08D1E06B012805D040F2A132F3
:103CF0001EA123A0FCF74CFBFFF7BAFA5020EFF30C
:103D0000118780F31188BFF34F8FBFF36F8FA06BC4
:103D1000E16B884207D3B8F1020F04D0002087F38B
:103D20001188BDE8F08794F945604246494620462F
:103D3000FEF7E9FC701C04D0761C84F84560012075
:103D4000EDE7A06C012620B141462046FEF706FEB5
:103D500006E0606A0028F2D004F1240000F06AF95D
:103D60000028ECD0002DEAD02E60E8E72E2E5C462D
:103D700072656552544F535C71756575652E6300AD
:103D80004572726F723A25732C25640D0A0000008B
:103D900070B50D46040005D140F6CC3214A119A02F
:103DA000FCF7F6FA2DB940F6CD3211A115A0FCF7BB
:103DB000EFFAFFF791F9174AD06829684B1C0FD02A
:103DC0002368126A934202D0626882420AD962680A
:103DD000801A884206D2081A28602046FFF7FEFBA8
:103DE000002400E00124FFF7B3F9204670BD000075
:103DF0002E2E5C4672656552544F535C7461736B32
:103E0000732E63004572726F723A25732C25640D10
:103E10000A000000380000202DE9FF5F8346DDE93D
:103E20000E87994616468A469000FEF799FF0500D0
:103E30001AD05C20FEF794FF040012D02563002105
:103E4000CDE90241CDE900874B46324651465846FE
:103E5000FEF7D4FC2046FEF789FB012004B0BDE844
:103E6000F09F2846FFF7A6F94FF0FF30F6E7000075
:103E70000548416919B1006B18B100207047012055
:103E80007047022070470000380000200148C068D9
:103E900070470000380000202DE9F0412D4F00262A
:103EA000386B40B1B869401CB861F86900B10126AF
:103EB0003046BDE8F081FD686D1CFD6011D1786B66
:103EC000006828B140F6DA1223A128A0FCF760FAB6
:103ED000786BB96B7963B863386A401C3862FEF757
:103EE00063FEB86ADFF89480854209D3786B006876
:103EF00080B1786BC068C468606885420DD2B862D2
:103F00003868C06A00EB800158F821000128CCD93C
:103F10000126CAE74FF0FF30F1E7201DFFF798F8C0
:103F2000A06A18B104F11800FFF792F8E06A0121C5
:103F30003A6981401143396100EB800108EB81004F
:103F4000211DFFF7BDF8E06A3968C96A8842CDD300
:103F50000126CBE7380000202E2E5C4672656552A4
:103F6000544F535C7461736B732E63004572726FB0
:103F7000723A25732C25640D0A000000740200209B
:103F800070B504004FF000063CD01F4D28688442F5
:103F900005D040F6C8621DA121A0FCF7F9F9206DFB
:103FA00028B940F6CA6219A11DA0FCF7F1F9206DED
:103FB000401E2065E26CE16A914223D010BB201DB7
:103FC000FFF746F81A49012250B9E06A00EB800376
:103FD00051F8233023B92B6902FA00F083432B6197
:103FE000E06CE062C0F12000A061E06A2B698240D1
:103FF0001A432A6100EB800001EB8000211DFFF7CE
:104000005FF80126304670BD380000202E2E5C4639
:1040100072656552544F535C7461736B732E630009
:104020004572726F723A25732C25640D0A000000E8
:10403000740200202DE9F041C068C4682CB940F634
:10404000623216A11AA0FCF7A3F904F11800074682
:10405000FEF7FEFF1A4D286B012660B1394619485C
:10406000FFF72EF8E06A2968C96A884213D901204F
:10407000EE61BDE8F081201DFEF7EAFFE06A2A69E3
:1040800006FA00F1114329610F4900EB800001EBB2
:104090008000211DE4E70020EBE700002E2E5C46A7
:1040A00072656552544F535C7461736B732E630079
:1040B0004572726F723A25732C25640D0A00000058
:1040C000380000201C050020740200202DE9F04774
:1040D0002B4D00242746286B28B940F2E97229A10C
:1040E0002DA0FCF755F9FEF7F7FF286B401E28635B
:1040F000286BE8BBA8682C490126C8B3A1F52A792A
:104100008846D8F80010E9B1D8F80C00C46804F16A
:104110001800FEF79DFF201DFEF79AFFE06A2A694E
:1041200006FA00F11143296100EB800109EB8100DF
:10413000211DFEF7C5FFE06A2968C96A8842E0D3FD
:10414000EE61DEE70CB1FEF72FFDAC693CB1FFF785
:10415000A3FE00B1EE61641EF9D10020A861E869F8
:1041600030B11249012738070860BFF34F8F00E0D4
:1041700001E0BFF36F8FFEF7EBFF3846BDE8F08735
:10418000380000202E2E5C4672656552544F535CF9
:104190007461736B732E63004572726F723A25738C
:1041A0002C25640D0A0000001C05002004ED00E031
:1041B0002DE9F0470746994616460D462C20DDF8B6
:1041C00020A0FEF7CDFD040014D0B8464F46D146DE
:1041D0002DB94FF4C67209A10EA0FCF7D9F8FEF76D
:1041E0002DFA04F11801C4F8008081E8E002201DD6
:1041F000FEF74BFF2046BDE8F08700002E2E5C4600
:1042000072656552544F535C74696D6572732E63A9
:10421000000000004572726F723A25732C25640D00
:104220000A0000001CB50024FEF708FA0C480068DC
:1042300068B10B491F20091DCDE9000100234FF48F
:10424000827208A10948FFF7E7FD040005D140F29A
:10425000331207A10CA0FCF79BF820461CBD000000
:1042600074000020546D722053766300C12C000846
:104270002E2E5C4672656552544F535C74696D65B1
:1042800072732E63000000004572726F723A2573DC
:104290002C25640D0A0000002DE9FF47DDF830A051
:1042A000994690460D4606004FF0000705D14FF4A1
:1042B000D37212A117A0FCF76BF81A4C206880B1DA
:1042C000CDE900580296062D11DAFFF7D1FD02283C
:1042D0004FF0000309D0002269462068FFF724FC54
:1042E000074604B03846BDE8F0875246F4E700239D
:1042F0004A466946FFF7DCFCF2E700002E2E5C46DA
:1043000072656552544F535C74696D6572732E63A8
:10431000000000004572726F723A25732C25640DFF
:104320000A000000740000204FF04070E1EE100A17
:1043300070470000000001020304010203040607A5
:10434000080900006443000800000020AC000000E1
:10435000E801000810440008AC0000201CC4000064
:10436000040200080000000000000000000000003F
:104370000024F4000000000000000000010203041B
:10438000060708090000000000000000000000000F
:10439000000000000000000001000000000000001C
:1043A000000000000000000000000000000000000D
:1043B00000000000000000000000000000000000FD
:1043C00000000000000000000000000000000000ED
:1043D00000000000000000000000000000000000DD
:1043E00000000000000000000000000000000000CD
:1043F000AAAAAAAA00000000000000000000000015
:1044000000000000000000000000000000000000AC
:04000005080001AD41
:00000001FF
