:020000040800F2
:1000000078CE002091030008872300089B22000877
:1000100085230008390A0008112F0008000000009D
:10002000000000000000000000000000A502000821
:10003000590D000800000000F9020008AD27000873
:10004000AB030008AB030008AB030008AB030008D8
:10005000AB030008AB030008AB030008AB030008C8
:10006000AB030008AB030008AB030008AB030008B8
:10007000AB030008AB030008AB030008AB030008A8
:10008000AB030008AB030008AB030008AB03000898
:10009000A90A0008AB030008AB030008AB03000883
:1000A000AB030008AB030008AB030008AB03000878
:1000B000AB030008AB030008AB030008AB03000868
:1000C000AB030008AB030008AB030008AB03000858
:1000D000AB030008A52E0008AB030008AB03000823
:1000E000AB030008AB030008AB030008AB03000838
:1000F000AB030008AB030008AB030008AB03000828
:10010000AB030008AB03000819280008AB03000884
:10011000AB030008AB030008AB030008AB03000807
:10012000AB030008AB030008AB030008AB030008F7
:10013000AB030008AB030008AB030008AB030008E7
:10014000AB030008AB030008AB030008AB030008D7
:10015000AB030008AB030008AB030008AB030008C7
:10016000AB030008AB030008AB030008AB030008B7
:10017000AB030008AB030008AB030008000000005D
:10018000AB030008AB030008AB030008AB03000897
:10019000AB030008AB030008AB030008AB03000887
:1001A000AB030008AB030008AB03000800F002F843
:1001B00000F069F80AA090E8000C82448344AAF198
:1001C0000107DA4501D100F05EF8AFF2090EBAE896
:1001D0000F0013F0010F18BFFB1A43F0010318477B
:1001E000CC760000EC7600000A444FF0000C10F8CA
:1001F000013B13F0070408BF10F8014B1D1108BFA5
:1002000010F8015B641E05D010F8016B641E01F844
:10021000016BF9D113F0080F1EBF10F8014BAD1C94
:100220000C1B09D16D1E58BF01F801CBFAD505E0B2
:1002300014F8016B01F8016B6D1EF9D59142D6D30C
:10024000704700000023002400250026103A28BF34
:1002500078C1FBD8520728BF30C148BF0B60704738
:10026000642900F01381782900F04C81732900F093
:100270004D83002070471FB507F03CFA00F00BFAE1
:100280001FBD10B510BD00F0A4FB1146FFF7F3FF32
:1002900003F0A0FA00F0C2FB03B4FFF7F2FF03BCC7
:1002A00002F0B1FF2A4B19680868B0E8F04F80F3FC
:1002B0000988BFF36F8F4FF0000080F311887047FB
:1002C0000000000006480068006880F3088862B6F5
:1002D00061B6BFF34F8FBFF36F8F00DF00BF00BF6A
:1002E00008ED00E0DFF80C00016841F470010160E6
:1002F000704700BF88ED00E0EFF30980BFF36F8F18
:10030000134B1A681EF0100F08BF20ED108A20E969
:10031000F04F106008B44FF0500080F31188BFF325
:100320004F8FBFF36F8F06F0B5FB4FF0000080F3E7
:10033000118808BC19680868B0E8F04F1EF0100F6B
:1003400008BFB0EC108A80F30988BFF36F8F704745
:10035000F0080020EFF30580704700000B49D1F84A
:1003600000C04A685CF8043B1068184442F8040B6B
:100370008C4528BFA1F1DC0C8A4228BFA1F1DC0228
:10038000C1F800C04A6020F00040704710C800204B
:100390000948804709480047FEE7FEE7FEE7FEE719
:1003A000FEE7FEE7FEE7FEE7FEE7FEE70448054955
:1003B000054A064B70470000C5270008AD0100083C
:1003C00078C8002078CE002078CA002078CA0020A3
:1003D000704700000FB4044910B503AA029800F05A
:1003E00099FA10BC5DF814FB3000002070B504468B
:1003F00085690068C10601D5302600E02026C007C7
:1004000007D070BDD4E9012130469047206A401CD6
:1004100020626D1EF6D570BD70B504468569007802
:10042000C00707D170BDD4E9012120209047206A80
:10043000401C20626D1EF6D570BD70B50C46054699
:10044000012A05D02878800600D5EA69002302E059
:10045000012305E05B1C934202D2E05C0028F9D145
:10046000A869E618C01AA861286A184428622846B4
:10047000FFF7BCFF04E0D5E9012114F8010B904718
:10048000B442F8D32846FFF7C7FF70BD2DE9F0410D
:100490000646002410687529314616A510D0AFF322
:1004A0000080002802DA404213A507E031688A077D
:1004B00001D512A502E0490704D511A5012401E0E8
:1004C000AFF3008000210A2206F1240709E0B0FB07
:1004D000F2FCB0FBF2F302FB1C00303078541846FB
:1004E000491C0028F3D123462A463046BDE8F04196
:1004F00000F089B9000000002D0000002B00000072
:100500002000000070B504460D4621461068AFF388
:1005100000802188090502D50F4A7A4402E00E4A7C
:100520007A440E32002104F1240305E000F00F06A6
:100530000009965D5E54491C0028F7D120780023FD
:10054000000704D5702D02D009B1022311322046D4
:10055000BDE8704000F057B9507300002DE9F04736
:100560004FF0000A89460446C0F820A02046E16802
:100570008847002876D0252806D0D4E90121904765
:10058000206A401C2062F1E7E16820460025884788
:10059000C4F81CA006460027C4F818A02A2E09D0CB
:1005A000304602F011FD38B304EB8708303EC8F83E
:1005B000186019E059F8041B204604EB870291618A
:1005C000E1688847012F064618D1E069002820DA43
:1005D00025F020051DE0D8F8180000EB800006EBA0
:1005E00040003038C8F818002046E16888470646C1
:1005F00002F0EAFC0028EED1012F0AD02E2E08D1FD
:100600002046E16888477F1C0646022F45F02005FA
:10061000C4DBA069002803DA404245F00105A0616F
:10062000E80701D025F01005B6B1A6F14100192860
:1006300002D8203645F400654A46314620462560FA
:100640004D46FFF70DFE58B1012806D0ED1D25F0EF
:10065000070000F1080989E704E005F1040985E7CE
:1006600030468AE7206ABDE8F08700000B4910B5E4
:10067000A1F17C020A4CC2E93712372106E000EBF7
:10068000104342F82130074B00FB03400B1EA1F141
:100690000101F4DC10BD0120E8E70000B0C7002034
:1006A000E119D666CD0D010040EA010310B59B07A4
:1006B0000FD1042A0DD310C808C9121F9C42F8D0CC
:1006C00020BA19BA884201D9012010BD4FF0FF307D
:1006D00010BD1AB1D30703D0521C07E0002010BD93
:1006E00010F8013B11F8014B1B1B07D110F8013B1F
:1006F00011F8014B1B1B01D1921EF1D1184610BD00
:10070000032A40F2308010F0030C00F0158011F83D
:10071000013BBCF1020F624498BF11F801CB00F815
:10072000013B38BF11F8013BA2F1040298BF00F869
:1007300001CB38BF00F8013B11F0030300F0258026
:10074000083AC0F0088051F8043B083A51F804CB4D
:10075000A0E80810F5E7121D5CBF51F8043B40F813
:10076000043BAFF30080D20724BF11F8013B11F81E
:1007700001CB48BF11F8012B24BF00F8013B00F862
:1007800001CB48BF00F8012B704710B5203AC0F0EC
:100790000B80B1E81850203AA0E81850B1E8185082
:1007A000A0E81850BFF4F5AF5FEA027C24BFB1E8BF
:1007B0001850A0E8185044BF18C918C0BDE8104030
:1007C0005FEA827C24BF51F8043B40F8043B08BF39
:1007D0007047D20728BF31F8023B48BF11F8012B00
:1007E00028BF20F8023B48BF00F8012B704702F0F9
:1007F000FF0343EA032242EA024200F09FB8704737
:100800007047704770472DE9F0470D46994692466C
:10081000044600F124080168880604D5E06921F047
:100820001001216000E00120A84201DD471B00E02B
:100830000027A1697A1902EB0900081AA061207843
:10084000C00602D42046FFF7D1FD002608E0D4E917
:1008500001211AF806009047206A401C761C20628D
:100860004E45F4DB2078C0060AD52046FFF7BEFDD2
:1008700006E0D4E9012130209047206A401C206224
:10088000381EA7F10107F4DC07E0D4E9012118F8CC
:1008900005009047206A401C2062281EA5F1010532
:1008A000F3DC2046FFF7B8FD2078000602D50220D1
:1008B000BDE8F0870120FBE701694A1C0261087866
:1008C000704700B58FB0CDE9013100210591054990
:1008D0007944CDE9031011466846FFF73FFE0FB09B
:1008E00000BD0000E5FFFFFF10B5436913B1AFF392
:1008F000008001E0FFF7A1FD012010BD127800F19A
:1009000024010A7000224A700122EDE711684FF0BD
:10091000FF32E9E7074B70B50D467B44FFF7D1FF87
:100920000446284600F02AF810B14FF0FF3070BDA1
:10093000204670BD3F2C00004FF000020429C0F09B
:10094000128010F0030C00F01F80CCF1040CBCF1FD
:10095000020F18BF00F8012BA8BF20F8022BA1EB53
:100960000C0100F011B85FEAC17C24BF00F8012B34
:1009700000F8012B48BF00F8012B7047007B00F006
:10098000800070474FF0000200B51346944696462B
:10099000203922BFA0E80C50A0E80C50B1F1200192
:1009A000BFF4F7AF090728BFA0E80C5048BF0CC040
:1009B0005DF804EB890028BF40F8042B08BF70479E
:1009C00048BF20F8022B11F0804F18BF00F8012B10
:1009D0007047754600F02CF8AE4605006946534650
:1009E00020F00700854618B020B5FFF7DFFCBDE812
:1009F00020404FF000064FF000074FF000084FF086
:100A0000000B21F00701AC46ACE8C009ACE8C00916
:100A1000ACE8C009ACE8C0098D46704710B5044683
:100A2000AFF300802046BDE81040FFF735BC000062
:100A30000048704718C80020FEE7000070B58AB073
:100A4000184C174E0E9D266004F1400626631C3696
:100A5000666363602261C4E902500025C4E905159C
:100A60000126E561C4E90856A5622046E56200F06A
:100A7000F1FA10B101200AB070BD039504950E2063
:100A800001950295CDE90860CDE9065600950595DA
:100A90006946044800F0AAF90028ECD00220EAE7F1
:100AA000006400406C0A0020014800F013BA000006
:100AB0006C0A002070B50F4B002246241D6B2C6081
:100AC0001D6B6C601D6BAA601D6BEA601C6B216165
:100AD00006E0855C02F114041E6B521C92B235557F
:100AE0008A42F6D30A21034800F0D4FB002800D044
:100AF000012070BD6C0A002010B54FF4D872036855
:100B000002EB01129B5813F00404436B9C600468D1
:100B1000436BA45854D0E4085C6003689A58436B54
:100B200002F00202DA604FF4DA72036802EB01129B
:100B30009B58446B03F00F03236103689A58436B7F
:100B4000C2F30722DA614FF4DC72036802EB011290
:100B50009B58446B237503689B58446B1B0A637551
:100B600003689B58446B1B0CA37503689A58436B2E
:100B7000120EDA754FF4DE72036802EB01129B5815
:100B8000446B237603689B58446B1B0A63760368A7
:100B90009B58446B1B0CA37603689A58436B120E48
:100BA000DA762022002901680DD00A6101684A69BD
:100BB00022F010024A6190F83810222909D021E071
:100BC000640D1C60A9E7CA6001684A6922F002024C
:100BD000F0E701684A6922F480724A6101684A6953
:100BE00022F400724A6101684A6922F480624A6113
:100BF00001684A6922F400624A6101684A6922F484
:100C000000424A6190F83810322906D0012180F85C
:100C1000381000F0FBFA002010BD1221F7E710B5E4
:100C200001684A6922F001024A6190F838101229DD
:100C300018D101684A6922F480724A6101684A69E0
:100C400022F400724A6101684A6922F480624A61B2
:100C500001684A6922F400624A6101684A6922F423
:100C600000424A6190F83810322906D0012180F8FC
:100C7000381000F0C9FB002010BD2221F7E730B486
:100C80000A46D0F8A010D0F8A4404FF0FF3351F836
:100C9000221024F81230C1F307410122431883F8CF
:100CA000B420D0F8B02030BC10472DE9F04F994661
:100CB000DDE9094C4FF0FF3BDDF82CA048E0ACEB40
:100CC00002035BB20D78002B02DD05FA03F503E0A9
:100CD000C3F1000325FA03F5EEB202DDCCF10803FF
:100CE00001E0C2F10803DBB2834200D903460CEBFA
:100CF00003074FF0FF0808FA07F5CCF1080C28FAB3
:100D00000CF845EA080594F800C0AE430CEA050C5F
:100D10001A444CEA060CD2B284F800C0072A07D95C
:100D20000022B9F1000F01D05D4600E00125294401
:100D300007F0FF0CBCF1070F08D94FF0000CBAF117
:100D4000000F01D05D4600E001252C44C01AC0B25E
:100D50000028B4D1BDE8F08F70470000411C0CD0D2
:100D6000074AB2F90010884201D1491E1180054A94
:100D700000EB4000002102F830104FF0FF307047C8
:100D800038000020280B002070B50646D0F83C0142
:100D9000008818B30024351995F8B4000F2818D02E
:100DA00030680078A04214D095F8440140B9D6F8D4
:100DB000382112B1214630469047012085F8B40011
:100DC00095F844012146401E85F84401304602F062
:100DD0005DFD641CE4B2802CDDD370BDB6F9340136
:100DE000FFF7BCFFA6F8340170BD0000F0B50A7D26
:100DF00001209040344A136843F0010313601368E4
:100E000023F47C53136013684C6A43EA0423136091
:100E10002D4D1C352B6883432B602B4C2B4BCE69FF
:100E20000C34A6B92668864326608F894E6867F31E
:100E30001F464F6903EBC707C7F840660F890E6866
:100E400067F31F464F6903EBC707C7F84466CE69CF
:100E5000012E14D12668064326600E884C6866F37E
:100E60001F444E6903EBC606C6F840460E89CC689F
:100E700066F31F444E6903EBC603C3F84446124BA6
:100E80008C691B1D002C1C6806D004431C600E4B93
:100E90000C69143314B104E08443F7E71C688443FD
:100EA0001C600C69012C02D11C6804431C60096A97
:100EB000012902D1296801432960106820F001004E
:100EC00010600020F0BD000000660040006000409F
:100ED0007047000010B5044600684169C943C9075E
:100EE00014D182685849914368D000218368574AD9
:100EF0009A4365D0002283685548984362D0002009
:100F00001143014302D02046FFF789FE2068C168E3
:100F1000406911F0030FC0F3400004D018B1002164
:100F20002046FFF7E9FD20680169406911F0030FD1
:100F3000C0F3001004D018B101212046FFF7DCFDFA
:100F4000206881694269C1F300014369C2F300224C
:100F5000C3F3C03329B122B11BB1E16B41F00101F0
:100F6000E1638169C1F3400241694369C1F34021F2
:100F7000C3F3C0332AB121B11BB1E16B41F00201CF
:100F8000E16381694269C1F38001C2F38023426950
:100F9000C2F3C03229B123B11AB1E16B41F00401AF
:100FA000E163816911F0700F0ED000214269C2F334
:100FB000C0234269C2F3C03241B127E0012195E765
:100FC000012298E701209BE70121EFE7F3B1EAB1A5
:100FD000816901F07001402929D006DC102909D06F
:100FE00020290BD030290DD11DE0502923D06029B4
:100FF00008D124E0E16B41F0080102E0E16B41F02F
:101000001001E163816921F070018161E06B0028CA
:1010100008D0216804204860012084F83800204668
:10102000FFF756FF10BDE16B41F02001E9E7E16BEE
:1010300041F04001E5E7E16B41F08001E1E7E16B60
:1010400041F48071DDE700000300000400030008A4
:10105000000003102DE9F041040004D094F838009A
:10106000002518B107E00120BDE8F08184F839506F
:10107000204600F091F8022084F8380020680168CA
:1010800021F0020101602068016841F00101016066
:1010900000F0B0FA0746032604E000F0ABFAC01BEC
:1010A0000A2862D820684068C007F6D020684168E6
:1010B000C90767D0A169012901683FD021F08001EB
:1010C0000160E0690128206801683AD021F0400100
:1010D0000160206A01282068016835D021F02001D4
:1010E0000160606A01282068016830D021F0100199
:1010F0000160A06A0128206801682BD021F0080156
:101100000160E06A01282068016826D021F004010E
:101110000160D4E902010843D4E9041211430843F1
:101120006168491E08432168C8612068016821F090
:101130000101016000F05EFA07461BE041F080010A
:10114000BEE741F04001C3E741F02001C8E741F0AC
:101150001001CDE741F00801D2E741F00401D7E7E3
:1011600000F048FAC01B0A2804D904F8386F03209D
:10117000657079E720684068C007F1D12068406851
:10118000C00703D0042084F838006CE7E563012031
:1011900084F83800002067E7194800B5016887B077
:1011A00041F000710160006800F000700590144883
:1011B0001038016841F0010101600068012100F070
:1011C000010005904FF4C05000900220CDE90101CC
:1011D00003900920049069460A4800F017F90A486C
:1011E0000068416941F0020141610222012114209D
:1011F00000F048FA142000F03AFA07B000BD0000F1
:1012000040380240000002406C0A0020FEB5184D34
:1012100000242868416941F002014161686B01883E
:10122000ADF80010C16802290AD000218DF8021023
:10123000007C8DF803000FA0FFF7CCF86E460BE0A2
:101240000121F3E7696B04F11400095C30190171A5
:101250000CA0FFF7BFF8641C9DF80300A042F1D872
:101260000AA0FFF7B7F86946094802F03CF8FEBD4E
:101270006C0A00200D0ABDD3CADCB5C4CAFDBEDDB0
:10128000A3BA000025336420000000000D0A00000E
:10129000B00600202DE9F05F044690F839000E46B4
:1012A000012812D04FF0010984F8399094F83800E1
:1012B00022280DD0122084F83800216888684FF069
:1012C0000008400106D500250DE00220BDE8F09F92
:1012D0003220F0E78868000101D5012503E0886825
:1012E000C0004FD502254FF4C07000EB05100A581E
:1012F00002F001020A50216B8A68EAB323681F5882
:101300001743CA68496842EAC1010F431F50216B65
:101310000A7C02F00F020A614FF4C271226801EBED
:101320000511535823F00F03535022685358276B6D
:101330003F693B435350216B4FF4C47303EB0513D8
:101340000A7DD1F8151042EA01222168CA50216BAA
:101350004FF4C67303EB05130A7ED1F8191042EA65
:1013600001212268D15021680A5842F001020A5036
:1013700000F040F9074600E00BE0DFF880A0DFF85E
:1013800080B01DE0042084F8380084F83980012002
:101390009CE722681358CF6809883B4343EA4151D0
:1013A0001150B4E7701C0BD026B100F023F9C01B1C
:1013B000B04205D9032084F8380084F8398085E7E5
:1013C00095B12068012D816813D00E48884300280C
:1013D000E8D194F8380032280ED0484684F8380016
:1013E00084F83980002071E7206881682AEA0100CA
:1013F000EDE72BEA0100EAE72220EFE70300000413
:101400000003000800000310704700002DE9F84FAA
:10141000DFF8A091002209F1040A0AF1040B4FF051
:101420000F080BF1040E01260B6896403340B342BF
:1014300071D14C68022C01D0122C11D1D40800EBD0
:1014400084073D6A5407E40E08FA04FC25EA0C05FB
:10145000D1F810C00CFA04FC4CEA050CC7F820C007
:1014600007685400032591F804C0A5400CF0030C54
:10147000AF430CFA04FC4CEA070CC0F800C04F68FC
:10148000012F05D0022F03D0112F01D0122F11D11F
:101490008768D1F80CC0AF430CFA04FC4CEA070C87
:1014A000C0F808C04768B7430E79C6F300169640E7
:1014B0003E434660C668AE438D68A5403543C5606F
:1014C0004C68E4006FD53C4C256845F480452560A8
:1014D000246822F0030504F480440094374C2E194C
:1014E000D6F808789407250F08FA05F4A743344C7A
:1014F000A04201D100242EE0324CA04201D10124AF
:1015000029E0314CA04201D1022424E02F4CA0421A
:1015100002D103241FE046E02D4CA04201D1042457
:1015200019E02C4CA04201D1052414E02A4CA04221
:1015300001D106240FE0294CA04201D107240AE082
:10154000274CA04201D1082405E0264CA04201D13D
:10155000092400E00A24AC403C43C6F80848D9F806
:1015600000404D464E689C43F60300D51C432C605A
:10157000DAF8004055464E689C43B60300D51C433C
:101580002C60DBF800405D464E689C43F60200D5B7
:101590001C432C60DEF8004075464E689C43B60242
:1015A00000D51C432C60521C102AFFF43CAFBDE850
:1015B000F88F0000003C01404438024000300140F8
:1015C000000002400004024000080240000C0240FB
:1015D000001002400014024000180240001C0240AB
:1015E00000200240002402400AB1816170470904D2
:1015F000FBE7000001480068704700002000002061
:1016000002480168491C016070470000200000206A
:101610000B4810B5016841F400710160016841F4A4
:1016200080610160016841F480710160032000F075
:1016300049F80F2000F006F800F015F8002010BD62
:10164000003C024010B5044600F096F94FF47A7160
:10165000B0FBF1F000F0AAFB00222146501E00F082
:1016600011F8002010BD08B50020009008BD00F062
:101670001F02012191404009800000F1E020C0F8E4
:1016800000117047F0B40E4B1B68C3F30223C3F183
:101690000704042C00D904241D1D072D01D20023AA
:1016A00000E0DB1E012606FA04F56D1E0D409D408C
:1016B0009E40761E164045EA0601F0BC00F064BE6E
:1016C0000CED00E0064A00F0070110684FF6FF033A
:1016D000184040EA012003490843106070470000A9
:1016E0000CED00E00000FA052DE9F8431D48016803
:1016F00041F0805101600068012700F080500090A7
:10170000380490FAA0F0DFF86080B0FA80F048F872
:101710002070FFF76FFF04464FF47A75134E04E014
:10172000FFF768FF001BA84213D87068C003F7D505
:101730004FF4003090FAA0F0B0FA80F048F8207032
:10174000FFF758FF044607E0FFF754FF001BA842CD
:1017500002D90320BDE8F88370688003F4D5002027
:10176000F8E700004038024000000E4200700040E0
:101770002DE9F05FDFF8F8A104460F46DAF8000023
:10178000DFF8F08100F00F02C8B27A49814641F2D9
:10179000883608F10808BA4261D202468AF8002069
:1017A000DAF8000000F00F00B8427DD12078800701
:1017B00007D5D8F80020A36822F0F0021A43C8F831
:1017C00000202078C0072DD0606801281AD0022898
:1017D0001BD0032819D009688907002964DAD8F8D2
:1017E0000010474621F003010143C8F80010FFF73D
:1017F00001FF0546606801280FD0022818D0032891
:101800001CD027E009688903E7E709688901E4E754
:10181000FFF7F0FE401BB04258D83868C0F3810093
:101820000128F5D188E0FFF7E5FE401BB0424DD816
:101830003868C0F381000228F5D17DE03868FFF7F1
:10184000D9FE401BB042F9D940E0FFF7D3FE401B60
:10185000B0423BD8386810F00C0FF6D16CE020781D
:10186000800707D5D8F80020A36822F0F0021A43B9
:10187000C8F800202078C0074CD06068012828D024
:10188000022829D0032827D009688907002949DAC6
:10189000D8F8002022F003020243C8F80020FFF726
:1018A000A9FE0546606800E03CE001281DD0022842
:1018B00029D0032838D0B3464646306810F00C0FC4
:1018C00028D0FFF797FE411B5945F6D90320BDE804
:1018D000F09F09688903D9E709688901D6E7FFF70E
:1018E00089FE411B594502D9F0E7B34646463068A8
:1018F000C0F381000128F2D10CE0FFF77BFE411B11
:10190000594502D9E2E7B34646463068C0F3810044
:101910000228F2D18AF80090DAF8000000F00F00F7
:10192000B84209D00120D2E744462068FFF762FEA2
:10193000401BB042F9D9C9E72078400707D5D8F84D
:101940000010E26821F4E0511143C8F8001020783B
:10195000000708D5D8F80010226921F4604141EA57
:10196000C201C8F800100F20FFF76CFE0020AEE7A0
:10197000003C02400038024010B500F043F808492E
:101980000968F02292FAA2F201F0F001B2FA82F2B2
:10199000D140044A515CC8400349086010BD0000B2
:1019A00008380240FE7600080C00002010B5FFF752
:1019B000E3FF074909684FF4E05292FAA2F201F4FA
:1019C000E051B2FA82F2D140024A515CC84010BDE7
:1019D00008380240FE76000810B5FFF7CDFF074932
:1019E00009684FF4604292FAA2F201F46041B2FA3F
:1019F00082F2D140024A515CC84010BD0838024012
:101A0000FE76000830B51948006810F00C0118483F
:101A100012D0184C04290ED008290DD1134A121FD8
:101A20001168136801F03F015D0247F6C07304D5E9
:101A3000B4FBF1F003E0204630BDB0FBF1F01168DB
:101A4000194093FAA3F3B3FA83F3D94048431168DA
:101A50004FF4403292FAA2F201F44031B2FA82F22B
:101A6000D140491C4900B0FBF1F030BD08380240BC
:101A70000024F40040787D012DE9F84F04460078F9
:101A8000DFF8FCA2BF4DC0074FF0000648D0DAF8DF
:101A900000105046C1F38101012908D00068C0F34D
:101AA000810002280AD1281D0068400206D5286856
:101AB000800335D56068002873D031E0DFF8C49228
:101AC00009F1020989F80060FFF794FD074641F229
:101AD000883804E0FFF78EFDC11B41457AD828689D
:101AE0008003F7D4207989F80000606860B1FFF7BF
:101AF00081FD074604E0FFF77DFDC11B4145EDD8A0
:101B000028688003F7D50BE0FFF774FD074604E073
:101B1000FFF770FDC11B4145E0D828688003F7D46A
:101B20002078DFF86492800744D5DAF80010504638
:101B300011F00C0F4FF0F80809D00068C0F38100D5
:101B400002280BD18E48001F0068400206D4286886
:101B5000800714D5E068012823D110E0E068D0B1F7
:101B60000120C9F80000FFF745FD074604E0FFF734
:101B700041FDC01B6428B1D828688007F7D52868C4
:101B800098FAA8F22169B2FA82F220F0F8009140A6
:101B9000084328600EE0C9F80060FFF72BFD0746F8
:101BA00005E0EAE0FFF726FDC01B642812D828688C
:101BB0008007F7D42078000725D5DFF8C481734863
:101BC000616908F16C0881B101210160FFF712FD24
:101BD000074605E07EE0FFF70DFDC01B642879D8BD
:101BE000D8F800008007F6D50DE00660FFF702FD8B
:101BF000074604E0FFF7FEFCC01B64286AD8D8F84B
:101C000000008007F6D42078400753D55C48383070
:101C1000016841F0805101600068DFF8748100F0D4
:101C200080500090D8F8001041F48071C8F800107E
:101C3000FFF7E0FC074604E0FFF7DCFCC01B64286C
:101C400048D8D8F80000C005F6D5DFF834B10BF15C
:101C5000680B8BF80060FFF7CDFC074641F288382F
:101C600004E0FFF7C7FCC11B41457ED8DBF800004C
:101C70008007F6D4207A8BF80000A06868B1FFF7DF
:101C8000B9FC074604E0FFF7B5FCC11B41456CD821
:101C9000DBF800008007F6D50CE0FFF7ABFC074649
:101CA00004E0FFF7A7FCC11B41455ED8DBF800004C
:101CB0008007F6D4A069E8B3DAF80010C1F3810117
:101CC00002295AD0022806D0C9F86060FFF792FCBA
:101CD00004464DE049E04F46C9F86060FFF78AFCD2
:101CE000064604E0FFF786FC801B64283DD8286880
:101CF0008001F7D4D4E90701084347F6C07191FA8F
:101D0000A1F1626AB1FA81F18A40A16A4FF0FF3312
:101D100003EB51014FF4403393FAA3F3B3FA83F387
:101D200099400A4310434FF0706292FAA2F2B2FA5D
:101D300082F200E01FE0E16A914008431049091F68
:101D4000086001203866FFF755FC044604E0FFF701
:101D500051FC001B642808D828688001F7D50AE0E8
:101D6000FFF748FC001B642802D90320BDE8F88F68
:101D700028688001F4D40020F8E70120F6E700008D
:101D8000083802400038024000004742800E4742B7
:101D9000007000404FF0E0210428086903D020F0D3
:101DA00004000861704740F00400FAE710B5401ED7
:101DB000B0F1807F01D3012010BD4FF0E0246061BD
:101DC0000F21601700F0E0FA0020A06107202061D9
:101DD000002010BD7047704710B5040003D094F880
:101DE000390010B107E0012010BD002084F8380050
:101DF000204600F00DF8022084F83900211D2068EB
:101E000000F026FD012084F83900002010BD0000FC
:101E100008B500680B49884212D10B48016841F0AF
:101E2000080101600068052200F00800009001210F
:101E30003220FFF727FCBDE808403220FFF717BC2F
:101E400008BD0000000C0040403802400168CA682C
:101E500042F00102CA600068016841F001010160BE
:101E600000207047704770B50446006801694FF064
:101E70000005C943890715D4C168C943890711D42E
:101E8000E91E0161012020762068806980072046D4
:101E900002D0FFF7E7FF04E000F098F8204600F0DA
:101EA00096F8257620680169C943490717D4C168A7
:101EB000C943490713D46FF0040101610220207661
:101EC0002068806910F4407F204602D0FFF7CAFFE7
:101ED00004E000F07BF8204600F079F825762068D1
:101EE0000169C943090716D4C168C943090712D457
:101EF0006FF008010161042020762068C069800726
:101F0000204602D0FFF7AEFF04E000F05FF8204665
:101F100000F05DF8257620680169C943C90617D429
:101F2000C168C943C90613D46FF0100101610820CC
:101F300020762068C06910F4407F204602D0FFF769
:101F400091FF04E000F042F8204600F040F82576CA
:101F500020680169C943C90708D1C168C943C907D5
:101F600004D1891E0161204600F032F82068016921
:101F7000C943090609D4C168C943090605D46FF0ED
:101F8000800101612046FFF725FF20680169C943F0
:101F9000490609D4C168C943490605D46FF0400118
:101FA0000161204600F01CF820680169C9438906D8
:101FB0000BD4C168C943890607D46FF020010161C1
:101FC0002046BDE87040FFF706BF70BD7047704700
:101FD0000249884201D104F0FDB97047EC0A0020A3
:101FE0007047704738B5016804460868CA68C0F38E
:101FF000000002F4807238B132B10868486800907D
:10200000E06B40F00100E06308684A69C0F34000FB
:1020100002F0010238B132B1086848680090E06B04
:1020200040F00400E06308684A69C0F3800002F0F1
:10203000010238B132B1086848680090E06B40F0A6
:102040000200E06308684A69C0F3C00002F00102C0
:1020500038B132B1086848680090E06B40F0080081
:10206000E0630868C968C0F3401001F0200118B1AE
:1020700011B1204600F08CFD20680168C068C1F3F2
:10208000C01100F0800019B110B1204600F08EFEA2
:1020900021680868CA68C0F3801002F04002012578
:1020A00068B162B1CA68204622F04002CA6094F862
:1020B000391032290CD080F8395000F0EDF8E06B7F
:1020C000002804D084F839502046FFF78AFF38BD35
:1020D000222180F83910F0E770B5040004D094F89C
:1020E0003900002510B106E0012070BD84F8385099
:1020F000204600F021F8022084F839002068C168E9
:1021000021F40051C160204600F096FD206801696D
:1021100021F4904101612068416921F02A01416167
:102120002068C16841F40051C160E563012084F872
:102130003900002070BD000030B504460068204919
:1021400087B0884239D11F48016841F00101016020
:10215000006800F0010005901A481430016841F051
:10216000100101600068012100F0100005904FF49B
:10217000007000900220CDE9010103900720124D6C
:10218000049069462846FFF741F9281500906946F2
:102190002846FFF73BF92068C16821F04001C16083
:1021A0002068C16841F02001C1602520FFF75FFA77
:1021B000032211462520FFF765FA07B030BD000065
:1021C0000010014030380240000002402DE9F04785
:1021D000044690F8390099460D46012801D012288E
:1021E00057D125B31AB394F83800012851D00126ED
:1021F00084F838600027E76394F83900122819D072
:10220000222084F83900A285E2854FF48058E08DC1
:102210004B46401EE085A0684FF0000240454FF05D
:102220002001204616D100F0F4FDB0B904E00120F1
:10223000BDE8F0873220E4E7206900282068406884
:1022400003D0C1B225F8011B12E0C0F3080125F844
:10225000021B0DE000F0DDFD08B10320E8E7206976
:1022600000282068406801D000F07F0005F8010BCD
:10227000E08D0028CBD194F83900322805D084F8BD
:10228000396084F838700020D2E7122084F83900D1
:10229000F7E70220CCE770477047FEE70C4800B52F
:1022A000026887B0002142F080020260006800F0FE
:1022B000800005900C20CDE9000101200290032050
:1022C000039069460348FFF7A1F807B000BD00007E
:1022D00030380240001C024070B50121144C154DED
:1022E00001280CD0207828B1D5F80C0248B1D5F8D7
:1022F000080230B1D5F80C02012812D016E0217086
:10230000F2E70A2001F094F800202070D5F80C02C2
:1023100018B1D5F8080210B108E0012070BD022004
:1023200070BDD5F80802012800D12170002070BDD1
:102330003400002000804342104810B5016886B088
:1023400041F0020101600068012100F002000590E7
:102350000320CDE90210CDE90001094C6946204671
:10236000FFF754F8012211462046FFF73DF90122FC
:1023700002212046FFF738F906B010BD3038024080
:1023800000040240FEE770470907090E002806DA3C
:1023900000F00F0000F1E02080F8141D704700F1FC
:1023A000E02080F80014704710B503F09DFE002077
:1023B00010BD000038B50446B0F9AC00A834FEF7F3
:1023C000CDFCA08054F8A809008860B100EB400162
:1023D000C1EBC01000230090044A1946204600F0CB
:1023E0005BF9A4F8AC00002038BD00003D250008D2
:1023F00010B5044601F0ACFA204601F06BFA00205B
:1024000010BDD0F80C12097861B900210A4605E028
:10241000D0F8103243F82120491CC9B290F8093293
:102420008B42F5D80020704730B401EBC1028468BC
:1024300002254FF0FF3305EB420563530023846808
:10244000062505EB4202A35230BCC9B203F012BC10
:1024500030B401EBC102846804254FF0FF3305EB73
:10246000420563538368C9B213F8124024F0010493
:1024700003F8124030BC03F0FDBB00002DE9F84327
:10248000064640694FF4C0550489B0690789CCB14C
:10249000DFF83C80BC4215D8D6F8E8316A462946B8
:1024A00030469847009941B90268C2F82C8002680A
:1024B000C2F83C800068C0F85C806D1C641CADB242
:1024C000A4B2E7E73046BDE8F843002100F092BD32
:1024D000112900082DE9F0470446406900270589C5
:1024E000A069B0F8089035BBBDE8F087A16807EB9C
:1024F000C706022000EB460831F90800FEF72EFC63
:10250000A26822F80800A168042000EB460831F90F
:102510000800FEF723FCA2687F1CFFB222F8080027
:10252000A1680020062201F81600A16802EB46020D
:102530006D1C8852ADB24D45D8D9D5E73EB504469D
:10254000D0F8A8000088A8B120686946007800F596
:10255000E060ADF8000001208DF8030000208DF848
:10256000020094F87C008DF80400D4F8E40100F037
:10257000F7FE3EBD34F9AC0FFEF7F0FB20803EBD08
:10258000F8B51446D0F8E8511E466A46A8470099A7
:1025900039B90179A14204D900680C2101EB041179
:1025A00046500098F8BD00002DE9FC410546406901
:1025B0000E464088002833D0C6EBC60101EB41012E
:1025C00005EB8104A96994F82820498810448842C1
:1025D00026D86968134F51F83000806B90F800805E
:1025E0004FF0FF30A4F87400852084F82A0094F896
:1025F0003200CDE90007238E94F82910284603F015
:1026000015FCE762A26F2AB1414628469047E06A6E
:10261000B84205D1F1B22846BDE8FC4103F00EBB3B
:10262000BDE8FC81000004051FB5C1EBC10101EB51
:10263000410100EB8104616B09B9A16B61630391F6
:10264000012103AACDE90021029104F13C0394F891
:102650003220218E00F05EFD04B010BD70B5C1EBDC
:10266000C10101EB410100EB81018C6BA018202816
:1026700001D9FF2070BD002006E026181D5C0E4425
:10268000401C86F83C50C0B29042F6D3886B104490
:102690008863002070BD00002DE9F05F8B46204963
:1026A00082460025B1F90000984616461B4C401C96
:1026B00005E00EB1227852B16D1C2DB2183485425E
:1026C00001DC082DF5DB4FF0FF30BDE8F09F8946B7
:1026D000854201D1A9F8000000F04AFF07464FF6F5
:1026E000FF714046884500D30846D9F80410B94226
:1026F00007D9C91B814204D93918C9F8041003F05D
:10270000D1FC08EB0700C4E903B0C4E901A60A98AC
:102710006061012020702846D7E70000280B0020C8
:102720003800002070B51E4C92B00025266846F097
:1027300080562660246804F080541194194C266851
:1027400046F44046266024680DF1240C04F440440D
:102750001194012400940194022406948CE80D0045
:102760006605CDE907616846FFF786F900B1FEE727
:10277000FEF7BAFF00B1FEE70CA90F2081E8310097
:102780004FF4A0500F904FF48050109005210CA8EA
:10279000FEF7EEFF002800D0FEE712B070BD00008B
:1027A000403802400070004003F05CBB10B504F0FC
:1027B00045FD012801D004F035FABDE81040FEF7D0
:1027C0001FBF00001048016841F4700101600F480C
:1027D000016841F0010101600C4A002108321160DA
:1027E00002680B4B1A400260031D0A4A1A60026815
:1027F00022F48022026005480C300160024958062C
:10280000803908607047000088ED00E00038024021
:10281000FFFFF6FE103000240148FFF724BB000044
:10282000EC0A0020094A10B5074BC2E9003100212B
:10283000C2E9021010461161FFF7CEFABDE8104060
:102840000248FFF703BB0000000C0040EC0A002028
:10285000F0B50268234D244E244FDFF894C0254B79
:102860004FF0804EA84209D0704507D0B04205D045
:10287000B84203D0604501D0984203D122F07004E1
:102880004A682243A8421BD0704519D0B04217D0E5
:10289000B84215D0604513D0984211D0164CA042D2
:1028A0000ED0164CA0420BD0154CA04208D0154CAF
:1028B000A04205D0144CA04202D0144CA04203D137
:1028C00022F44074CA68224302608A68C2620A68BD
:1028D0008262A84201D0984201D1096901630121B5
:1028E0004161F0BD000001400004004000080040CC
:1028F000000C004000040140004001400044014041
:102900000048014000180040001C0040002000402A
:102910002DE9F041044690F8820048B3022A03D022
:10292000032A01D0052A23D16269A088127A00EB1C
:10293000C200081AC0F3C705A16805EBC50602204E
:1029400000EB4607C85FFEF709FAA168C853A16803
:10295000042000EB4607C85FFEF700FAA168C853E1
:10296000A168002001F8160029462046FFF75CFD0B
:102970000020BDE8F081000041F20263C81A9942CC
:1029800070D03ADC41F21803A1EB030099426BD0FE
:1029900019DC41F21003A1EB030099425AD00BDC81
:1029A000B1F5805F4ED06FF4805008184CD00428E9
:1029B0004CD0052870D14BE001284DD004284DD0D3
:1029C000062869D14CE040F2EA33A0F2EA3198429D
:1029D00052D008DCB0F51A7F48D0B0F57A7F47D0E6
:1029E000481C77D146E0012948D0B1F5FF7F47D098
:1029F000A1F58071FF396DD144E040F60323A0F6C4
:102A00000321984251D015DC40F6FF13A0F6FF11C8
:102A1000984242D007DC012838D0B0F5126F37D089
:102A2000481C57D136E0012939D0022939D0032971
:102A300050D138E008294DD2DFE801F04C393B3D58
:102A40003F41434500203FE001203DE002203BE0C4
:102A5000032039E0042037E0052035E0062033E08C
:102A6000072031E010E0FFE708202DE009202BE0EF
:102A70000A2029E00B2027E00C2025E00D2023E090
:102A80000E2021E00F201FE010201DE011201BE090
:102A9000122019E0132017E01CE0142014E0152088
:102AA00012E0162010E017200EE018200CE019208C
:102AB0000AE01A2008E01B2006E01C2004E01D208C
:102AC00002E01E2000E01F2000211160034901EBFD
:102AD000C00070470248106000207047547700081B
:102AE000000002069F2803D1087808B1014870470A
:102AF00000207047300009062DE9F0414FF6FF74C1
:102B000000F036FD204D06462049686883190022F2
:102B100015E00878C0070FD0086998421DD84869A9
:102B2000C0B1B6FBF0F700FB1767C01B03270861B5
:102B30000F70A04200D20446521C12B21831B5F9EF
:102B400000008242E5DD20466C6003F0ABFA00260F
:102B50000E4C13E002200870EEE7C01A0861E8E7A7
:102B60002078810707D520F002002070A26812B1FA
:102B7000E16860689047761C36B21834B5F90000F9
:102B80008642EDDDBDE8F08138000020280B0020F2
:102B900010B590F83910222903D0322901D0022033
:102BA00010BD8168B1F5805F11D00169002901680D
:102BB0001FD0496801F07F03816A4A1C82620B7052
:102BC000C18D491E0904090CC18518D02FE0026986
:102BD000816A002A0268526805D0D2B20A80816AEE
:102BE000491C8162ECE7C2F308020A80816A891CF1
:102BF000F7E74A68816A4B1C83620A70E0E7016864
:102C0000CA6822F02002CA6090F83910322910D028
:102C10000168CA6822F48072CA6001684A6922F0B9
:102C200001024A61012180F83910FFF734FB0020CE
:102C300010BD1221F7E700002DE9F04104460068BD
:102C40000169E26821F440510A4302612068C168C9
:102C500049F20C6291432369A268E5691A436369EA
:102C60002B431A430A43C2602068416921F4407231
:102C7000A16911434161E06964263225B0F5004F36
:102C8000484A494920681DD0884201D0904269D104
:102C9000FEF7A2FE00EBC00101EB00106168B04638
:102CA0008900B0FBF1F1B1FBF8F6FEF795FE00EB01
:102CB000C00101EB001061688900B0FBF1F7FEF77D
:102CC0008BFE68E0884201D0904219D1FEF784FE65
:102CD00000EBC00101EB00106168B0464900B0FB99
:102CE000F1F1B1FBF8F6FEF777FE00EBC00101EB66
:102CF000001061684900B0FBF1F7FEF76DFE18E0C7
:102D0000FEF754FE00EBC00101EB00106168B04615
:102D10004900B0FBF1F1B1FBF8F6FEF747FE00EB1E
:102D2000C00101EB001061684900B0FBF1F7FEF74C
:102D30003DFE00EBC00101EB001061684900B0FBF3
:102D4000F1F1B1FBF8F06FF01801484307EB800098
:102D500005EB0011B1FBF8F0216866F31F108860E5
:102D6000BDE8F081FEF722FE00EBC00101EB001090
:102D70006168B0468900B0FBF1F1B1FBF8F6FEF7EF
:102D800015FE00EBC00101EB001061688900B0FB8B
:102D9000F1F7FEF70BFE00EBC00101EB00106168DC
:102DA0008900CCE7001401400010014090F8391070
:102DB000122903D0322901D0022070478168B1F571
:102DC000805F016A0BD04A1C026202680978516078
:102DD000C18C491E0904090CC1840ED017E0098872
:102DE0000268C1F30801516001690029016A02D03B
:102DF000491C0162ECE7891CFBE70168CA6822F004
:102E00008002CA600068C16841F04001C1600020D2
:102E100070472DE9F0471D4690460F460446FEF7E1
:102E2000E9FB06465FEA08004FF000094FF0010891
:102E300008D030E0681C05D095B1FEF7DBFB801BA5
:102E4000A8420DD82068006837EA0000F2D127E0D8
:102E5000681C20D025B1FEF7CDFB801BA8421AD9F3
:102E60002068C16821F08001C1602068C16821F03C
:102E70002001C1602068C16821F48071C1602068B0
:102E8000416921F00101416184F8398084F838906A
:102E90000320BDE8F0872068006837EA0000D7D03B
:102EA0000020F6E738B5184800680068C04380067F
:102EB00022D44FF47A73012269461348FFF786F94A
:102EC000124A1088010417D441049DF800104FF0F5
:102ED000000304D50A290ED140F4004012E00D2968
:102EE0000ED0C0F30D04084D401CC83D80B22955DA
:102EF0001080C72800D913800348FFF773F838BD46
:102F000040F480401080F7E72C0A00202C000020BD
:102F1000FEE770472DE9F84F9946DDE90A5A174652
:102F2000D0F8E8310C9E6A4698470446009800287D
:102F300003D12079B84202D81F48BDE8F88F3EB1CE
:102F4000206800EB07100078C00701D01B48F4E7A9
:102F5000B9F1000F0BD00421206801EB07182A6893
:102F600050F80810914205D915482960E5E74FF05F
:102F70000060E2E7012101EB0711415C8AF80010D3
:102F80002068082101EB071150F8086041583246CB
:102F90004846FDF7B5FB9AF80000092809D12168D9
:102FA00051F808002968884203D2002109F8061068
:102FB000761C00202E60C0E7110009060100010602
:102FC000050004057047704730380A2801D20120F7
:102FD00070470020704770477047704770477047D0
:102FE00070477047016A0978002902D1812200F0F8
:102FF0005EBC70472DE9FE4F044640690025032260
:103000000689A0698A46B0F8088094F882000028F2
:1030100011D0002E7BD04FF00009CDF80090CDF8F4
:103020000490CDF8089070E0032A06D0052A60D0FD
:103030000B2A65D0FF20BDE8FE8F606850F836008F
:103040008169096800293FDB806ABAF1000F44D02A
:103050000178A1B3F0291CD8A26805EBC50112F8CC
:1030600011305B1CDBB202F811300278934210D1B0
:10307000A268204602F81190CDF80090CDF8049097
:103080006A462946CDF8089000F0BEF8E0B905225E
:103090003BE00078FC2819D105EBC5070621A068A4
:1030A00001EB470142182946204600F0ADF8002800
:1030B000A06810F8171003D021F0010102E007E02A
:1030C00041F0010100F817100B221EE00028FBD18F
:1030D0002946204602F0CEFDF6E70078FF2801D011
:1030E000FE28F1D1A06805EBC50110F81100C0075A
:1030F000ECE76A462946204602F048FEE4E706E08F
:103100006D1C761CEDB2B6B2032246458CD9002068
:1031100091E700002DE9FF4F81B01546DDE90E76FD
:10312000D0F8E83180466A460299984704460098EC
:10313000002803D12079A84203D82E4805B0BDE865
:10314000F08F2EB1206800EB05100078022828D0FF
:103150000121206801EB051110F801A0042101EB09
:10316000051146580C2101EB051150F80190386803
:1031700008B1B0423AD8D8F8242050460499904774
:1031800000900028DAD10820216800EB051B3A687E
:1031900051F80B000499FDF7B3FABAF1090F02D008
:1031A00009E01548CAE73868B04204D22368002213
:1031B00053F80B100A543E60B9F1000F07D02A46AD
:1031C000214640464B46984700900028B6D12068DB
:1031D00000EB05100078400706D5D8F8EC314046E2
:1031E0002A4602999847A9E70020A7E703483E60CE
:1031F000A4E70000110009060200010610000706FE
:1032000070470020704770472DE9F74F8AB0174686
:103210000A98406902894089D20002EBC1030A9AE8
:10322000C00000EBC1005268002600EB020A3546E0
:10323000DAF80000B34680680690985880690088E4
:10324000C0F30A003880BE70CDF810B0CDF814B0CD
:103250001820DAF8001000EB06105A4608580368E8
:10326000190C13F0FF0431D005EB0409B9F1400F3C
:103270002CD8A4F1010C012303EBDC0CCDF81CC00D
:1032800000880DF1200C0DF11C08CDE90223CDE9D9
:10329000008CC0F307209346024604AB0A98FFF760
:1032A00039FE18B1FF200DB0BDE8F08F07EBD50255
:1032B00005F00701121DCDE9002100232046CDF8BD
:1032C00008B01A4604A9FDF7F0FC4D460698761C96
:1032D000F6B20078B042B7D801206D1E00EBD500E1
:1032E000F8700020DFE730B40A88D3090F2B35D2FD
:1032F000DFE803F02D081818181818181818181FE8
:103300001F342600802A06D090F87F20002A25D07E
:1033100030BC00F046BB90F8801000291ED030BCB5
:1033200001F08EBF90F88220002A17D030BC00F048
:1033300013BC90F87E20002A10D030BC00F01CBDD9
:1033400090F88120002A09D030BC00F089BB026AC5
:103350001278002A02D030BC00F035BB30BC704778
:1033600070B5194D0C460888296B0860A1780020BB
:1033700019B12A6B0221D16001E0296BC860296B69
:103380008860296BE0780861218810A0FDF722F899
:10339000002006E021182B6B0A7900F11401401C73
:1033A0005A54E1788142F5D80A210748FDF772FFA7
:1033B00020B10BA0FDF70EF8002070BD0BA0FDF7AB
:1033C00009F8FF2070BD00006C0A00200D0A6D2D69
:1033D0003E636F625F69643D25780D0A000000005E
:1033E000B7A2CBCDCAA7B0DC0D0A0000B7A2CBCDE7
:1033F000B3C9B9A60D0A000010B504460420FEF7B3
:10340000C9FC0A484FF47A7114FB01F101224460AF
:1034100002804FF0E020026942F002020261416145
:10342000016941F00101016110BD0000240000208C
:1034300070B5044603F002FF01280CD0094D28881E
:10344000844203D3B4FBF0F003F072F92888B4FB94
:10345000F0F100FB11444FF47A706043BDE8704016
:1034600000F002B82400002070B54FF0E0250021E4
:103470006C69094AAB6952685043AA699A42FCD008
:1034800002D2A3EB020302E0A4EB02063344194488
:1034900013468142F1D370BD2400002010B50446CC
:1034A000054B002241F20301FFF76AF8D4F80C0241
:1034B0000021017010BD00000324000870472DE9B1
:1034C000FE439946DDE90A7615468846044602AB76
:1034D00000F07BF8A8BB012D02D0022D06D030E011
:1034E0009DF80810204602F0A9FB2AE09DF808008C
:1034F000C0EBC00000EB400004EB8000B0F97400AA
:10350000FDF72CFC01469DF80800C0EBC00000EB65
:10351000400004EB8000A0F874109DF8080085219D
:10352000C0EBC00000EB400004EB800080F82A10E4
:103530009DF80800C0EBC00000EB400004EB8000E9
:10354000C662CDE900764B4642462946204602F047
:103550006DFC002800D0FF20BDE8FE8303490A6807
:103560005206FCD5C2B24A6070470000001001400C
:10357000054A1168D068814201D9081A02E09368AF
:103580000B44181AD1607047400000200068007892
:10359000704710B50023C3EBC30404EB440400EBF5
:1035A000840494F82A402CB15B1C13F0FF03F2D082
:1035B000FF2010BD1370C3EBC30202EB420200EB0D
:1035C000820080F82910002010BD70B50024C4EBE3
:1035D000C40505EB450500EB850595F82A606EB13D
:1035E000852E0BD095F828608E4207D195F829508A
:1035F000954203D103B11C70002070BD641C14F00F
:10360000FF04E4D0FF2070BDC1EBC10101EB41011B
:1036100000EB8100416B21B1806B081A1060002023
:1036200070470020FAE70000F8B505461C4B002261
:1036300041F21701FEF7A4FF002685F8E061344649
:1036400016E0D5F8A00030F824000004000C0DD0DE
:1036500000EB4001C1EBC013124A214628460096F8
:10366000FFF71AF8D5F8A41021F81400641CE4B28E
:10367000D5F89C000078A042E3D8D5F8A8000088CF
:1036800000280BD000EB4001C1EBC013064A00211B
:1036900028460093FFF700F8A5F8AC00F8BD00003D
:1036A000B52300087F0C00083D25000870B50546CD
:1036B00000240BE0D5F8A40030F91400FDF74EFB10
:1036C000D5F8A41021F81400641CE4B2D5F89C00CD
:1036D0000078A042EED835F9AC0FFDF73FFB28800B
:1036E00070BD00002DE9F8431746DDE90896C1EBEF
:1036F000C102002502EB4202984600EB8204022E32
:103700002BD0032E29D0042E27D0052E25D0B4F996
:103710007400FDF723FBA4F8740084F82870A4F863
:10372000308084F8329084F82A6084F82B506563E6
:10373000A56384F85C5084F85D5084F85E5025667B
:10374000656684F8685084F8695084F86A5084F893
:1037500073500020A567BDE8F883034B034A00952A
:10376000FEF79AFFD7E70000D8B80500A9250008A2
:1037700010B50446FFF758FF2046BDE8104000F0A2
:10378000A9B810B50446FFF791FF2046BDE81040E8
:1037900000F0DEB8C1EBC10130B501EB410100EB37
:1037A00081018C6BA018202802D84D6BA84201D94A
:1037B000FF2030BD002006E025180D4495F83C5050
:1037C0001D54401CC0B29042F6D3886B10448863ED
:1037D000002030BD1CB5FDF71BFF08230222192174
:1037E0004FF4B470FEF79EFF4FF4E13002F004FE98
:1037F000B420FFF701FEFEF79FFDFEF74FFD00200E
:1038000006234FF4E0224FF4A0010090FDF716F9D3
:1038100010A0FCF7DFFD0021164802F03FFB00215D
:10382000144802F0EDFB0521124802F0E9FB40F2DA
:1038300083316320FEF7F6FF0F490120CDE9000137
:10384000002380220DA1104803F0CCFC03F0D0F837
:1038500000201CBDBBB6D3ADCAB9D3C32048482095
:1038600043414E20C7FDB6AFB2E2CAD4A3A10D0AB0
:1038700000000000B0060020000000207374617298
:10388000745F7461736B0000496100080EB541F408
:10389000E061ADF8001001218DF8021000218DF8D3
:1038A0000310D0F8E4016946FFF75AFD0EBD0EB5CE
:1038B0000023ADF800308DF802308DF8042002238B
:1038C0008DF805108DF80330D0F8E4016946FFF754
:1038D00047FD0EBD38B504461B4B002241F20C01DA
:1038E000FEF74EFE184B002241F20D012046FEF776
:1038F00047FED4F83C010088002823D0D4F84011BA
:10390000097800291ED000EB4001C1EBC0130F4A1B
:10391000002120460093FEF7BFFEA4F834010021E9
:10392000601890F8B4200F2A08D0226812788A42D2
:1039300004D0D4F84021127880F84421491CC9B23F
:103940008029EDD338BD0000F1230008890D00085F
:1039500010B50446B0F93401FDF700FAA4F83401BB
:1039600010BD10B586B0202204AC04920094012250
:1039700005ABCDE90132C1EBC10101EB410100EB27
:103980008104039204F13C0394F83220218EFFF766
:10399000C1FA002803D1049860630020A06306B038
:1039A00010BD38B5CA78082A0CD111F8042B02F0E2
:1039B0007F0531F8022B11F8013B0091D0F83C4211
:1039C0002946A04738BD70B5044690F87C000A46E9
:1039D0007F2803D0052801D004283FD1517919B19F
:1039E00023681B78994239D11179802925D009DCC7
:1039F00001291CD0022931D17F2801D005282DD1E1
:103A0000042126E081291ED0822927D12046FFF7F4
:103A1000BDFDD4F8982005460AB12046904721689C
:103A2000FF2008702946204602F038FA10E07F286F
:103A300001D0042812D105210BE0052801D004286B
:103A40000CD17F2105E0D4F8941009B120468847B5
:103A500000212046BDE8704002F0D2BA70BD0000DF
:103A60002DE9FE43044608784FF0000800F07F0778
:103A70008878012818D00879E51900F07F06D4F875
:103A80004001007885F8440195F8B400B04207D0B1
:103A9000D4F8DC31324639462046984785F8B46080
:103AA00095F8B40028B329E020680078B8421ED108
:103AB00000F5E060ADF8000001228DF803208DF8DC
:103AC000028094F87C008DF8040094F8E0314146BF
:103AD00033B140F080008DF8040084F8E01101E07B
:103AE00084F8E0216946D4F8E401FFF739FCBDE829
:103AF000FE83D4F8D82139462046904795F8B40083
:103B00000F28F4D000251FE0D4F8A00050F82500BD
:103B1000C0F307418F4215D186B2D4F8A40030F922
:103B20001500FDF71BF906EB4600C0EBC613094A6A
:103B300029462046CDF80080FEF7AEFDD4F8A4104B
:103B400021F815006D1CEDB2D4F89C000078A84255
:103B5000DAD8CCE77F0C00082DE9F04F0E4604467A
:103B600002220021B07889B00D4610B101287CD026
:103B7000BFE0D4F814C0A369BCF804009F88A0B9C2
:103B8000B7E0022A02D0042A0FD111E06368B6F828
:103B9000008053F830309B691B68434501D10422F3
:103BA00003E06D1C401CEDB280B2B842E9D9A0E040
:103BB000BCF806000590C00000EBC50006906268E6
:103BC0000027BA4610588068079040E0CDF80CA056
:103BD000CDF810A0069A636850469A58182303EB54
:103BE0000713D2585FEA020970D099F800205FEA03
:103BF00002082AD0F37801EB080BBBEBC30F24D8E3
:103C000003AACDE9002001F00702824606EBD101AC
:103C1000029000234046091DFDF747F8A8F1010076
:103C2000012101EBE00008AA00920890CDE901A172
:103C3000D9F8000003ABC0F30722010C2046FFF7C0
:103C400069FA002842D10BF0FF017F1CFFB20798F0
:103C50000078B842BAD8E06808B36268059952F8AB
:103C60003110896D0E88D6B100E012E030F91500F0
:103C7000FDF774F806EB4600C0EBC613CDF800A0C4
:103C8000294620462269FEF707FDE16821F8150064
:103C90002FE06069A26901210089138938BB28E0FF
:103CA000012904D0042912D0052920D156E06268E8
:103CB000378852F8302092691268BA4201D1042143
:103CC00015E06D1C401CEDB280B210E04CE0616864
:103CD00051F830108A6A1178FD2907D0FC290CD0E0
:103CE000C8B2FF281AD0FE2918D03DE0052198421D
:103CF000D6D9002009B0BDE8F08FA16805EBC50258
:103D000011F81210C907F1D005EBC5010622A06811
:103D100002EB41010144D4F8E4012AE0A16805EB7B
:103D2000C506022000EB4607C85FFDF717F8A1683B
:103D3000C853A168042000EB4607C85FFDF70EF8E2
:103D4000A168C853A06810F8161021F0010100F80E
:103D5000161029462046FEF767FBCAE76A46294641
:103D60002046FFF751FA08B1FF20C3E76946D4F8AF
:103D7000E401FFF7F5FABCE72DE9F04F8BB0002620
:103D800004468DF8106001960D464069A16982468F
:103D900000888946B1F800C003273146E0B104230A
:103DA000604517D8626803EBC00812F80880B8F1C4
:103DB000010F78D952F83020B5F800809269126866
:103DC000424502D10127039130E0491C401CC9B291
:103DD00080B2E5E7032F29D1BAF80200B9F802C092
:103DE000002100285FD0042360451DD8626803EBE2
:103DF000C00812F80880B8F1030F7DD952F83020BE
:103E0000B5F80080926A1268424508D10391616852
:103E1000022751F83000806B0078019006E0491CC1
:103E2000401CC9B280B2DFE7032F65D0E8784FF0BD
:103E30000069082804D0CDE9006900233A464EE322
:103E400004AB3A4620460399FFF7BFFBE8B9012FC0
:103E500002D0022F0DD018E09DF81010C1EBC10167
:103E600001EB410104EB810191F82A10042921D0D2
:103E70000BE09DF81010C1EBC10101EB410104EB17
:103E8000810191F82A10052914D029794909DFF810
:103E90007084DFF870A405F108020DF1180B099287
:103EA000072976D200E027E0DFE801F00BFDFCFBFC
:103EB000FAF9F8002979802901D00621E7E70421E1
:103EC000E5E7012F02D000287ED028E10028FCD1B0
:103ED0009DF81000C0EBC00000EB400004EB800137
:103EE00091F82A00022801D0012000E000200028DB
:103EF000EBD105E0FFF7E3FA0BB0FF20BDE8F08F50
:103F0000B1F97400411C1FD0FCF728FF01469DF851
:103F10001000FD4BC0EBC00000EB400004EB800044
:103F2000FA4AA0F8741000969DF810102046FEF78B
:103F3000B3FB01469DF81000C0EBC00000EB400051
:103F400004EB8000A0F874109DF81000C0EBC000D6
:103F500000EB400004EB8000018E029190F832806B
:103F600090F82B102879C0F30012914202D0CDE9CD
:103F7000008AFDE3C0F34200C0F107026B1D059209
:103F80009DF810102046FEF769FB18B1CDE90089B5
:103F9000EFE7EEE39DF810002021C0EBC00000EB3E
:103FA000400004EB800090F82B0041EA00108DF8EF
:103FB0001800012059460E54401C0828FBD306ABBC
:103FC00039462046039A00E020E001F0F3FE9DF818
:103FD0001000C0EBC00000EB400004EB800090F844
:103FE0002B1071B1002180F82B102879C0077DD0EB
:103FF0009DF810102046FEF717FB20B1CDE9008098
:10400000B6E30121EFE79DF81010FCE39DF81000E6
:10401000C0EBC00000EB400004EB800191F82A00E7
:10402000032801D0012000E00020002877D1B1F959
:104030007400411C1FD0FCF791FE01469DF8100052
:10404000B14BC0EBC00000EB400004EB8000AF4A76
:10405000A0F8741000969DF810102046FEF71CFB87
:1040600001469DF81000C0EBC00000EB400004EBDF
:104070008000A0F874109DF81000C0EBC00000EBA9
:10408000400004EB8000018E029190F8328090F89D
:104090002B102879C0F30012914205E0F8E3CBE33E
:1040A00083E368E259E149E07FF461AFC0F3420085
:1040B000C0F107026B1D05929DF810102046FEF717
:1040C000CDFA00287FF462AF9DF81000C0EBC0006D
:1040D00000EB400004EB800191F82B0000B30020BE
:1040E00081F82B002979C9071CD000E064E39DF812
:1040F0001000C0EBC00000EB400004EB8000B0F902
:104100007400FCF72BFE01469DF81000C0EBC000C8
:1041100000EB400004EB8000A0F8741001E2EEE038
:104120000120DDE7602141EA00108DF81800012030
:1041300059460E54401C0828FBD31BE2012F01D026
:10414000B8B3C2E6B5F80510029195F807A040B1E2
:1041500004AA39462046FFF71CFA20B1CDE900A891
:1041600006E35146EFE30220CDE900A0DDE902328B
:104170009DF810102046FFF7B5FA28794108C907C5
:1041800027D0C0F38100C0F104029DF81000059211
:10419000C0EBC00000EB400004EB800042639DF8E0
:1041A00010102046099BFEF759FA18B1CDE900A975
:1041B000DEE234E09DF810102046FEF735FA10B12B
:1041C000CDE900A0D4E29DF81010204601F036FDA4
:1041D00013E0C00711D0287A697AEA7A00EB01204F
:1041E000A97A090401EB0261421805929DF81010AA
:1041F000204601F0F7FE0028D8D160208DF8180085
:1042000002988DF81900000A8DF81A008DF81BA08D
:10421000042059460E54401C0828FBD38DE79DF816
:104220001000C0EBC00000EB400004EB800191F8EF
:104230002A00022801D0012000E0002000285ED1E1
:10424000B1F97400411C1FD0FCF788FD01469DF8B0
:1042500010002D4BC0EBC00000EB400004EB8000D1
:104260002A4AA0F8741000969DF810102046FEF718
:1042700013FA01469DF81000C0EBC00000EB4000AF
:1042800004EB8000A0F874109DF81010C1EBC10081
:1042900000EB400004EB8000028E029290F8328026
:1042A0002A7990F82B00C2F3001290427FF45FAE9F
:1042B00005AA2046FFF7A8F9059A002A3FF415AF92
:1042C0009DF81000072AC0EBC00000EB400004EB93
:1042D000800191F82B0021D9F0B1002081F82B004A
:1042E00000018DF818009DF810100BF10103072252
:1042F0002046FFF74FFA00287FF448AE3AE15CE22F
:104300002100000800000305D8B80500A925000811
:104310002046019990474FE20120DFE7B0B100202D
:1043200081F82B000001C2F1070340EA4300401C62
:104330008DF818009DF810100BF101032046FFF7CF
:1043400029FA0028D8D15946059802E00120E7E76C
:104350000E54401C0828FBD30CE1012F01D0E0B320
:10436000B3E5B5F80510ED798A4650B104AA39468F
:104370002046FFF70EF930B15346CDE900583A46D2
:104380005DE50B46F9E70320CDE9005053469DF863
:1043900010102046039AFFF7A5F99DF8101020464B
:1043A000FFF7DFFA20B1CDE9005053463A4646E523
:1043B00005AA9DF810102046FFF726F9059A042A51
:1043C00016D941208DF818008DF819A04FEA1A204F
:1043D0008DF81A008DF81B5000E02BE08DF81C20A2
:1043E000100A8DF81D00100C8DF81E00100EB3E29F
:1043F000C2F10400432141EA80008DF818008DF8D5
:1044000019A04FEA1A208DF81A008DF81B500BF1F5
:1044100004039DF810102046FFF7BCF908B153467D
:10442000A8E105985946001D01E00E54401C0828DB
:10443000FBD335E19DF81000C0EBC00000EB40005D
:1044400004EB800191F82A00032801D0012000E04C
:104450000020002884D1B1F97400411C1FD0FCF762
:104460007DFC01469DF81000FB4BC0EBC00000EB4B
:10447000400004EB8000F94AA0F8741000969DF803
:1044800010102046FEF708F901469DF81000C0EB19
:10449000C00000EB400004EB8000A0F874109DF811
:1044A0001000C0EBC00000EB400004EB8000B0F84F
:1044B00030A090F8328028794108C9073DD0C0F378
:1044C0008100C0F1040205929DF810102046099B5E
:1044D000FEF7C4F820B153463A46CDE9008911E20F
:1044E0009DF81000C0EBC00000EB400004EB800022
:1044F000B0F97400FCF732FC01469DF81000C0EBE7
:10450000C00000EB400004EB8000A0F874109DF8A0
:1045100010000599C0EBC00000EB400004EB8000E8
:1045200041639DF810000121C0EBC00000EB40008A
:1045300004EB800080F82A1071E1C00711D0287ABE
:10454000697AEA7A00EB0120A97A090401EB026199
:10455000421805929DF81010204601F043FD0028F6
:10456000B9D160208DF81800012059460E54401C26
:104570000828FBD37AE2012F01D0E0B31DE1002827
:10458000FCD19DF81000C0EBC00000EB400004EB34
:10459000800191F82A00032801D0012000E00020CA
:1045A0000028EBD1B1F97400411C1FD0FCF7D6FBF9
:1045B00001469DF81000A84BC0EBC00000EB400086
:1045C00004EB8000A54AA0F8741000969DF8101026
:1045D0002046FEF761F801469DF81000C0EBC000D0
:1045E00000EB400004EB8000A0F874109DF8101060
:1045F000C1EBC10000E05AE000EB400004EB80009A
:10460000028E029290F832802A7990F82B00C2F341
:10461000001290427FF4ABAC05AA2046FEF7F4FFEF
:104620009DF81010059AC1EBC10000EB400004EBAF
:104630008000072A90F82B004FEA00101BD98DF854
:1046400018000BF1010307222046FFF7A3F800280A
:104650007FF49CAC9DF81000C0EBC00000EB400064
:1046600004EB800090F82B1019B1002180F82B107A
:10467000FCE10121FAE7C2F1070340EA4300401CD4
:104680008DF818000BF101032046FFF783F800288E
:10469000DED15946059800E00E54401C0828FBD393
:1046A00006AB39462046039A01F084FBABE49DF843
:1046B0001000C0EBC00000EB400004EB800191F85B
:1046C0002A00022801D0012000E00020002874D137
:1046D000B1F97400411C1FD0FCF740FB01469DF866
:1046E00010005D4BC0EBC00000EB400004EB80000D
:1046F0005A4AA0F8741000969DF810102046FDF755
:10470000CBFF01469DF81000C0EBC00000EB40005D
:1047100004EB8000A0F874109DF8101005AAC1EBFE
:10472000C10000EB400004EB8000B0F8308090F84E
:1047300032502046FEF768FF059A002A3FF4D5ACB8
:104740009DF81010072AC1EBC10000EB400004EBFC
:10475000800090F82B004FEA00100FD98DF8180058
:104760000BF1010307222046FFF714F898B97DE109
:1047700031E2FDE3CDE900593A46C3E0C2F1070357
:1047800040EA4300401C8DF818000BF1010320465D
:10479000FFF700F808B14346ECE75946059800E0FA
:1047A0000E54401C0828FBD360E1E97AAD68012F64
:1047B00061F31F6502D028B1B0E251E100283FF457
:1047C00075AFABE29DF81000C0EBC00000EB4000FD
:1047D00004EB8000B0F97400FCF7C0FA01469DF8C4
:1047E0001000C0EBC00000EB400004EB8000A0F81C
:1047F00074109DF810008021C0EBC00000EB400059
:1048000004EB800000E0BDE080F82A109DF8100065
:10481000C0EBC00000EB400004EB8000C5629DF8D7
:104820001000C0EBC00000EB400004EB8000826F82
:10483000002A7FF46DAD71E22979012F01F0030A9E
:104840000ED0BAF1000F7DD0BAF1020F7AD0BAF1D2
:10485000010F3FF44AAC03E1D8B80500A9250008D0
:10486000BAF1000F09D0BAF1010F78D0BAF1020FF6
:104870006BD0BAF1030F68D050E2B5F80510EE79AD
:10488000894630B1287A7F2808D9F7480B4636E0A8
:1048900075E20B46CDE900683A4633E004AA394692
:1048A0002046FEF776FE08B14B46F3E70520CDE93A
:1048B00000604B469DF810102046039AFEF712FF49
:1048C0002879C0F380019DF81000C0EBC00000EB18
:1048D000400004EB800080F85C109DF81000297AFD
:1048E000C0EBC00000EB400004EB800080F85D10DE
:1048F0009DF810102046FFF734F820B14B46CDE963
:1049000000603A4655E205AA9DF810102046FEF7D1
:104910007BFE9DF810100598C1EBC10101EB410130
:1049200004EB81010866C2218DF818108DF81990EA
:104930004FEA19218DF81A108DF81B608DF81C00B4
:10494000010A03E0FBE0AEE109E01FE08DF81D1075
:10495000010C8DF81E10000E8DF81F00BCE300281E
:104960007ED19DF81010C1EBC10000EB400004EBBC
:10497000800090F82A00052801D0012000E00020E6
:104980000028EDD1204601F059F9C7E10028E7D110
:104990009DF81000C0EBC00000EB400004EB80016C
:1049A00091F82A00052801D0012000E0002000280D
:1049B000D6D1B1F97400411C1FD0FCF7CFF90146E4
:1049C0009DF81000A94BC0EBC00000EB400004EBC9
:1049D0008000A74AA0F8741000969DF81010204699
:1049E000FDF75AFE01469DF81000C0EBC00000EB39
:1049F000400004EB8000A0F874109DF81000BAF19C
:104A0000020FC0EBC00000EB400004EB8000018E01
:104A1000029190F83210019141D1A97980F85D108E
:104A2000687905AA00F07F039DF810102046FEF774
:104A3000EBFD0598D8B99DF81000C0EBC00000EB65
:104A4000400004EB800090F8681099420FD190F874
:104A50006910C12040EA81008DF81800012000E0B3
:104A60009CE059460E54401C0828FBD334E39DF8C3
:104A70001000C3EBC302C0EBC00000EB400004EB2E
:104A80008000416E114481639DF81000C0EBC000AE
:104A900000EB400004EB8000406B81427ED89DF823
:104AA00010000125C0EBC00000EB400004EB8000CB
:104AB000816B416621E080F8685005AA9DF81010CE
:104AC0002046FEF7A1FD0598072823D98DF8185038
:104AD0000BF1010307229DF810102046FEF75AFE45
:104AE00018B10199CDE9001929E106AB39462046F4
:104AF000039A01F05FF96D1CEDB29DF81000C0EB58
:104B0000C00000EB400004EB800090F85D10A9426B
:104B1000D1D245E345F080008DF818005D466B1C4E
:104B20009DF810102046059AFEF734FE0028D8D1D3
:104B3000059800E02E54401C0828FBD30BE1002808
:104B40002CD19DF81000C0EBC00000EB400004EB3E
:104B5000800090F82A10042901D0012100E00021F2
:104B60000029EDD1018E029190F832100191B0F937
:104B70007400411C21D0FCF7F1F801469DF81000AB
:104B80003A4BC0EBC00000EB400004EB8000384A19
:104B9000A0F8741000969DF8101000E067E1204620
:104BA000FDF77AFD01469DF81000C0EBC00000EB58
:104BB000400004EB8000A0F87410BAF1000F03D09D
:104BC000A8797F2803D820E0287A7F2804D92649AD
:104BD0000198CDE90001B2E02879C0F380019DF889
:104BE0001000C0EBC00000EB400004EB800080F838
:104BF0005C109DF81000297AC0EBC00000EB40006B
:104C000004EB800080F85D1050E09DF8101005AABC
:104C1000C1EBC10101EB410104EB810181F85D00B1
:104C200068799DF8101000F07F032046FEF7ECFC39
:104C30000598F8B99DF81000C0EBC00000EB4000EB
:104C400004EB800090F86810994213D190F8691035
:104C5000C12040EA81008DF81800012059460E5409
:104C6000401C0828FBD337E202000405D8B8050031
:104C7000A92500089DF81000C3EBC302C0EBC000DB
:104C800000EB400004EB8000416E114481639DF80D
:104C90001000C0EBC00000EB400004EB8000406B54
:104CA000814203D90199CDE9001848E09DF8100030
:104CB0000125C0EBC00000EB400004EB8000816BDD
:104CC00041661FE080F8685005AA9DF81010204644
:104CD000FEF79AFC0598072821D98DF818500BF19A
:104CE000010307229DF810102046FEF753FD00280F
:104CF0007FF4F7AE06AB39462046039A01F05AF826
:104D00006D1CEDB29DF81000C0EBC00000EB400040
:104D100004EB800090F85D10A942D3D240E245F048
:104D200080008DF818005D466B1C9DF81010204621
:104D3000059AFEF72FFD40B10198CDE90009DDE9A4
:104D400002313A462046FFF7D5B8059800E02E54C8
:104D5000401C0828FBD306AB39462046039A01F0D5
:104D600029F80598C0F107019DF81000C0EBC000BC
:104D700000EB400004EB800080F8691010E24FF077
:104D8000100A012F02D0002871D137E1F0B3287941
:104D900010F0010F6BD1B5F805B095F8079004AA93
:104DA00039462046FEF7F5FB20B1CDE900985B4679
:104DB0003A462EE20420CDE900905B469DF81010A3
:104DC0002046039AFEF78EFC9DF810000121C0EBEF
:104DD000C00000EB400004EB800080F86A102879E6
:104DE000C0F380019DF81000C0EBC00000EB400054
:104DF00004EB800080F85C102879800714D5287AAD
:104E0000697A00EB0120A97A090400E020E0EA7A3F
:104E100001EB026101449DF81000C0EBC00000EB03
:104E2000400004EB80000166A0208DF818008DF88A
:104E30001CA08DF819B04FEA1B208DF81F608DF86B
:104E40001A008DF81E608DF81B908DF81D6043E1EF
:104E50009DF81000C0EBC00000EB400004EB8000A8
:104E600090F86A10012903D002294ED098E1B6E0EB
:104E7000B0F97400411C1FD0FBF770FF01469DF88C
:104E80001000EC4BC0EBC00000EB400004EB8000D6
:104E9000E94AA0F8741000969DF810102046FDF71E
:104EA000FBFB01469DF81000C0EBC00000EB40008A
:104EB00004EB8000A0F87410287900F07F08000649
:104EC0009DF81000C0EBC00000EB400004EB800038
:104ED00090F8681001F1010105D541457DD102210D
:104EE00080F86A100DE1414578D180F868804AE188
:104EF0009DF81000C0EBC00000EB400004EB800008
:104F000090F83220CDE9002992E12979C90766D0CD
:104F1000B0F97400411C1FD0FBF720FF01469DF83B
:104F20001000C44BC0EBC00000EB400004EB80005D
:104F3000C14AA0F8741000969DF810102046FDF7A5
:104F4000ABFB01469DF81000C0EBC00000EB400039
:104F500004EB8000A0F8741028799DF81010C0F3BD
:104F60008202C1EBC10000EB400004EB800300E0D3
:104F700049E1C2F1070220466C33FDF76FFB0028C0
:104F8000B6D19DF81000C0EBC00000EB400004EB70
:104F90008000016E49B1826B914206D090F83220B8
:104FA000CDE9002844E13A4633E1A1208DF818000C
:104FB000012059460E54401C0828FBD306AB394645
:104FC0002046039A00F0F6FE9DF810102046FDF7EB
:104FD0002BFB00283FF417A802E0A9E0DDE00FE179
:104FE0009DF81010C1EBC10101EB410104EB8101FF
:104FF00091F83220CDE900200B8ED4E79DF8100007
:10500000C0EBC00000EB400004EB8000B0F974007E
:10501000411C1FD0FBF7A2FE01469DF81000854BF6
:10502000C0EBC00000EB400004EB8000824AA0F817
:10503000741000969DF810102046FDF72DFB0146D8
:105040009DF81000C0EBC00000EB400004EB8000B6
:10505000A0F874109DF81010C1EBC10000EB4000E7
:1050600004EB800393F86A0020B101283BD00228AA
:105070007DD095E02879C00734D1012083F86A00FB
:105080002879C0F380019DF81000C0EBC00000EB50
:10509000400004EB800080F85C102879800712D56E
:1050A000287A697AEA7A00EB0120A97A090401EBEF
:1050B000026101449DF81000C0EBC00000EB40000D
:1050C00004EB80000166A3208DF8180001205946EA
:1050D0000E54401C0828FBD306AB39462046039AE1
:1050E00000F068FE5CE0287900F07F08000693F885
:1050F000680000F1010042D5404519D1022083F833
:105100006A009DF81000C0EBC00000EB400004EB0B
:10511000800080F868809DF810006968C0EBC000CE
:1051200000EB400004EB800040F86B1FA968416071
:10513000A2208DF818009DF8100006ABC0EBC0004F
:1051400000EB400004EB8000394690F868008DF8D1
:1051500019008DF81AA007968DF81B602046039A57
:1051600000F028FE9DF81000C0EBC00000E01BE03E
:1051700000EB400004EB800080F8686010E04045E0
:105180000BD183F868806B1D07229DF81010204614
:10519000FDF764FA00287FF4ABAEB8F1100FC7D06A
:1051A0000BB00020BDE8F08F2879C20728D0C0F3EB
:1051B0008200C0F1070220466C33FDF74FFA002849
:1051C000E9D19DF81000C0EBC00000EB400004EBFB
:1051D0008000016E19B1826B91427FF4DFAEA12095
:1051E0008DF81800012059460E54401C0828FBD3A6
:1051F00006AB39462046039A00F0DCFDFEF775BF8A
:105200000023FFF747BB0D4930B1CDE90061002312
:105210003A462046039996E59DF81000C0EBC00081
:1052200000EB400004EB800090F83220CDE9002133
:10523000038EB8E6D8B80500A925000801000405CA
:1052400070B5D0F8D0110446884794F88200002841
:1052500009D001212046FDF7CDFE0546D4F8D41132
:1052600020468847284670BD2DE9F041184E0F466C
:105270000446F5683068001D01F0D0F838B9306890
:1052800090F82C1001208840316981433161601C05
:1052900007D137B13168BDE8F0410E48091D01F072
:1052A000F5B830682C44AC424460316805D2B06B2C
:1052B000BDE8F041091D01F0D1B8706B091D01F086
:1052C000CDF8B06A844200D2B462BDE8F08100003B
:1052D000F0080020F80E00202DE9F041054601F00D
:1052E000E1F82D4EB068401CB06030682B4F10B113
:1052F000706930B32BE03560B068012827D10024F5
:1053000004EB840007EB800001F09AF8641C202C69
:10531000F6D3234801F094F82148143001F090F8B6
:105320001F48283001F08CF81D483C3001F088F807
:105330001B48503001F084F8194870631430B06392
:1053400005E03068E96AC06A884200D83560706A52
:105350000121401C70626864E86A3269814011432F
:10536000316100EB800007EB8000291D01F08EF811
:1053700001F0D4F8706900280CD03068E96AC06A7E
:10538000884207D207494FF080500860BFF34F8F23
:10539000BFF36F8FBDE8F081F0080020280C0020DB
:1053A000A80E002004ED00E010B501F07BF80E4CD3
:1053B0002068A0B90D4801F043F80C48143001F002
:1053C0003FF80A48E06014302061002210210520D7
:1053D00001F03EFC206010B105A101F075F9BDE8B7
:1053E000104001F09BB800002C0900200C0F002099
:1053F000546D72510000000070B5124E124D1CE049
:1054000001F040FB306820B1002402F045F8A4B957
:1054100001E00124F9E701F045F8F068C468201DB7
:1054200000F0FCFFA868401EA8606868401E686025
:1054300001F074F8204600F052F868680028DFD1C7
:1054400070BD0000E40E0020F008002030B4026CB3
:105450000B46002A0BD0C1681144C1604468A142C8
:1054600001D30168C16030BC1846FBF749B930BCB4
:1054700070472DE9F041856B174604460026026C03
:1054800082B1C7B1E068FBF73BF9E168206C091A0B
:10549000E1602268914202D26168081AE060022F3E
:1054A00016D017E02068A8B9606801F04FFF0646E3
:1054B000002060600EE0A068FBF722F9216CA06874
:1054C0000844A0606168884204D32068A06001E0BD
:1054D00005B16D1E6D1CA5633046BDE8F08110B5A9
:1054E0000446006B01F04CF82046BDE8104001F086
:1054F00047B8000010484FF43841420706D0C01D9D
:105500000D4920F00700411AC1F538410B4A00232C
:105510000144C2E900030839103A21F00701116083
:105520004B600B600B1AC0E9001393604FF0004012
:105530005360D06070470000340F00205C090020E9
:10554000074E4FF08054074DFFF756FF3068012893
:10555000FAD92C60BFF34F8FBFF36F8FF4E70000D1
:10556000280C002004ED00E02DE9F047DDE9098476
:105570000E461746824691009946089DA522206B4B
:10558000FBF735F96FF00301206B01EB870108444D
:1055900020F00707780705D040F22B3219A11EA092
:1055A000FAF718FF00202218315C82F83410315CC1
:1055B00011B1401C1028F6D3002684F84360202D3A
:1055C00000D31F25E562C4E91356201D00F043FFF8
:1055D00004F1180000F03FFF2461C5F1200064626F
:1055E000A061666584F858604A465146384600F026
:1055F00003FB2060B8F1000F01D0C8F80040BDE8FF
:10560000F08700002E2E5C4672656552544F535C45
:105610007461736B732E63004572726F723A2573F7
:105620002C25640D0A00000030B5114900E0114638
:105630000A688242FBD34B685C18844203D14068FD
:1056400018444860084643681C18944209D1084C25
:10565000103C2468A24209D052681A4442600A6889
:1056600012680260814200D0086030BD0460F9E732
:105670005C09002070B5002441600B4D006191422F
:1056800006D8D11A8269914206D2011D286907E025
:105690009A4203D2994201D3012403E0011DE86834
:1056A00000F0DCFE204670BD2C09002010B5044639
:1056B00000F0F8FEA06B20B1002400F02FFF204680
:1056C00010BD0124F9E700002DE9F34100980F46D1
:1056D0000026846C2CB940F6CE1216A11AA0FAF757
:1056E00079FEA06BE16B884205D340F6CF1211A181
:1056F00015A0FAF76FFEA06BE16B88420CD294F90B
:1057000045503A4669462046FFF7B3FE0646681CF8
:1057100005D06D1C84F845503046BDE8FC81606AB8
:105720000028F9D004F1240001F06AFE0028F3D02B
:105730000126F1E72E2E5C4672656552544F535C8C
:1057400071756575652E63004572726F723A2573C7
:105750002C25640D0A000000F8B5054614480E46D5
:10576000C068C068C468201D00F058FEE0690128C8
:1057700017D1A0692B46411932462046FFF77AFF20
:1057800078B100200346014600902A46204601F0E9
:1057900069FF30B907494FF4027201F11800FAF7B6
:1057A00019FE616A01B02046BDE8F04008470000DC
:1057B0002C090020C875000870B586B02F4E53E044
:1057C0000198002806DADDE90301029A9047019862
:1057D000002849DB039C606910B1201D00F01EFE0B
:1057E00005A800F0A7F8054601980A283CD2DFE892
:1057F00000F00505053B273805053B270298A16900
:10580000034601442A462046FFF734FF00282BD0E8
:10581000616A20468847E069012825D10020009070
:105820000298A169002342181946204601F01AFF88
:10583000D0B940F2213212A117A0FAF7CBFD13E044
:105840000298A06128B94FF44E720DA112A0FAF788
:10585000C1FDA0692B4641191A462046FFF70AFFF1
:1058600002E0204600F08CFE00231A4601A93068B1
:1058700001F02AFA0028A3D106B070BD2C0900203F
:105880002E2E5C4672656552544F535C74696D658B
:1058900072732E63000000004572726F723A2573B6
:1058A0002C25640D0A000000F8B50D46064601F0EF
:1058B000E9F8684600F03EF80446009810B101F09F
:1058C000EBFDF8BD1148ADB101690968D9B10025FA
:1058D000311B2A46006800F009FF01F0DDFD0028B9
:1058E000EFD10B494FF080500860BFF34F8FBFF3EB
:1058F0006F8FF8BDA642EBD801F0CEFD21463046B1
:10590000FFF72AFFF8BD0125E2E700002C0900207F
:1059100004ED00E00648416B096829B1416BC96894
:10592000C9684968816270474FF0FF31FAE70000AB
:10593000F008002070B5054601F08EFC064E0446C6
:10594000B068844203D200F009F8012000E0002092
:1059500028602046B46070BD2C090020F8B5184EB0
:1059600026E0C068C4680568201D00F057FD616A24
:1059700020468847E06901281AD1A0692844A84236
:1059800006D924616060211DF06800F067FD0FE01A
:1059900000200346014600902A46204601F062FEA0
:1059A00030B9084940F2923201F11800FAF712FDBD
:1059B000F06801680029D4D13169C6E90310F8BD47
:1059C0002C090020C875000808484068401C05D014
:1059D00040F20F1206A111A0FAF7FCFC502080F350
:1059E0001188BFF34F8FBFF36F8FFEE74009002090
:1059F0002E2E5C4672656552544F535C706F727404
:105A000061626C655C525644535C41524D5F434D3C
:105A100034465C706F72742E630000004572726FC2
:105A2000723A25732C25640D0A000000084CE068CA
:105A3000016839B1002139B10020FFF735FFFFF7C8
:105A4000BBFEF4E70121F6E7C0680068F5E7000057
:105A50002C0900202DE9F041044600F023FD94F9C3
:105A6000455004F1240610E0A06C20B1002120462E
:105A7000FFF72AFE04E0606A48B1304601F0C0FC3E
:105A800008B100F0F1FE6D1E6DB2002DECDC4FF0A0
:105A9000FF3684F8456000F041FD00F003FD94F905
:105AA000445004F1100709E0206948B1384601F07C
:105AB000A7FC08B100F0D8FE6D1E6DB2002DF3DC1E
:105AC00084F84460BDE8F04100F028BD2DE9F041C4
:105AD0000546002600F0D6FF324F386808B9FFF7B8
